{
  "_format": "hh-sol-artifact-1",
  "contractName": "ConstantFlowAgreementV1",
  "sourceName": "@superfluid-finance/ethereum-contracts/contracts/agreements/ConstantFlowAgreementV1.sol",
  "abi": [
    {
      "inputs": [
        {
          "internalType": "contract ISuperfluid",
          "name": "host",
          "type": "address"
        }
      ],
      "stateMutability": "nonpayable",
      "type": "constructor"
    },
    {
      "anonymous": false,
      "inputs": [
        {
          "indexed": false,
          "internalType": "bytes32",
          "name": "uuid",
          "type": "bytes32"
        },
        {
          "indexed": false,
          "internalType": "address",
          "name": "codeAddress",
          "type": "address"
        }
      ],
      "name": "CodeUpdated",
      "type": "event"
    },
    {
      "anonymous": false,
      "inputs": [
        {
          "indexed": true,
          "internalType": "contract ISuperfluidToken",
          "name": "token",
          "type": "address"
        },
        {
          "indexed": true,
          "internalType": "address",
          "name": "sender",
          "type": "address"
        },
        {
          "indexed": true,
          "internalType": "address",
          "name": "flowOperator",
          "type": "address"
        },
        {
          "indexed": false,
          "internalType": "uint8",
          "name": "permissions",
          "type": "uint8"
        },
        {
          "indexed": false,
          "internalType": "int96",
          "name": "flowRateAllowance",
          "type": "int96"
        }
      ],
      "name": "FlowOperatorUpdated",
      "type": "event"
    },
    {
      "anonymous": false,
      "inputs": [
        {
          "indexed": true,
          "internalType": "contract ISuperfluidToken",
          "name": "token",
          "type": "address"
        },
        {
          "indexed": true,
          "internalType": "address",
          "name": "sender",
          "type": "address"
        },
        {
          "indexed": true,
          "internalType": "address",
          "name": "receiver",
          "type": "address"
        },
        {
          "indexed": false,
          "internalType": "int96",
          "name": "flowRate",
          "type": "int96"
        },
        {
          "indexed": false,
          "internalType": "int256",
          "name": "totalSenderFlowRate",
          "type": "int256"
        },
        {
          "indexed": false,
          "internalType": "int256",
          "name": "totalReceiverFlowRate",
          "type": "int256"
        },
        {
          "indexed": false,
          "internalType": "bytes",
          "name": "userData",
          "type": "bytes"
        }
      ],
      "name": "FlowUpdated",
      "type": "event"
    },
    {
      "anonymous": false,
      "inputs": [
        {
          "indexed": true,
          "internalType": "address",
          "name": "flowOperator",
          "type": "address"
        },
        {
          "indexed": false,
          "internalType": "uint256",
          "name": "deposit",
          "type": "uint256"
        }
      ],
      "name": "FlowUpdatedExtension",
      "type": "event"
    },
    {
      "anonymous": false,
      "inputs": [
        {
          "indexed": false,
          "internalType": "uint8",
          "name": "version",
          "type": "uint8"
        }
      ],
      "name": "Initialized",
      "type": "event"
    },
    {
      "inputs": [],
      "name": "agreementType",
      "outputs": [
        {
          "internalType": "bytes32",
          "name": "",
          "type": "bytes32"
        }
      ],
      "stateMutability": "pure",
      "type": "function"
    },
    {
      "inputs": [
        {
          "internalType": "contract ISuperfluidToken",
          "name": "token",
          "type": "address"
        },
        {
          "internalType": "address",
          "name": "flowOperator",
          "type": "address"
        },
        {
          "internalType": "bytes",
          "name": "ctx",
          "type": "bytes"
        }
      ],
      "name": "authorizeFlowOperatorWithFullControl",
      "outputs": [
        {
          "internalType": "bytes",
          "name": "newCtx",
          "type": "bytes"
        }
      ],
      "stateMutability": "nonpayable",
      "type": "function"
    },
    {
      "inputs": [
        {
          "internalType": "contract ISuperfluidToken",
          "name": "token",
          "type": "address"
        },
        {
          "internalType": "address",
          "name": "receiver",
          "type": "address"
        },
        {
          "internalType": "int96",
          "name": "flowRate",
          "type": "int96"
        },
        {
          "internalType": "bytes",
          "name": "ctx",
          "type": "bytes"
        }
      ],
      "name": "createFlow",
      "outputs": [
        {
          "internalType": "bytes",
          "name": "newCtx",
          "type": "bytes"
        }
      ],
      "stateMutability": "nonpayable",
      "type": "function"
    },
    {
      "inputs": [
        {
          "internalType": "contract ISuperfluidToken",
          "name": "token",
          "type": "address"
        },
        {
          "internalType": "address",
          "name": "sender",
          "type": "address"
        },
        {
          "internalType": "address",
          "name": "receiver",
          "type": "address"
        },
        {
          "internalType": "int96",
          "name": "flowRate",
          "type": "int96"
        },
        {
          "internalType": "bytes",
          "name": "ctx",
          "type": "bytes"
        }
      ],
      "name": "createFlowByOperator",
      "outputs": [
        {
          "internalType": "bytes",
          "name": "newCtx",
          "type": "bytes"
        }
      ],
      "stateMutability": "nonpayable",
      "type": "function"
    },
    {
      "inputs": [
        {
          "internalType": "contract ISuperfluidToken",
          "name": "token",
          "type": "address"
        },
        {
          "internalType": "address",
          "name": "sender",
          "type": "address"
        },
        {
          "internalType": "address",
          "name": "receiver",
          "type": "address"
        },
        {
          "internalType": "bytes",
          "name": "ctx",
          "type": "bytes"
        }
      ],
      "name": "deleteFlow",
      "outputs": [
        {
          "internalType": "bytes",
          "name": "newCtx",
          "type": "bytes"
        }
      ],
      "stateMutability": "nonpayable",
      "type": "function"
    },
    {
      "inputs": [
        {
          "internalType": "contract ISuperfluidToken",
          "name": "token",
          "type": "address"
        },
        {
          "internalType": "address",
          "name": "sender",
          "type": "address"
        },
        {
          "internalType": "address",
          "name": "receiver",
          "type": "address"
        },
        {
          "internalType": "bytes",
          "name": "ctx",
          "type": "bytes"
        }
      ],
      "name": "deleteFlowByOperator",
      "outputs": [
        {
          "internalType": "bytes",
          "name": "newCtx",
          "type": "bytes"
        }
      ],
      "stateMutability": "nonpayable",
      "type": "function"
    },
    {
      "inputs": [
        {
          "internalType": "contract ISuperfluidToken",
          "name": "token",
          "type": "address"
        },
        {
          "internalType": "address",
          "name": "account",
          "type": "address"
        }
      ],
      "name": "getAccountFlowInfo",
      "outputs": [
        {
          "internalType": "uint256",
          "name": "timestamp",
          "type": "uint256"
        },
        {
          "internalType": "int96",
          "name": "flowRate",
          "type": "int96"
        },
        {
          "internalType": "uint256",
          "name": "deposit",
          "type": "uint256"
        },
        {
          "internalType": "uint256",
          "name": "owedDeposit",
          "type": "uint256"
        }
      ],
      "stateMutability": "view",
      "type": "function"
    },
    {
      "inputs": [],
      "name": "getCodeAddress",
      "outputs": [
        {
          "internalType": "address",
          "name": "codeAddress",
          "type": "address"
        }
      ],
      "stateMutability": "view",
      "type": "function"
    },
    {
      "inputs": [
        {
          "internalType": "contract ISuperfluidToken",
          "name": "token",
          "type": "address"
        },
        {
          "internalType": "int96",
          "name": "flowRate",
          "type": "int96"
        }
      ],
      "name": "getDepositRequiredForFlowRate",
      "outputs": [
        {
          "internalType": "uint256",
          "name": "deposit",
          "type": "uint256"
        }
      ],
      "stateMutability": "view",
      "type": "function"
    },
    {
      "inputs": [
        {
          "internalType": "contract ISuperfluidToken",
          "name": "token",
          "type": "address"
        },
        {
          "internalType": "address",
          "name": "sender",
          "type": "address"
        },
        {
          "internalType": "address",
          "name": "receiver",
          "type": "address"
        }
      ],
      "name": "getFlow",
      "outputs": [
        {
          "internalType": "uint256",
          "name": "timestamp",
          "type": "uint256"
        },
        {
          "internalType": "int96",
          "name": "flowRate",
          "type": "int96"
        },
        {
          "internalType": "uint256",
          "name": "deposit",
          "type": "uint256"
        },
        {
          "internalType": "uint256",
          "name": "owedDeposit",
          "type": "uint256"
        }
      ],
      "stateMutability": "view",
      "type": "function"
    },
    {
      "inputs": [
        {
          "internalType": "contract ISuperfluidToken",
          "name": "token",
          "type": "address"
        },
        {
          "internalType": "bytes32",
          "name": "flowId",
          "type": "bytes32"
        }
      ],
      "name": "getFlowByID",
      "outputs": [
        {
          "internalType": "uint256",
          "name": "timestamp",
          "type": "uint256"
        },
        {
          "internalType": "int96",
          "name": "flowRate",
          "type": "int96"
        },
        {
          "internalType": "uint256",
          "name": "deposit",
          "type": "uint256"
        },
        {
          "internalType": "uint256",
          "name": "owedDeposit",
          "type": "uint256"
        }
      ],
      "stateMutability": "view",
      "type": "function"
    },
    {
      "inputs": [
        {
          "internalType": "contract ISuperfluidToken",
          "name": "token",
          "type": "address"
        },
        {
          "internalType": "address",
          "name": "sender",
          "type": "address"
        },
        {
          "internalType": "address",
          "name": "flowOperator",
          "type": "address"
        }
      ],
      "name": "getFlowOperatorData",
      "outputs": [
        {
          "internalType": "bytes32",
          "name": "flowOperatorId",
          "type": "bytes32"
        },
        {
          "internalType": "uint8",
          "name": "permissions",
          "type": "uint8"
        },
        {
          "internalType": "int96",
          "name": "flowRateAllowance",
          "type": "int96"
        }
      ],
      "stateMutability": "view",
      "type": "function"
    },
    {
      "inputs": [
        {
          "internalType": "contract ISuperfluidToken",
          "name": "token",
          "type": "address"
        },
        {
          "internalType": "bytes32",
          "name": "flowOperatorId",
          "type": "bytes32"
        }
      ],
      "name": "getFlowOperatorDataByID",
      "outputs": [
        {
          "internalType": "uint8",
          "name": "permissions",
          "type": "uint8"
        },
        {
          "internalType": "int96",
          "name": "flowRateAllowance",
          "type": "int96"
        }
      ],
      "stateMutability": "view",
      "type": "function"
    },
    {
      "inputs": [
        {
          "internalType": "contract ISuperfluidToken",
          "name": "token",
          "type": "address"
        },
        {
          "internalType": "uint256",
          "name": "deposit",
          "type": "uint256"
        }
      ],
      "name": "getMaximumFlowRateFromDeposit",
      "outputs": [
        {
          "internalType": "int96",
          "name": "flowRate",
          "type": "int96"
        }
      ],
      "stateMutability": "view",
      "type": "function"
    },
    {
      "inputs": [
        {
          "internalType": "contract ISuperfluidToken",
          "name": "token",
          "type": "address"
        },
        {
          "internalType": "address",
          "name": "account",
          "type": "address"
        }
      ],
      "name": "getNetFlow",
      "outputs": [
        {
          "internalType": "int96",
          "name": "flowRate",
          "type": "int96"
        }
      ],
      "stateMutability": "view",
      "type": "function"
    },
    {
      "inputs": [
        {
          "internalType": "contract ISuperfluidToken",
          "name": "token",
          "type": "address"
        },
        {
          "internalType": "address",
          "name": "account",
          "type": "address"
        },
        {
          "internalType": "uint256",
          "name": "timestamp",
          "type": "uint256"
        }
      ],
      "name": "isPatricianPeriod",
      "outputs": [
        {
          "internalType": "bool",
          "name": "",
          "type": "bool"
        }
      ],
      "stateMutability": "view",
      "type": "function"
    },
    {
      "inputs": [
        {
          "internalType": "contract ISuperfluidToken",
          "name": "token",
          "type": "address"
        },
        {
          "internalType": "address",
          "name": "account",
          "type": "address"
        }
      ],
      "name": "isPatricianPeriodNow",
      "outputs": [
        {
          "internalType": "bool",
          "name": "isCurrentlyPatricianPeriod",
          "type": "bool"
        },
        {
          "internalType": "uint256",
          "name": "timestamp",
          "type": "uint256"
        }
      ],
      "stateMutability": "view",
      "type": "function"
    },
    {
      "inputs": [],
      "name": "proxiableUUID",
      "outputs": [
        {
          "internalType": "bytes32",
          "name": "",
          "type": "bytes32"
        }
      ],
      "stateMutability": "view",
      "type": "function"
    },
    {
      "inputs": [
        {
          "internalType": "contract ISuperfluidToken",
          "name": "token",
          "type": "address"
        },
        {
          "internalType": "address",
          "name": "account",
          "type": "address"
        },
        {
          "internalType": "uint256",
          "name": "time",
          "type": "uint256"
        }
      ],
      "name": "realtimeBalanceOf",
      "outputs": [
        {
          "internalType": "int256",
          "name": "dynamicBalance",
          "type": "int256"
        },
        {
          "internalType": "uint256",
          "name": "deposit",
          "type": "uint256"
        },
        {
          "internalType": "uint256",
          "name": "owedDeposit",
          "type": "uint256"
        }
      ],
      "stateMutability": "view",
      "type": "function"
    },
    {
      "inputs": [
        {
          "internalType": "contract ISuperfluidToken",
          "name": "token",
          "type": "address"
        },
        {
          "internalType": "address",
          "name": "flowOperator",
          "type": "address"
        },
        {
          "internalType": "bytes",
          "name": "ctx",
          "type": "bytes"
        }
      ],
      "name": "revokeFlowOperatorWithFullControl",
      "outputs": [
        {
          "internalType": "bytes",
          "name": "newCtx",
          "type": "bytes"
        }
      ],
      "stateMutability": "nonpayable",
      "type": "function"
    },
    {
      "inputs": [
        {
          "internalType": "address",
          "name": "newAddress",
          "type": "address"
        }
      ],
      "name": "updateCode",
      "outputs": [],
      "stateMutability": "nonpayable",
      "type": "function"
    },
    {
      "inputs": [
        {
          "internalType": "contract ISuperfluidToken",
          "name": "token",
          "type": "address"
        },
        {
          "internalType": "address",
          "name": "receiver",
          "type": "address"
        },
        {
          "internalType": "int96",
          "name": "flowRate",
          "type": "int96"
        },
        {
          "internalType": "bytes",
          "name": "ctx",
          "type": "bytes"
        }
      ],
      "name": "updateFlow",
      "outputs": [
        {
          "internalType": "bytes",
          "name": "newCtx",
          "type": "bytes"
        }
      ],
      "stateMutability": "nonpayable",
      "type": "function"
    },
    {
      "inputs": [
        {
          "internalType": "contract ISuperfluidToken",
          "name": "token",
          "type": "address"
        },
        {
          "internalType": "address",
          "name": "sender",
          "type": "address"
        },
        {
          "internalType": "address",
          "name": "receiver",
          "type": "address"
        },
        {
          "internalType": "int96",
          "name": "flowRate",
          "type": "int96"
        },
        {
          "internalType": "bytes",
          "name": "ctx",
          "type": "bytes"
        }
      ],
      "name": "updateFlowByOperator",
      "outputs": [
        {
          "internalType": "bytes",
          "name": "newCtx",
          "type": "bytes"
        }
      ],
      "stateMutability": "nonpayable",
      "type": "function"
    },
    {
      "inputs": [
        {
          "internalType": "contract ISuperfluidToken",
          "name": "token",
          "type": "address"
        },
        {
          "internalType": "address",
          "name": "flowOperator",
          "type": "address"
        },
        {
          "internalType": "uint8",
          "name": "permissions",
          "type": "uint8"
        },
        {
          "internalType": "int96",
          "name": "flowRateAllowance",
          "type": "int96"
        },
        {
          "internalType": "bytes",
          "name": "ctx",
          "type": "bytes"
        }
      ],
      "name": "updateFlowOperatorPermissions",
      "outputs": [
        {
          "internalType": "bytes",
          "name": "newCtx",
          "type": "bytes"
        }
      ],
      "stateMutability": "nonpayable",
      "type": "function"
    }
  ],
  "bytecode": "0x60a06040523480156200001157600080fd5b506040516200878c3803806200878c8339818101604052810190620000379190620000f2565b808073ffffffffffffffffffffffffffffffffffffffff1660808173ffffffffffffffffffffffffffffffffffffffff1681525050505062000124565b600080fd5b600073ffffffffffffffffffffffffffffffffffffffff82169050919050565b6000620000a68262000079565b9050919050565b6000620000ba8262000099565b9050919050565b620000cc81620000ad565b8114620000d857600080fd5b50565b600081519050620000ec81620000c1565b92915050565b6000602082840312156200010b576200010a62000074565b5b60006200011b84828501620000db565b91505092915050565b60805161864c6200014060003960006109ac015261864c6000f3fe608060405234801561001057600080fd5b50600436106101575760003560e01c806352d1902d116100c357806394229ecb1161007c57806394229ecb146104795780639b2e48bc146104a9578063aabd2668146104db578063b4b333c61461050e578063e6a1e8881461053e578063e8e7e2d11461057157610157565b806352d1902d1461037d57806354b770e31461039b57806362fc305e146103cb5780637730599e146103fb578063811b3d40146104195780638d997f6e1461044957610157565b8063469519541161011557806346951954146102825780634b839e0b1461029e5780634c8b181f146102ce5780634fe9c291146102fe57806350209a621461032f57806350d75d251461035f57610157565b8062422bbe1461015c5780630602f7db1461018e578063062e56ec146101be57806309d256ef146101ee5780630f1ac4951461021f578063354b959014610252575b600080fd5b61017660048036038101906101719190615aec565b6105a1565b60405161018593929190615b90565b60405180910390f35b6101a860048036038101906101a39190615bfd565b6105d9565b6040516101b59190615c3d565b60405180910390f35b6101d860048036038101906101d39190615cbd565b61065d565b6040516101e59190615dca565b60405180910390f35b61020860048036038101906102039190615e18565b610678565b604051610216929190615e58565b60405180910390f35b61023960048036038101906102349190615e81565b6106a0565b6040516102499493929190615ed0565b60405180910390f35b61026c60048036038101906102679190615f41565b6106db565b6040516102799190615dca565b60405180910390f35b61029c60048036038101906102979190615fdb565b6109aa565b005b6102b860048036038101906102b39190616008565b610a44565b6040516102c59190616076565b60405180910390f35b6102e860048036038101906102e39190616091565b610b24565b6040516102f59190615dca565b60405180910390f35b61031860048036038101906103139190615e81565b610cbb565b604051610326929190616119565b60405180910390f35b61034960048036038101906103449190616142565b610db7565b6040516103569190615dca565b60405180910390f35b610367610f1a565b60405161037491906161d9565b60405180910390f35b610385610f29565b60405161039291906161f4565b60405180910390f35b6103b560048036038101906103b09190615cbd565b610f9f565b6040516103c29190615dca565b60405180910390f35b6103e560048036038101906103e09190616142565b610fe0565b6040516103f29190615dca565b60405180910390f35b610403611113565b60405161041091906161f4565b60405180910390f35b610433600480360381019061042e919061623b565b61113b565b6040516104409190615dca565b60405180910390f35b610463600480360381019061045e91906162d5565b611419565b6040516104709190616315565b60405180910390f35b610493600480360381019061048e9190615f41565b611733565b6040516104a09190615dca565b60405180910390f35b6104c360048036038101906104be9190616008565b6119c0565b6040516104d293929190616349565b60405180910390f35b6104f560048036038101906104f09190615e18565b611a1a565b6040516105059493929190615ed0565b60405180910390f35b61052860048036038101906105239190616091565b611a55565b6040516105359190615dca565b60405180910390f35b61055860048036038101906105539190615aec565b611bac565b6040516105689493929190615ed0565b60405180910390f35b61058b60048036038101906105869190615e81565b611bf0565b6040516105989190615c3d565b60405180910390f35b60008060006105b08585611c0e565b925060006105be8785611c41565b91505080600001519250806020015191505093509350939050565b60006b8000000000000000000000008210610629576040517f08c379a0000000000000000000000000000000000000000000000000000000008152600401610620906163dd565b60405180910390fd5b61063282611d06565b9150600061063f84611d17565b50905060008184610650919061645b565b9050809250505092915050565b606061066e8585600080878761113b565b9050949350505050565b60008060006106878585611c41565b9150508060000151925080602001519150509250929050565b60008060008060006106b28787611ebb565b915050806000015181602001518260400151836060015194509450945094505092959194509250565b6060600061072d8885858080601f016020809104026020016040519081016040528093929190818152602001838380828437600081840152601f19601f82011690508083019250505050505050611f83565b90508673ffffffffffffffffffffffffffffffffffffffff16816060015173ffffffffffffffffffffffffffffffffffffffff16036107a1576040517f08c379a0000000000000000000000000000000000000000000000000000000008152600401610798906164d8565b60405180910390fd5b6000806107b78a6107b28b8b6121a7565b6121da565b9150915060008060006107cf8d8d88606001516105a1565b9250925092506107e082600161229f565b61081f576040517f08c379a000000000000000000000000000000000000000000000000000000000815260040161081690616544565b60405180910390fd5b60006b7fffffffffffffffffffffff600b0b82600b0b148061084b57508a600b0b8560200151600b0b12155b61086f5784602001518b61085f9190616564565b8261086a9190616564565b610871565b815b9050600081600b0b12156108ba576040517f08c379a00000000000000000000000000000000000000000000000000000000081526004016108b190616656565b60405180910390fd5b6108c68e858584612339565b505050506108d261578c565b8a816000019073ffffffffffffffffffffffffffffffffffffffff16908173ffffffffffffffffffffffffffffffffffffffff168152505089816020019073ffffffffffffffffffffffffffffffffffffffff16908173ffffffffffffffffffffffffffffffffffffffff168152505088816040019073ffffffffffffffffffffffffffffffffffffffff16908173ffffffffffffffffffffffffffffffffffffffff1681525050878160600190600b0b9081600b0b8152505061099a8183858a8a896123e1565b9450505050509695505050505050565b7f000000000000000000000000000000000000000000000000000000000000000073ffffffffffffffffffffffffffffffffffffffff163373ffffffffffffffffffffffffffffffffffffffff1614610a38576040517f08c379a0000000000000000000000000000000000000000000000000000000008152600401610a2f906166c2565b60405180910390fd5b610a4181612589565b50565b6000808473ffffffffffffffffffffffffffffffffffffffff1663eb3537cc85856040518363ffffffff1660e01b8152600401610a829291906166e2565b606060405180830381865afa158015610a9f573d6000803e3d6000fd5b505050506040513d601f19601f82011682018060405250810190610ac3919061674c565b5050905060008112610ad9576001915050610b1d565b600080610ae587611d17565b915091506000610af58888611ebb565b9150506000610b078260400151612770565b9050610b15858286866127dd565b955050505050505b9392505050565b60606000610b768785858080601f016020809104026020016040519081016040528093929190818152602001838380828437600081840152601f19601f82011690508083019250505050505050611f83565b90506000610b89888884606001516105a1565b509150506000610b9a82600261229f565b905080610bdc576040517f08c379a0000000000000000000000000000000000000000000000000000000008152600401610bd3906167eb565b60405180910390fd5b610be461578c565b89816000019073ffffffffffffffffffffffffffffffffffffffff16908173ffffffffffffffffffffffffffffffffffffffff168152505088816020019073ffffffffffffffffffffffffffffffffffffffff16908173ffffffffffffffffffffffffffffffffffffffff168152505087816040019073ffffffffffffffffffffffffffffffffffffffff16908173ffffffffffffffffffffffffffffffffffffffff168152505060008160600190600b0b9081600b0b81525050610cac8183898988612823565b94505050505095945050505050565b60008060008473ffffffffffffffffffffffffffffffffffffffff166320bc44256040518163ffffffff1660e01b8152600401602060405180830381865afa158015610d0b573d6000803e3d6000fd5b505050506040513d601f19601f82011682018060405250810190610d2f9190616820565b90508073ffffffffffffffffffffffffffffffffffffffff1663bbe4fd506040518163ffffffff1660e01b8152600401602060405180830381865afa158015610d7c573d6000803e3d6000fd5b505050506040513d601f19601f82011682018060405250810190610da0919061684d565b9150610dad858584610a44565b9250509250929050565b60606000610e098785858080601f016020809104026020016040519081016040528093929190818152602001838380828437600081840152601f19601f82011690508083019250505050505050611f83565b9050610e1361578c565b87816000019073ffffffffffffffffffffffffffffffffffffffff16908173ffffffffffffffffffffffffffffffffffffffff16815250508160600151816020019073ffffffffffffffffffffffffffffffffffffffff16908173ffffffffffffffffffffffffffffffffffffffff168152505086816040019073ffffffffffffffffffffffffffffffffffffffff16908173ffffffffffffffffffffffffffffffffffffffff1681525050858160600190600b0b9081600b0b815250506000610ee5826020015183604001516121a7565b9050600080610ef88460000151846121da565b91509150610f0a8482848b8b8a6123e1565b9550505050505095945050505050565b6000610f24613193565b905090565b60003073ffffffffffffffffffffffffffffffffffffffff16637730599e6040518163ffffffff1660e01b8152600401602060405180830381865afa158015610f76573d6000803e3d6000fd5b505050506040513d601f19601f82011682018060405250810190610f9a919061688f565b905090565b6060610fd685856002600160ff16901b60018060ff16901b6000600160ff16901b17176b7fffffffffffffffffffffff878761113b565b9050949350505050565b606060006110328785858080601f016020809104026020016040519081016040528093929190818152602001838380828437600081840152601f19601f82011690508083019250505050505050611f83565b905061103c61578c565b87816000019073ffffffffffffffffffffffffffffffffffffffff16908173ffffffffffffffffffffffffffffffffffffffff16815250508160600151816020019073ffffffffffffffffffffffffffffffffffffffff16908173ffffffffffffffffffffffffffffffffffffffff168152505086816040019073ffffffffffffffffffffffffffffffffffffffff16908173ffffffffffffffffffffffffffffffffffffffff1681525050858160600190600b0b9081600b0b81525050611106818686856131bc565b9250505095945050505050565b60007fa9214cc96615e0085d3bb077758db69497dc2dce3b2b1e97bc93c3d18d83efd3905090565b606082828080601f016020809104026020016040519081016040528093929190818152602001838380828437600081840152601f19601f82011690508083019250505050505050905061118d8561337d565b6111cc576040517f08c379a00000000000000000000000000000000000000000000000000000000081526004016111c390616908565b60405180910390fd5b600061121c8885858080601f016020809104026020016040519081016040528093929190818152602001838380828437600081840152601f19601f82011690508083019250505050505050611f83565b90508673ffffffffffffffffffffffffffffffffffffffff16816060015173ffffffffffffffffffffffffffffffffffffffff1603611290576040517f08c379a000000000000000000000000000000000000000000000000000000000815260040161128790616974565b60405180910390fd5b600085600b0b12156112d7576040517f08c379a00000000000000000000000000000000000000000000000000000000081526004016112ce906169e0565b60405180910390fd5b6112df6157f9565b86816000019060ff16908160ff1681525050858160200190600b0b9081600b0b81525050600061131383606001518a611c0e565b90508973ffffffffffffffffffffffffffffffffffffffff1663a1b2bf8b8261133b856133ad565b6040518363ffffffff1660e01b8152600401611358929190616abe565b600060405180830381600087803b15801561137257600080fd5b505af1158015611386573d6000803e3d6000fd5b505050508873ffffffffffffffffffffffffffffffffffffffff16836060015173ffffffffffffffffffffffffffffffffffffffff168b73ffffffffffffffffffffffffffffffffffffffff167fc0d5d3a6ac18cc1769788c925e6e7fc89cd47e4270a42884736fa9b3ec09f3a88b8b604051611404929190615e58565b60405180910390a45050509695505050505050565b60008082600b0b1215611461576040517f08c379a000000000000000000000000000000000000000000000000000000000815260040161145890616b3a565b60405180910390fd5b60008373ffffffffffffffffffffffffffffffffffffffff166320bc44256040518163ffffffff1660e01b8152600401602060405180830381865afa1580156114ae573d6000803e3d6000fd5b505050506040513d601f19601f820116820180604052508101906114d29190616820565b905060008173ffffffffffffffffffffffffffffffffffffffff1663289b3c0d6040518163ffffffff1660e01b8152600401602060405180830381865afa158015611521573d6000803e3d6000fd5b505050506040513d601f19601f820116820180604052508101906115459190616b98565b905060008173ffffffffffffffffffffffffffffffffffffffff166380f70cba84887feae305fa863b373417e615b1044222e2806cefc7788d169ce6748a443c3f6cc46040518463ffffffff1660e01b81526004016115a693929190616c45565b602060405180830381865afa1580156115c3573d6000803e3d6000fd5b505050506040513d601f19601f820116820180604052508101906115e7919061684d565b905060008273ffffffffffffffffffffffffffffffffffffffff166380f70cba85897fe420d96e81cb4a6b2abb2366c4f93312d4e2ae878a7d4b22e73472fdad891f786040518463ffffffff1660e01b815260040161164893929190616c45565b602060405180830381865afa158015611665573d6000803e3d6000fd5b505050506040513d601f19601f82011682018060405250810190611689919061684d565b9050600061169682613451565b5090506b7fffffffffffffffffffffff600b0b8188600b0b6116b89190616c7c565b11156116f9576040517f08c379a00000000000000000000000000000000000000000000000000000000081526004016116f090616d22565b60405180910390fd5b60006117058883613473565b905083811080156117195750600088600b0b135b6117235780611725565b835b965050505050505092915050565b606060006117858885858080601f016020809104026020016040519081016040528093929190818152602001838380828437600081840152601f19601f82011690508083019250505050505050611f83565b90508673ffffffffffffffffffffffffffffffffffffffff16816060015173ffffffffffffffffffffffffffffffffffffffff16036117f9576040517f08c379a00000000000000000000000000000000000000000000000000000000081526004016117f090616d8e565b60405180910390fd5b600080600061180d8b8b86606001516105a1565b92509250925061181e82600061229f565b61185d576040517f08c379a000000000000000000000000000000000000000000000000000000000815260040161185490616dfa565b60405180910390fd5b60006b7fffffffffffffffffffffff600b0b82600b0b146118895788826118849190616564565b61188b565b815b9050600081600b0b12156118d4576040517f08c379a00000000000000000000000000000000000000000000000000000000081526004016118cb90616656565b60405180910390fd5b6118e08c858584612339565b505050506118ec61578c565b88816000019073ffffffffffffffffffffffffffffffffffffffff16908173ffffffffffffffffffffffffffffffffffffffff168152505087816020019073ffffffffffffffffffffffffffffffffffffffff16908173ffffffffffffffffffffffffffffffffffffffff168152505086816040019073ffffffffffffffffffffffffffffffffffffffff16908173ffffffffffffffffffffffffffffffffffffffff1681525050858160600190600b0b9081600b0b815250506119b2818686856131bc565b925050509695505050505050565b60008060008060006119d28888611ebb565b915091508115611a0f578060200151600b0b8160000151876119f49190616e1a565b6119fe9190616eae565b945080604001519350806060015192505b505093509350939050565b6000806000806000611a2c87876121da565b915050806000015181602001518260400151836060015194509450945094505092959194509250565b60606000611aa78785858080601f016020809104026020016040519081016040528093929190818152602001838380828437600081840152601f19601f82011690508083019250505050505050611f83565b90506000611aba888884606001516105a1565b509150506000611acb82600261229f565b9050611ad561578c565b89816000019073ffffffffffffffffffffffffffffffffffffffff16908173ffffffffffffffffffffffffffffffffffffffff168152505088816020019073ffffffffffffffffffffffffffffffffffffffff16908173ffffffffffffffffffffffffffffffffffffffff168152505087816040019073ffffffffffffffffffffffffffffffffffffffff16908173ffffffffffffffffffffffffffffffffffffffff168152505060008160600190600b0b9081600b0b81525050611b9d8183898988612823565b94505050505095945050505050565b6000806000806000611bc788611bc289896121a7565b6121da565b915050806000015181602001518260400151836060015194509450945094505093509350935093565b600080611bfd8484611ebb565b915050806020015191505092915050565b60008282604051602001611c23929190617011565b60405160208183030381529060405280519060200120905092915050565b6000611c4b6157f9565b60008473ffffffffffffffffffffffffffffffffffffffff16636c2d9f2f308660016040518463ffffffff1660e01b8152600401611c8b93929190617088565b600060405180830381865afa158015611ca8573d6000803e3d6000fd5b505050506040513d6000823e3d601f19601f82011682018060405250810190611cd191906171fd565b9050611cfa81600081518110611cea57611ce9617246565b5b602002602001015160001c61350c565b92509250509250929050565b600060208083901c901b9050919050565b60008060008373ffffffffffffffffffffffffffffffffffffffff166320bc44256040518163ffffffff1660e01b8152600401602060405180830381865afa158015611d67573d6000803e3d6000fd5b505050506040513d601f19601f82011682018060405250810190611d8b9190616820565b905060008173ffffffffffffffffffffffffffffffffffffffff1663289b3c0d6040518163ffffffff1660e01b8152600401602060405180830381865afa158015611dda573d6000803e3d6000fd5b505050506040513d601f19601f82011682018060405250810190611dfe9190616b98565b905060008173ffffffffffffffffffffffffffffffffffffffff166380f70cba84887fe420d96e81cb4a6b2abb2366c4f93312d4e2ae878a7d4b22e73472fdad891f786040518463ffffffff1660e01b8152600401611e5f93929190616c45565b602060405180830381865afa158015611e7c573d6000803e3d6000fd5b505050506040513d601f19601f82011682018060405250810190611ea0919061684d565b9050611eab81613451565b8095508196505050505050915091565b6000611ec5615819565b60008473ffffffffffffffffffffffffffffffffffffffff16634b61cc333086600060016040518563ffffffff1660e01b8152600401611f0894939291906172b0565b600060405180830381865afa158015611f25573d6000803e3d6000fd5b505050506040513d6000823e3d601f19601f82011682018060405250810190611f4e91906171fd565b9050611f7781600081518110611f6757611f66617246565b5b602002602001015160001c613553565b92509250509250929050565b611f8b615844565b3373ffffffffffffffffffffffffffffffffffffffff168373ffffffffffffffffffffffffffffffffffffffff166320bc44256040518163ffffffff1660e01b8152600401602060405180830381865afa158015611fed573d6000803e3d6000fd5b505050506040513d601f19601f820116820180604052508101906120119190616820565b73ffffffffffffffffffffffffffffffffffffffff1614612067576040517f08c379a000000000000000000000000000000000000000000000000000000000815260040161205e90617341565b60405180910390fd5b3373ffffffffffffffffffffffffffffffffffffffff1663bf428734836040518263ffffffff1660e01b81526004016120a09190615dca565b602060405180830381865afa1580156120bd573d6000803e3d6000fd5b505050506040513d601f19601f820116820180604052508101906120e1919061738d565b612120576040517f08c379a000000000000000000000000000000000000000000000000000000000815260040161211790617406565b60405180910390fd5b3373ffffffffffffffffffffffffffffffffffffffff16633f6c923a836040518263ffffffff1660e01b81526004016121599190615dca565b600060405180830381865afa158015612176573d6000803e3d6000fd5b505050506040513d6000823e3d601f19601f8201168201806040525081019061219f9190617680565b905092915050565b600082826040516020016121bc9291906176c9565b60405160208183030381529060405280519060200120905092915050565b60006121e4615819565b60008473ffffffffffffffffffffffffffffffffffffffff16636c2d9f2f308660016040518463ffffffff1660e01b815260040161222493929190617088565b600060405180830381865afa158015612241573d6000803e3d6000fd5b505050506040513d6000823e3d601f19601f8201168201806040525081019061226a91906171fd565b90506122938160008151811061228357612282617246565b5b602002602001015160001c613553565b92509250509250929050565b60008060028111156122b4576122b36176f2565b5b8260028111156122c7576122c66176f2565b5b036122dc57600180841660ff16149050612333565b600160028111156122f0576122ef6176f2565b5b826002811115612303576123026176f2565b5b0361231f5760018060018560ff16901c1660ff16149050612332565b60018060028560ff16901c1660ff161490505b5b92915050565b6123416157f9565b82816000019060ff16908160ff1681525050818160200190600b0b9081600b0b815250508473ffffffffffffffffffffffffffffffffffffffff1663a1b2bf8b8561238b846133ad565b6040518363ffffffff1660e01b81526004016123a8929190616abe565b600060405180830381600087803b1580156123c257600080fd5b505af11580156123d6573d6000803e3d6000fd5b505050505050505050565b606060006123ef88846135e1565b91505085612432576040517f08c379a00000000000000000000000000000000000000000000000000000000081526004016124299061776d565b60405180910390fd5b3373ffffffffffffffffffffffffffffffffffffffff16633ca3ad4e89604001516040518263ffffffff1660e01b815260040161246f91906177ae565b602060405180830381865afa15801561248c573d6000803e3d6000fd5b505050506040513d601f19601f820116820180604052508101906124b0919061738d565b156125185761251188604001518960000151838a89898080601f016020809104026020016040519081016040528093929190818152602001838380828437600081840152601f19601f8201169050808301925050505050505088600161381a565b9150612570565b61256d8860000151828988888080601f016020809104026020016040519081016040528093929190818152602001838380828437600081840152601f19601f8201169050808301925050505050505087614041565b91505b61257e886000015184614159565b509695505050505050565b600073ffffffffffffffffffffffffffffffffffffffff166125a9613193565b73ffffffffffffffffffffffffffffffffffffffff16036125ff576040517f08c379a00000000000000000000000000000000000000000000000000000000081526004016125f690617815565b60405180910390fd5b8073ffffffffffffffffffffffffffffffffffffffff166352d1902d6040518163ffffffff1660e01b8152600401602060405180830381865afa15801561264a573d6000803e3d6000fd5b505050506040513d601f19601f8201168201806040525081019061266e919061688f565b612676610f29565b146126b6576040517f08c379a00000000000000000000000000000000000000000000000000000000081526004016126ad906178a7565b60405180910390fd5b8073ffffffffffffffffffffffffffffffffffffffff163073ffffffffffffffffffffffffffffffffffffffff1603612724576040517f08c379a000000000000000000000000000000000000000000000000000000000815260040161271b90617913565b60405180910390fd5b61272d8161427d565b7fe011bc04c286c344a8fcbb8de77f953da762c3e25d8cdea984147fc4168a5dcc612756610f29565b82604051612765929190617933565b60405180910390a150565b60007f7fffffffffffffffffffffffffffffffffffffffffffffffffffffffffffffff8211156127d5576040517f08c379a00000000000000000000000000000000000000000000000000000000081526004016127cc906179ce565b60405180910390fd5b819050919050565b60008084866127ec91906179ee565b9050600084866127fc9190617a82565b9050838561280a9190617aec565b81836128169190617a82565b1392505050949350505050565b606061282d615905565b600073ffffffffffffffffffffffffffffffffffffffff16876020015173ffffffffffffffffffffffffffffffffffffffff16036128a0576040517f08c379a000000000000000000000000000000000000000000000000000000000815260040161289790617b6c565b60405180910390fd5b600073ffffffffffffffffffffffffffffffffffffffff16876040015173ffffffffffffffffffffffffffffffffffffffff1603612913576040517f08c379a000000000000000000000000000000000000000000000000000000000815260040161290a90617bd8565b60405180910390fd5b612925876020015188604001516121a7565b8160000181815250508660200151816020019073ffffffffffffffffffffffffffffffffffffffff16908173ffffffffffffffffffffffffffffffffffffffff16815250508660400151816040019073ffffffffffffffffffffffffffffffffffffffff16908173ffffffffffffffffffffffffffffffffffffffff16815250508260600151816060019073ffffffffffffffffffffffffffffffffffffffff16908173ffffffffffffffffffffffffffffffffffffffff168152505060008160800190600b0b9081600b0b815250508260a001518160a00181905250600080612a17896000015184600001516121da565b9150915081612a5b576040517f08c379a0000000000000000000000000000000000000000000000000000000008152600401612a529061776d565b60405180910390fd5b6000896000015173ffffffffffffffffffffffffffffffffffffffff1663eb3537cc8b6020015188604001516040518363ffffffff1660e01b8152600401612aa49291906166e2565b606060405180830381865afa158015612ac1573d6000803e3d6000fd5b505050506040513d601f19601f82011682018060405250810190612ae5919061674c565b50509050896020015173ffffffffffffffffffffffffffffffffffffffff16866060015173ffffffffffffffffffffffffffffffffffffffff1614158015612b615750896040015173ffffffffffffffffffffffffffffffffffffffff16866060015173ffffffffffffffffffffffffffffffffffffffff1614155b8015612b6b575088155b15612cc0573373ffffffffffffffffffffffffffffffffffffffff16636b4f33358b602001516040518263ffffffff1660e01b8152600401612bad91906177ae565b602060405180830381865afa158015612bca573d6000803e3d6000fd5b505050506040513d601f19601f82011682018060405250810190612bee919061738d565b158015612c7657503373ffffffffffffffffffffffffffffffffffffffff16636b4f33358b604001516040518263ffffffff1660e01b8152600401612c3391906177ae565b602060405180830381865afa158015612c50573d6000803e3d6000fd5b505050506040513d601f19601f82011682018060405250810190612c74919061738d565b155b15612cbf5760008112612cbe576040517f08c379a0000000000000000000000000000000000000000000000000000000008152600401612cb590617c6a565b60405180910390fd5b5b5b6000811215612cdf57612cde8a600001518286858a606001516142a3565b5b87878080601f016020809104026020016040519081016040528093929190818152602001838380828437600081840152601f19601f820116905080830192505050505050509450896020015173ffffffffffffffffffffffffffffffffffffffff16866060015173ffffffffffffffffffffffffffffffffffffffff1603612e1c573373ffffffffffffffffffffffffffffffffffffffff16633ca3ad4e8b604001516040518263ffffffff1660e01b8152600401612d9e91906177ae565b602060405180830381865afa158015612dbb573d6000803e3d6000fd5b505050506040513d601f19601f82011682018060405250810190612ddf919061738d565b15612e0357612dfc8a604001518b600001518685898b600261381a565b9450612e17565b612e148a600001518584888a614041565b94505b613186565b896040015173ffffffffffffffffffffffffffffffffffffffff16866060015173ffffffffffffffffffffffffffffffffffffffff1603612fb2573373ffffffffffffffffffffffffffffffffffffffff16633ca3ad4e8b602001516040518263ffffffff1660e01b8152600401612e9491906177ae565b602060405180830381865afa158015612eb1573d6000803e3d6000fd5b505050506040513d601f19601f82011682018060405250810190612ed5919061738d565b15612ef957612ef28a602001518b600001518685898b600261381a565b9450612fad565b3373ffffffffffffffffffffffffffffffffffffffff16633ca3ad4e8b604001516040518263ffffffff1660e01b8152600401612f3691906177ae565b602060405180830381865afa158015612f53573d6000803e3d6000fd5b505050506040513d601f19601f82011682018060405250810190612f77919061738d565b15612f9857612f9160008b600001518685898b600261381a565b9450612fac565b612fa98a600001518584888a614041565b94505b5b613185565b3373ffffffffffffffffffffffffffffffffffffffff16633ca3ad4e8b602001516040518263ffffffff1660e01b8152600401612fef91906177ae565b602060405180830381865afa15801561300c573d6000803e3d6000fd5b505050506040513d601f19601f82011682018060405250810190613030919061738d565b801561303c5750600081125b156130ce573373ffffffffffffffffffffffffffffffffffffffff1663b724211e868c60200151600b6040518463ffffffff1660e01b815260040161308393929190617c8a565b6000604051808303816000875af11580156130a2573d6000803e3d6000fd5b505050506040513d6000823e3d601f19601f820116820180604052508101906130cb9190617cc8565b94505b3373ffffffffffffffffffffffffffffffffffffffff16633ca3ad4e8b604001516040518263ffffffff1660e01b815260040161310b91906177ae565b602060405180830381865afa158015613128573d6000803e3d6000fd5b505050506040513d601f19601f8201168201806040525081019061314c919061738d565b15613170576131698a604001518b600001518685898b600261381a565b9450613184565b6131818a600001518584888a614041565b94505b5b5b5050505095945050505050565b60007f360894a13ba1a3210667c828492db98dca3e2076cc3735a920a3ca505d382bbc54905090565b60606000806131cb87856135e1565b915091506000806131e08960000151856121da565b915091508115613225576040517f08c379a000000000000000000000000000000000000000000000000000000000815260040161321c90617d5d565b60405180910390fd5b3373ffffffffffffffffffffffffffffffffffffffff16633ca3ad4e8a604001516040518263ffffffff1660e01b815260040161326291906177ae565b602060405180830381865afa15801561327f573d6000803e3d6000fd5b505050506040513d601f19601f820116820180604052508101906132a3919061738d565b1561330b5761330489604001518a6000015185848c8c8080601f016020809104026020016040519081016040528093929190818152602001838380828437600081840152601f19601f820116905080830192505050505050508b600061381a565b9450613363565b613360896000015184838b8b8080601f016020809104026020016040519081016040528093929190818152602001838380828437600081840152601f19601f820116905080830192505050505050508a614041565b94505b613371896000015187614159565b50505050949350505050565b60008060ff166002600160ff16901b60018060ff16901b6000600160ff16901b171719831660ff16149050919050565b606060008260200151600b0b12156133c8576133c7617d7d565b5b600167ffffffffffffffff8111156133e3576133e26170bf565b5b6040519080825280602002602001820160405280156134115781602001602082028036833780820191505090505b5090508160200151600b0b6080836000015160ff16901b1760001b816000815181106134405761343f617246565b5b602002602001018181525050919050565b60008063ffffffff8016602084901c16915063ffffffff801683169050915091565b60008083600b0b036134885760009050613506565b6b7fffffffffffffffffffffff600b0b8211156134a8576134a7617d7d565b5b6134f5826040518060400160405280601581526020017f4346413a206465706f736974206f766572666c6f77000000000000000000000081525085600b0b6145069092919063ffffffff16565b600b0b905061350381614620565b90505b92915050565b60006135166157f9565b600083119150811561354e57828160200190600b0b9081600b0b8152505060ff608084901c16816000019060ff16908160ff16815250505b915091565b600061355d615819565b60008311915081156135dc5760e083901c63ffffffff168160000181815250506bffffffffffffffffffffffff8016608084901c168160200190600b0b9081600b0b81525050602067ffffffffffffffff8016604085901c16901b816040018181525050602067ffffffffffffffff80168416901b8160600181815250505b915091565b60006135eb615905565b600073ffffffffffffffffffffffffffffffffffffffff16846040015173ffffffffffffffffffffffffffffffffffffffff160361365e576040517f08c379a000000000000000000000000000000000000000000000000000000000815260040161365590617bd8565b60405180910390fd5b613670846020015185604001516121a7565b9150818160000181815250508360200151816020019073ffffffffffffffffffffffffffffffffffffffff16908173ffffffffffffffffffffffffffffffffffffffff16815250508360400151816040019073ffffffffffffffffffffffffffffffffffffffff16908173ffffffffffffffffffffffffffffffffffffffff16815250508260600151816060019073ffffffffffffffffffffffffffffffffffffffff16908173ffffffffffffffffffffffffffffffffffffffff168152505083606001518160800190600b0b9081600b0b815250508260a001518160a00181905250806040015173ffffffffffffffffffffffffffffffffffffffff16816020015173ffffffffffffffffffffffffffffffffffffffff16036137c9576040517f08c379a00000000000000000000000000000000000000000000000000000000081526004016137c090617df8565b60405180910390fd5b60008160800151600b0b13613813576040517f08c379a000000000000000000000000000000000000000000000000000000000815260040161380a90617e64565b60405180910390fd5b9250929050565b6060839050613827615983565b600073ffffffffffffffffffffffffffffffffffffffff168973ffffffffffffffffffffffffffffffffffffffff1614613a6a576000613896898b8a600001518b602001518c604001516040516020016138829291906176c9565b60405160208183030381529060405261465e565b9050600060028111156138ac576138ab6176f2565b5b8460028111156138bf576138be6176f2565b5b036138d8576401000000008160c0018181525050613929565b600160028111156138ec576138eb6176f2565b5b8460028111156138ff576138fe6176f2565b5b03613918576404000000008160c0018181525050613928565b6410000000008160c00181815250505b5b61393381876146f1565b826000018190525061395185604001518661014001518b8b8b61493f565b909150508160800181815250506001856000015161396f9190617e84565b60ff1681608001516139819190616c7c565b8160800181815250506139978760600151612770565b8160a0018181525050600060028111156139b4576139b36176f2565b5b8460028111156139c7576139c66176f2565b5b036139e0576402000000008160c0018181525050613a31565b600160028111156139f4576139f36176f2565b5b846002811115613a0757613a066176f2565b5b03613a20576408000000008160c0018181525050613a30565b6420000000008160c00181815250505b5b613a4081836000015185614e56565b836040018195508290525050613a5a8989600001516121da565b9050826020018190525050613a8e565b613a8084604001518561014001518a8a8a61493f565b909150905081602001819052505b6000816040015161010001511315613ad157613ac2613abd613ab88360400151610100015161517a565b614620565b612770565b81604001516101000181815250505b6000613ae08760600151612770565b82604001516101000151613af49190616e1a565b9050613b1a81613b0b846020015160400151612770565b613b1591906179ee565b61517a565b82602001516040018181525050613b4b81613b3c846020015160600151612770565b613b4691906179ee565b61517a565b826020015160600181815250508873ffffffffffffffffffffffffffffffffffffffff1663a1b2bf8b8960000151613b8685602001516151c7565b6040518363ffffffff1660e01b8152600401613ba3929190616abe565b600060405180830381600087803b158015613bbd57600080fd5b505af1158015613bd1573d6000803e3d6000fd5b50505050613bed89896020015160008460008a60400151615276565b50613c05898960400151600080858a60400151615276565b50600073ffffffffffffffffffffffffffffffffffffffff1685610140015173ffffffffffffffffffffffffffffffffffffffff161480613c7657508873ffffffffffffffffffffffffffffffffffffffff1685610140015173ffffffffffffffffffffffffffffffffffffffff16145b15613d0b573373ffffffffffffffffffffffffffffffffffffffff16630792f20a84846020015160400151846040518463ffffffff1660e01b8152600401613cc093929190617ebb565b6000604051808303816000875af1158015613cdf573d6000803e3d6000fd5b505050506040513d6000823e3d601f19601f82011682018060405250810190613d089190617cc8565b92505b3373ffffffffffffffffffffffffffffffffffffffff16633ca3ad4e89604001516040518263ffffffff1660e01b8152600401613d4891906177ae565b602060405180830381865afa158015613d65573d6000803e3d6000fd5b505050506040513d601f19601f82011682018060405250810190613d89919061738d565b156140345760008973ffffffffffffffffffffffffffffffffffffffff1663eb3537cc8a6040015188604001516040518363ffffffff1660e01b8152600401613dd39291906166e2565b606060405180830381865afa158015613df0573d6000803e3d6000fd5b505050506040513d601f19601f82011682018060405250810190613e14919061674c565b90505080915050600081121561403257600280811115613e3757613e366176f2565b5b856002811115613e4a57613e496176f2565b5b03613ff6573373ffffffffffffffffffffffffffffffffffffffff1663b724211e858b60400151600c6040518463ffffffff1660e01b8152600401613e9193929190617c8a565b6000604051808303816000875af1158015613eb0573d6000803e3d6000fd5b505050506040513d6000823e3d601f19601f82011682018060405250810190613ed99190617cc8565b93506000613f0382613eea90617ef9565b613efe600086613ef990617ef9565b615473565b61548c565b90508a73ffffffffffffffffffffffffffffffffffffffff1663cf97256d8b6020015183613f3090617ef9565b6040518363ffffffff1660e01b8152600401613f4d929190617f41565b600060405180830381600087803b158015613f6757600080fd5b505af1158015613f7b573d6000803e3d6000fd5b505050508a73ffffffffffffffffffffffffffffffffffffffff1663cf97256d8b60400151836040518363ffffffff1660e01b8152600401613fbe929190617f41565b600060405180830381600087803b158015613fd857600080fd5b505af1158015613fec573d6000803e3d6000fd5b5050505050614031565b6040517f08c379a000000000000000000000000000000000000000000000000000000000815260040161402890617fdc565b60405180910390fd5b5b505b5050979650505050505050565b6060600084606001511461405857614057617d7d565b5b6000614062615819565b61407884604001518561014001518a8a8a61493f565b905080925081935050508773ffffffffffffffffffffffffffffffffffffffff1684610140015173ffffffffffffffffffffffffffffffffffffffff160361414a573373ffffffffffffffffffffffffffffffffffffffff16630792f20a868360400151856040518463ffffffff1660e01b81526004016140fb93929190617ebb565b6000604051808303816000875af115801561411a573d6000803e3d6000fd5b505050506040513d6000823e3d601f19601f820116820180604052508101906141439190617cc8565b925061414e565b8492505b505095945050505050565b600360ff16816020015160ff161415806141a457508173ffffffffffffffffffffffffffffffffffffffff1681610140015173ffffffffffffffffffffffffffffffffffffffff1614155b156142795760008273ffffffffffffffffffffffffffffffffffffffff1663eb3537cc836060015184604001516040518363ffffffff1660e01b81526004016141ee9291906166e2565b606060405180830381865afa15801561420b573d6000803e3d6000fd5b505050506040513d601f19601f8201168201806040525081019061422f919061674c565b505090506000811215614277576040517f08c379a000000000000000000000000000000000000000000000000000000000815260040161426e9061806e565b60405180910390fd5b505b5050565b807f360894a13ba1a3210667c828492db98dca3e2076cc3735a920a3ca505d382bbc5550565b60006142b3868560200151611ebb565b91505060006142c58460400151612770565b905060006142d68360400151612770565b90506060600080838a6142e991906179ee565b90506000806142f78d611d17565b915091506143078c8784846127dd565b93505050600081126144195760008482876143229190616eae565b61432c9190617a82565b905060018361433c57600161433f565b60005b6040516020016143509291906180bf565b60405160208183030381529060405293508b73ffffffffffffffffffffffffffffffffffffffff16631863e8098b60000151868b878f602001516143938861517a565b7fffffffffffffffffffffffffffffffffffffffffffffffffffffffffffffffff896143bf9190616eae565b6040518863ffffffff1660e01b81526004016143e197969594939291906180e8565b600060405180830381600087803b1580156143fb57600080fd5b505af115801561440f573d6000803e3d6000fd5b50505050506144f9565b600085905060016002604051602001614433929190618199565b60405160208183030381529060405293508b73ffffffffffffffffffffffffffffffffffffffff16631863e8098b60000151868b60008f602001516144778861517a565b7fffffffffffffffffffffffffffffffffffffffffffffffffffffffffffffffff8a6144a39190616eae565b6040518863ffffffff1660e01b81526004016144c597969594939291906180e8565b600060405180830381600087803b1580156144df57600080fd5b505af11580156144f3573d6000803e3d6000fd5b50505050505b5050505050505050505050565b60008084600b0b0361451b5760009050614619565b7fffffffffffffffffffffffffffffffffffffffffffffffffffffffffffffffff84600b0b14801561457257507fffffffffffffffffffffffffffffffffffffffff800000000000000000000000600b0b83600b0b145b1582906145b5576040517f08c379a00000000000000000000000000000000000000000000000000000000081526004016145ac9190618206565b60405180910390fd5b506000838502905083600b0b85826145cd9190618228565b600b0b148390614613576040517f08c379a000000000000000000000000000000000000000000000000000000000815260040161460a9190618206565b60405180910390fd5b50809150505b9392505050565b600080600063ffffffff801684161161463a57600061463d565b60015b60ff169050602081602085901c6146549190618292565b901b915050919050565b6146666159b0565b84816000019073ffffffffffffffffffffffffffffffffffffffff16908173ffffffffffffffffffffffffffffffffffffffff168152505083816020019073ffffffffffffffffffffffffffffffffffffffff16908173ffffffffffffffffffffffffffffffffffffffff168152505082816040018181525050818160600181905250949350505050565b606060008060003373ffffffffffffffffffffffffffffffffffffffff1663f9f522f487602001516040518263ffffffff1660e01b815260040161473591906177ae565b606060405180830381865afa158015614752573d6000803e3d6000fd5b505050506040513d601f19601f8201168201806040525081019061477691906182e8565b80935081945082955050505082801561478d575081155b1561493657600061479e86886154a5565b905060008760c001518316036149285760006147bd8860c00151615548565b8860000151308a604001518b60600151600067ffffffffffffffff8111156147e8576147e76170bf565b5b6040519080825280601f01601f19166020018201604052801561481a5781602001600182028036833780820191505090505b5060405160240161482f95949392919061833b565b604051602081830303815290604052907bffffffffffffffffffffffffffffffffffffffffffffffffffffffff19166020820180517bffffffffffffffffffffffffffffffffffffffffffffffffffffffff838183161783525050505090503373ffffffffffffffffffffffffffffffffffffffff166374041e028960200151836410000000008c60c0015114866040518563ffffffff1660e01b81526004016148dc949392919061839c565b6000604051808303816000875af11580156148fb573d6000803e3d6000fd5b505050506040513d6000823e3d601f19601f820116820180604052508101906149249190617cc8565b9550505b6149338660006155e1565b50505b50505092915050565b60008061494a615819565b600080600061495889611d17565b50905060003373ffffffffffffffffffffffffffffffffffffffff1663289b3c0d6040518163ffffffff1660e01b8152600401602060405180830381865afa1580156149a8573d6000803e3d6000fd5b505050506040513d601f19601f820116820180604052508101906149cc9190616b98565b90508073ffffffffffffffffffffffffffffffffffffffff166380f70cba338c7feae305fa863b373417e615b1044222e2806cefc7788d169ce6748a443c3f6cc46040518463ffffffff1660e01b8152600401614a2b93929190616c45565b602060405180830381865afa158015614a48573d6000803e3d6000fd5b505050506040513d601f19601f82011682018060405250810190614a6c919061684d565b9250614a7c896080015183613473565b95505050614a8d8660600151612770565b614a9a8760400151612770565b614aa386612770565b614aad9190616e1a565b614ab791906179ee565b9450614ad985614aca8860400151612770565b614ad491906179ee565b61517a565b91508082108015614af1575060008760800151600b0b135b15614b3357614b038660600151612770565b614b108760400151612770565b614b1983612770565b614b239190616e1a565b614b2d91906179ee565b94508091505b600073ffffffffffffffffffffffffffffffffffffffff168973ffffffffffffffffffffffffffffffffffffffff1614158015614b9c57508773ffffffffffffffffffffffffffffffffffffffff168973ffffffffffffffffffffffffffffffffffffffff1614155b15614ba657600093505b604051806080016040528060008960800151600b0b13614bc7576000614bc9565b8b5b81526020018860800151600b0b8152602001838152602001876060015181525092508773ffffffffffffffffffffffffffffffffffffffff1663a1b2bf8b8860000151614c15866151c7565b6040518363ffffffff1660e01b8152600401614c32929190616abe565b600060405180830381600087803b158015614c4c57600080fd5b505af1158015614c60573d6000803e3d6000fd5b5050505050614c6d615a1c565b614cd4888860200151614ccb8a608001516040518060400160405280601681526020017f4346413a20666c6f7772617465206f766572666c6f77000000000000000000008152508b60200151600b0b61566e9092919063ffffffff16565b8860008f615276565b8160000190600b0b9081600b0b81525050614d4c888860400151614d4389602001516040518060400160405280601681526020017f4346413a20666c6f7772617465206f766572666c6f77000000000000000000008152508c60800151600b0b61566e9092919063ffffffff16565b6000808f615276565b8160200190600b0b9081600b0b81525050866040015173ffffffffffffffffffffffffffffffffffffffff16876020015173ffffffffffffffffffffffffffffffffffffffff168973ffffffffffffffffffffffffffffffffffffffff167f57269d2ebcccecdcc0d9d2c0a0b80ead95f344e28ec20f50f709811f209d4e0e8a60800151856000015186602001518d60a00151604051614def9493929190618420565b60405180910390a4866060015173ffffffffffffffffffffffffffffffffffffffff167f71e0c98e270fc3084227b473f176924d5303ece8c639e679998a2d7dc8e70f7483604051614e419190616315565b60405180910390a25050955095509592505050565b614e5e615844565b606060008060003373ffffffffffffffffffffffffffffffffffffffff1663f9f522f489602001516040518263ffffffff1660e01b8152600401614ea291906177ae565b606060405180830381865afa158015614ebf573d6000803e3d6000fd5b505050506040513d601f19601f82011682018060405250810190614ee391906182e8565b809350819450829550505050859350828015614efd575081155b1561516f57614f0c84896154a5565b935060008860c0015182160361515d576000614f2b8960c00151615548565b8960000151308b604001518c606001518c600067ffffffffffffffff811115614f5757614f566170bf565b5b6040519080825280601f01601f191660200182016040528015614f895781602001600182028036833780820191505090505b50604051602401614f9f9695949392919061846c565b604051602081830303815290604052907bffffffffffffffffffffffffffffffffffffffffffffffffffffffff19166020820180517bffffffffffffffffffffffffffffffffffffffffffffffffffffffff838183161783525050505090503373ffffffffffffffffffffffffffffffffffffffff16631e6d0a848a60200151836420000000008d60c0015114896040518563ffffffff1660e01b815260040161504c949392919061839c565b6000604051808303816000875af115801561506b573d6000803e3d6000fd5b505050506040513d6000823e3d601f19601f820116820180604052508101906150949190617cc8565b94503373ffffffffffffffffffffffffffffffffffffffff16633f6c923a866040518263ffffffff1660e01b81526004016150cf9190615dca565b600060405180830381865afa1580156150ec573d6000803e3d6000fd5b505050506040513d6000823e3d601f19601f820116820180604052508101906151159190617680565b9550615151600061514c61512c8c60800151612770565b61514761513c8b60e00151612770565b8b6101000151615473565b61548c565b615473565b86610100018181525050505b61516c868661010001516155e1565b93505b505050935093915050565b6000808212156151bf576040517f08c379a00000000000000000000000000000000000000000000000000000000081526004016151b69061852e565b60405180910390fd5b819050919050565b6060600167ffffffffffffffff8111156151e4576151e36170bf565b5b6040519080825280602002602001820160405280156152125781602001602082028036833780820191505090505b50905060208260600151901c604060208460400151901c901b608084602001516bffffffffffffffffffffffff16901b60e08560000151901b17171760001b8160008151811061526557615264617246565b5b602002602001018181525050919050565b6000806152838888611ebb565b91505060008160200151600b0b6152a88360000151866152a39190617aec565b612770565b6152b29190616eae565b90506000811461532a578873ffffffffffffffffffffffffffffffffffffffff1663cf97256d89836040518363ffffffff1660e01b81526004016152f7929190617f41565b600060405180830381600087803b15801561531157600080fd5b505af1158015615325573d6000803e3d6000fd5b505050505b61537b876040518060400160405280601681526020017f4346413a20666c6f7772617465206f766572666c6f77000000000000000000008152508460200151600b0b6156fd9092919063ffffffff16565b8260200190600b0b9081600b0b81525050838260000181815250506153b6866153a78460400151612770565b6153b191906179ee565b61517a565b8260400181815250506153df856153d08460600151612770565b6153da91906179ee565b61517a565b8260600181815250508873ffffffffffffffffffffffffffffffffffffffff1663090c415e896000615410866151c7565b6040518463ffffffff1660e01b815260040161542e9392919061854e565b600060405180830381600087803b15801561544857600080fd5b505af115801561545c573d6000803e3d6000fd5b505050508160200151925050509695505050505050565b60008183136154825781615484565b825b905092915050565b600081831361549b578261549d565b815b905092915050565b60603373ffffffffffffffffffffffffffffffffffffffff1663768fabb084846020015185608001518660a0015187600001516040518663ffffffff1660e01b81526004016154f895949392919061858c565b6000604051808303816000875af1158015615517573d6000803e3d6000fd5b505050506040513d6000823e3d601f19601f820116820180604052508101906155409190617cc8565b905092915050565b60006401000000008203615565576330d9c91560e01b90506155dc565b64040000000082036155805763884d1f4060e01b90506155dc565b641000000000820361559b57635f9e7d7760e01b90506155dc565b64020000000082036155b65763d86ed3e560e01b90506155dc565b64080000000082036155d15763230dbd2960e01b90506155dc565b6353c11f9960e01b90505b919050565b60603373ffffffffffffffffffffffffffffffffffffffff1663989b0c3e84846040518363ffffffff1660e01b815260040161561e9291906185e6565b6000604051808303816000875af115801561563d573d6000803e3d6000fd5b505050506040513d6000823e3d601f19601f820116820180604052508101906156669190617cc8565b905092915050565b6000808385039050600084600b0b12158015615690575084600b0b81600b0b13155b806156af5750600084600b0b1280156156ae575084600b0b81600b0b135b5b83906156f1576040517f08c379a00000000000000000000000000000000000000000000000000000000081526004016156e89190618206565b60405180910390fd5b50809150509392505050565b6000808385019050600084600b0b1215801561571f575084600b0b81600b0b12155b8061573e5750600084600b0b12801561573d575084600b0b81600b0b125b5b8390615780576040517f08c379a00000000000000000000000000000000000000000000000000000000081526004016157779190618206565b60405180910390fd5b50809150509392505050565b6040518060800160405280600073ffffffffffffffffffffffffffffffffffffffff168152602001600073ffffffffffffffffffffffffffffffffffffffff168152602001600073ffffffffffffffffffffffffffffffffffffffff1681526020016000600b0b81525090565b6040518060400160405280600060ff1681526020016000600b0b81525090565b6040518060800160405280600081526020016000600b0b815260200160008152602001600081525090565b604051806101600160405280600060ff168152602001600060ff16815260200160008152602001600073ffffffffffffffffffffffffffffffffffffffff16815260200160007bffffffffffffffffffffffffffffffffffffffffffffffffffffffff1916815260200160608152602001600081526020016000815260200160008152602001600073ffffffffffffffffffffffffffffffffffffffff168152602001600073ffffffffffffffffffffffffffffffffffffffff1681525090565b6040518060c0016040528060008019168152602001600073ffffffffffffffffffffffffffffffffffffffff168152602001600073ffffffffffffffffffffffffffffffffffffffff168152602001600073ffffffffffffffffffffffffffffffffffffffff1681526020016000600b0b8152602001606081525090565b60405180606001604052806060815260200161599d615819565b81526020016159aa615844565b81525090565b6040518060e00160405280600073ffffffffffffffffffffffffffffffffffffffff168152602001600073ffffffffffffffffffffffffffffffffffffffff16815260200160008019168152602001606081526020016000815260200160008152602001600081525090565b60405180604001604052806000600b0b81526020016000600b0b81525090565b6000604051905090565b600080fd5b600080fd5b600073ffffffffffffffffffffffffffffffffffffffff82169050919050565b6000615a7b82615a50565b9050919050565b6000615a8d82615a70565b9050919050565b615a9d81615a82565b8114615aa857600080fd5b50565b600081359050615aba81615a94565b92915050565b615ac981615a70565b8114615ad457600080fd5b50565b600081359050615ae681615ac0565b92915050565b600080600060608486031215615b0557615b04615a46565b5b6000615b1386828701615aab565b9350506020615b2486828701615ad7565b9250506040615b3586828701615ad7565b9150509250925092565b6000819050919050565b615b5281615b3f565b82525050565b600060ff82169050919050565b615b6e81615b58565b82525050565b600081600b0b9050919050565b615b8a81615b74565b82525050565b6000606082019050615ba56000830186615b49565b615bb26020830185615b65565b615bbf6040830184615b81565b949350505050565b6000819050919050565b615bda81615bc7565b8114615be557600080fd5b50565b600081359050615bf781615bd1565b92915050565b60008060408385031215615c1457615c13615a46565b5b6000615c2285828601615aab565b9250506020615c3385828601615be8565b9150509250929050565b6000602082019050615c526000830184615b81565b92915050565b600080fd5b600080fd5b600080fd5b60008083601f840112615c7d57615c7c615c58565b5b8235905067ffffffffffffffff811115615c9a57615c99615c5d565b5b602083019150836001820283011115615cb657615cb5615c62565b5b9250929050565b60008060008060608587031215615cd757615cd6615a46565b5b6000615ce587828801615aab565b9450506020615cf687828801615ad7565b935050604085013567ffffffffffffffff811115615d1757615d16615a4b565b5b615d2387828801615c67565b925092505092959194509250565b600081519050919050565b600082825260208201905092915050565b60005b83811015615d6b578082015181840152602081019050615d50565b83811115615d7a576000848401525b50505050565b6000601f19601f8301169050919050565b6000615d9c82615d31565b615da68185615d3c565b9350615db6818560208601615d4d565b615dbf81615d80565b840191505092915050565b60006020820190508181036000830152615de48184615d91565b905092915050565b615df581615b3f565b8114615e0057600080fd5b50565b600081359050615e1281615dec565b92915050565b60008060408385031215615e2f57615e2e615a46565b5b6000615e3d85828601615aab565b9250506020615e4e85828601615e03565b9150509250929050565b6000604082019050615e6d6000830185615b65565b615e7a6020830184615b81565b9392505050565b60008060408385031215615e9857615e97615a46565b5b6000615ea685828601615aab565b9250506020615eb785828601615ad7565b9150509250929050565b615eca81615bc7565b82525050565b6000608082019050615ee56000830187615ec1565b615ef26020830186615b81565b615eff6040830185615ec1565b615f0c6060830184615ec1565b95945050505050565b615f1e81615b74565b8114615f2957600080fd5b50565b600081359050615f3b81615f15565b92915050565b60008060008060008060a08789031215615f5e57615f5d615a46565b5b6000615f6c89828a01615aab565b9650506020615f7d89828a01615ad7565b9550506040615f8e89828a01615ad7565b9450506060615f9f89828a01615f2c565b935050608087013567ffffffffffffffff811115615fc057615fbf615a4b565b5b615fcc89828a01615c67565b92509250509295509295509295565b600060208284031215615ff157615ff0615a46565b5b6000615fff84828501615ad7565b91505092915050565b60008060006060848603121561602157616020615a46565b5b600061602f86828701615aab565b935050602061604086828701615ad7565b925050604061605186828701615be8565b9150509250925092565b60008115159050919050565b6160708161605b565b82525050565b600060208201905061608b6000830184616067565b92915050565b6000806000806000608086880312156160ad576160ac615a46565b5b60006160bb88828901615aab565b95505060206160cc88828901615ad7565b94505060406160dd88828901615ad7565b935050606086013567ffffffffffffffff8111156160fe576160fd615a4b565b5b61610a88828901615c67565b92509250509295509295909350565b600060408201905061612e6000830185616067565b61613b6020830184615ec1565b9392505050565b60008060008060006080868803121561615e5761615d615a46565b5b600061616c88828901615aab565b955050602061617d88828901615ad7565b945050604061618e88828901615f2c565b935050606086013567ffffffffffffffff8111156161af576161ae615a4b565b5b6161bb88828901615c67565b92509250509295509295909350565b6161d381615a70565b82525050565b60006020820190506161ee60008301846161ca565b92915050565b60006020820190506162096000830184615b49565b92915050565b61621881615b58565b811461622357600080fd5b50565b6000813590506162358161620f565b92915050565b60008060008060008060a0878903121561625857616257615a46565b5b600061626689828a01615aab565b965050602061627789828a01615ad7565b955050604061628889828a01616226565b945050606061629989828a01615f2c565b935050608087013567ffffffffffffffff8111156162ba576162b9615a4b565b5b6162c689828a01615c67565b92509250509295509295509295565b600080604083850312156162ec576162eb615a46565b5b60006162fa85828601615aab565b925050602061630b85828601615f2c565b9150509250929050565b600060208201905061632a6000830184615ec1565b92915050565b6000819050919050565b61634381616330565b82525050565b600060608201905061635e600083018661633a565b61636b6020830185615ec1565b6163786040830184615ec1565b949350505050565b600082825260208201905092915050565b7f4346413a206465706f736974206e756d62657220746f6f206269670000000000600082015250565b60006163c7601b83616380565b91506163d282616391565b602082019050919050565b600060208201905081810360008301526163f6816163ba565b9050919050565b7f4e487b7100000000000000000000000000000000000000000000000000000000600052601260045260246000fd5b7f4e487b7100000000000000000000000000000000000000000000000000000000600052601160045260246000fd5b600061646682615bc7565b915061647183615bc7565b925082616481576164806163fd565b5b828204905092915050565b7f4346413a20455f4e4f5f53454e4445525f555044415445000000000000000000600082015250565b60006164c2601783616380565b91506164cd8261648c565b602082019050919050565b600060208201905081810360008301526164f1816164b5565b9050919050565b7f455f4e4f5f4f50455241544f525f5550444154455f464c4f5700000000000000600082015250565b600061652e601983616380565b9150616539826164f8565b602082019050919050565b6000602082019050818103600083015261655d81616521565b9050919050565b600061656f82615b74565b915061657a83615b74565b9250827fffffffffffffffffffffffffffffffffffffffff800000000000000000000000018212600084121516156165b5576165b461642c565b5b826b7fffffffffffffffffffffff0182136000841216156165d9576165d861642c565b5b828203905092915050565b7f4346413a20455f4558434545445f464c4f575f524154455f414c4c4f57414e4360008201527f4500000000000000000000000000000000000000000000000000000000000000602082015250565b6000616640602183616380565b915061664b826165e4565b604082019050919050565b6000602082019050818103600083015261666f81616633565b9050919050565b7f6f6e6c7920686f73742063616e2075706461746520636f646500000000000000600082015250565b60006166ac601983616380565b91506166b782616676565b602082019050919050565b600060208201905081810360008301526166db8161669f565b9050919050565b60006040820190506166f760008301856161ca565b6167046020830184615ec1565b9392505050565b61671481616330565b811461671f57600080fd5b50565b6000815190506167318161670b565b92915050565b60008151905061674681615bd1565b92915050565b60008060006060848603121561676557616764615a46565b5b600061677386828701616722565b935050602061678486828701616737565b925050604061679586828701616737565b9150509250925092565b7f455f4e4f5f4f50455241544f525f44454c4554455f464c4f5700000000000000600082015250565b60006167d5601983616380565b91506167e08261679f565b602082019050919050565b60006020820190508181036000830152616804816167c8565b9050919050565b60008151905061681a81615ac0565b92915050565b60006020828403121561683657616835615a46565b5b60006168448482850161680b565b91505092915050565b60006020828403121561686357616862615a46565b5b600061687184828501616737565b91505092915050565b60008151905061688981615dec565b92915050565b6000602082840312156168a5576168a4615a46565b5b60006168b38482850161687a565b91505092915050565b7f4346413a20556e636c65616e207065726d697373696f6e730000000000000000600082015250565b60006168f2601883616380565b91506168fd826168bc565b602082019050919050565b60006020820190508181036000830152616921816168e5565b9050919050565b7f4346413a20455f4e4f5f53454e4445525f464c4f575f4f50455241544f520000600082015250565b600061695e601e83616380565b915061696982616928565b602082019050919050565b6000602082019050818103600083015261698d81616951565b9050919050565b7f4346413a20455f4e4f5f4e454741544956455f414c4c4f57414e434500000000600082015250565b60006169ca601c83616380565b91506169d582616994565b602082019050919050565b600060208201905081810360008301526169f9816169bd565b9050919050565b600081519050919050565b600082825260208201905092915050565b6000819050602082019050919050565b616a3581615b3f565b82525050565b6000616a478383616a2c565b60208301905092915050565b6000602082019050919050565b6000616a6b82616a00565b616a758185616a0b565b9350616a8083616a1c565b8060005b83811015616ab1578151616a988882616a3b565b9750616aa383616a53565b925050600181019050616a84565b5085935050505092915050565b6000604082019050616ad36000830185615b49565b8181036020830152616ae58184616a60565b90509392505050565b7f4346413a206e6f7420666f72206e6567617469766520666c6f77207261746500600082015250565b6000616b24601f83616380565b9150616b2f82616aee565b602082019050919050565b60006020820190508181036000830152616b5381616b17565b9050919050565b6000616b6582615a70565b9050919050565b616b7581616b5a565b8114616b8057600080fd5b50565b600081519050616b9281616b6c565b92915050565b600060208284031215616bae57616bad615a46565b5b6000616bbc84828501616b83565b91505092915050565b6000819050919050565b6000616bea616be5616be084615a50565b616bc5565b615a50565b9050919050565b6000616bfc82616bcf565b9050919050565b6000616c0e82616bf1565b9050919050565b616c1e81616c03565b82525050565b6000616c2f82616bf1565b9050919050565b616c3f81616c24565b82525050565b6000606082019050616c5a6000830186616c15565b616c676020830185616c36565b616c746040830184615b49565b949350505050565b6000616c8782615bc7565b9150616c9283615bc7565b9250817fffffffffffffffffffffffffffffffffffffffffffffffffffffffffffffffff0483118215151615616ccb57616cca61642c565b5b828202905092915050565b7f4346413a20666c6f77207261746520746f6f2062696700000000000000000000600082015250565b6000616d0c601683616380565b9150616d1782616cd6565b602082019050919050565b60006020820190508181036000830152616d3b81616cff565b9050919050565b7f4346413a20455f4e4f5f53454e4445525f435245415445000000000000000000600082015250565b6000616d78601783616380565b9150616d8382616d42565b602082019050919050565b60006020820190508181036000830152616da781616d6b565b9050919050565b7f4346413a20455f4e4f5f4f50455241544f525f4352454154455f464c4f570000600082015250565b6000616de4601e83616380565b9150616def82616dae565b602082019050919050565b60006020820190508181036000830152616e1381616dd7565b9050919050565b6000616e2582616330565b9150616e3083616330565b9250827f800000000000000000000000000000000000000000000000000000000000000001821260008412151615616e6b57616e6a61642c565b5b827f7fffffffffffffffffffffffffffffffffffffffffffffffffffffffffffffff018213600084121615616ea357616ea261642c565b5b828203905092915050565b6000616eb982616330565b9150616ec483616330565b9250827f7fffffffffffffffffffffffffffffffffffffffffffffffffffffffffffffff0482116000841360008413161615616f0357616f0261642c565b5b817f80000000000000000000000000000000000000000000000000000000000000000583126000841260008413161615616f4057616f3f61642c565b5b827f80000000000000000000000000000000000000000000000000000000000000000582126000841360008412161615616f7d57616f7c61642c565b5b827f7fffffffffffffffffffffffffffffffffffffffffffffffffffffffffffffff0582126000841260008412161615616fba57616fb961642c565b5b828202905092915050565b7f666c6f774f70657261746f720000000000000000000000000000000000000000600082015250565b6000616ffb600c83616380565b915061700682616fc5565b602082019050919050565b6000606082019050818103600083015261702a81616fee565b905061703960208301856161ca565b61704660408301846161ca565b9392505050565b6000819050919050565b600061707261706d6170688461704d565b616bc5565b615bc7565b9050919050565b61708281617057565b82525050565b600060608201905061709d60008301866161ca565b6170aa6020830185615b49565b6170b76040830184617079565b949350505050565b7f4e487b7100000000000000000000000000000000000000000000000000000000600052604160045260246000fd5b6170f782615d80565b810181811067ffffffffffffffff82111715617116576171156170bf565b5b80604052505050565b6000617129615a3c565b905061713582826170ee565b919050565b600067ffffffffffffffff821115617155576171546170bf565b5b602082029050602081019050919050565b60006171796171748461713a565b61711f565b9050808382526020820190506020840283018581111561719c5761719b615c62565b5b835b818110156171c557806171b1888261687a565b84526020840193505060208101905061719e565b5050509392505050565b600082601f8301126171e4576171e3615c58565b5b81516171f4848260208601617166565b91505092915050565b60006020828403121561721357617212615a46565b5b600082015167ffffffffffffffff81111561723157617230615a4b565b5b61723d848285016171cf565b91505092915050565b7f4e487b7100000000000000000000000000000000000000000000000000000000600052603260045260246000fd5b6000819050919050565b600061729a61729561729084617275565b616bc5565b615bc7565b9050919050565b6172aa8161727f565b82525050565b60006080820190506172c560008301876161ca565b6172d260208301866161ca565b6172df60408301856172a1565b6172ec6060830184617079565b95945050505050565b7f756e617574686f72697a656420686f7374000000000000000000000000000000600082015250565b600061732b601183616380565b9150617336826172f5565b602082019050919050565b6000602082019050818103600083015261735a8161731e565b9050919050565b61736a8161605b565b811461737557600080fd5b50565b60008151905061738781617361565b92915050565b6000602082840312156173a3576173a2615a46565b5b60006173b184828501617378565b91505092915050565b7f696e76616c696420637478000000000000000000000000000000000000000000600082015250565b60006173f0600b83616380565b91506173fb826173ba565b602082019050919050565b6000602082019050818103600083015261741f816173e3565b9050919050565b600080fd5b600080fd5b60008151905061743f8161620f565b92915050565b60007fffffffff0000000000000000000000000000000000000000000000000000000082169050919050565b61747a81617445565b811461748557600080fd5b50565b60008151905061749781617471565b92915050565b600080fd5b600067ffffffffffffffff8211156174bd576174bc6170bf565b5b6174c682615d80565b9050602081019050919050565b60006174e66174e1846174a2565b61711f565b9050828152602081018484840111156175025761750161749d565b5b61750d848285615d4d565b509392505050565b600082601f83011261752a57617529615c58565b5b815161753a8482602086016174d3565b91505092915050565b60008151905061755281615a94565b92915050565b6000610160828403121561756f5761756e617426565b5b61757a61016061711f565b9050600061758a84828501617430565b600083015250602061759e84828501617430565b60208301525060406175b284828501616737565b60408301525060606175c68482850161680b565b60608301525060806175da84828501617488565b60808301525060a082015167ffffffffffffffff8111156175fe576175fd61742b565b5b61760a84828501617515565b60a08301525060c061761e84828501616737565b60c08301525060e061763284828501616737565b60e08301525061010061764784828501616722565b6101008301525061012061765d8482850161680b565b6101208301525061014061767384828501617543565b6101408301525092915050565b60006020828403121561769657617695615a46565b5b600082015167ffffffffffffffff8111156176b4576176b3615a4b565b5b6176c084828501617558565b91505092915050565b60006040820190506176de60008301856161ca565b6176eb60208301846161ca565b9392505050565b7f4e487b7100000000000000000000000000000000000000000000000000000000600052602160045260246000fd5b7f4346413a20666c6f7720646f6573206e6f742065786973740000000000000000600082015250565b6000617757601883616380565b915061776282617721565b602082019050919050565b600060208201905081810360008301526177868161774a565b9050919050565b600061779882616bf1565b9050919050565b6177a88161778d565b82525050565b60006020820190506177c3600083018461779f565b92915050565b7f5555505350726f786961626c653a206e6f742075706772616461626c65000000600082015250565b60006177ff601d83616380565b915061780a826177c9565b602082019050919050565b6000602082019050818103600083015261782e816177f2565b9050919050565b7f5555505350726f786961626c653a206e6f7420636f6d70617469626c65206c6f60008201527f6769630000000000000000000000000000000000000000000000000000000000602082015250565b6000617891602383616380565b915061789c82617835565b604082019050919050565b600060208201905081810360008301526178c081617884565b9050919050565b7f5555505350726f786961626c653a2070726f7879206c6f6f7000000000000000600082015250565b60006178fd601983616380565b9150617908826178c7565b602082019050919050565b6000602082019050818103600083015261792c816178f0565b9050919050565b60006040820190506179486000830185615b49565b61795560208301846161ca565b9392505050565b7f53616665436173743a2076616c756520646f65736e27742066697420696e206160008201527f6e20696e74323536000000000000000000000000000000000000000000000000602082015250565b60006179b8602883616380565b91506179c38261795c565b604082019050919050565b600060208201905081810360008301526179e7816179ab565b9050919050565b60006179f982616330565b9150617a0483616330565b9250817f7fffffffffffffffffffffffffffffffffffffffffffffffffffffffffffffff03831360008312151615617a3f57617a3e61642c565b5b817f8000000000000000000000000000000000000000000000000000000000000000038312600083121615617a7757617a7661642c565b5b828201905092915050565b6000617a8d82616330565b9150617a9883616330565b925082617aa857617aa76163fd565b5b600160000383147f800000000000000000000000000000000000000000000000000000000000000083141615617ae157617ae061642c565b5b828205905092915050565b6000617af782615bc7565b9150617b0283615bc7565b925082821015617b1557617b1461642c565b5b828203905092915050565b7f4346413a2073656e646572206973207a65726f00000000000000000000000000600082015250565b6000617b56601383616380565b9150617b6182617b20565b602082019050919050565b60006020820190508181036000830152617b8581617b49565b9050919050565b7f4346413a207265636569766572206973207a65726f0000000000000000000000600082015250565b6000617bc2601583616380565b9150617bcd82617b8c565b602082019050919050565b60006020820190508181036000830152617bf181617bb5565b9050919050565b7f4346413a2073656e646572206163636f756e74206973206e6f7420637269746960008201527f63616c0000000000000000000000000000000000000000000000000000000000602082015250565b6000617c54602383616380565b9150617c5f82617bf8565b604082019050919050565b60006020820190508181036000830152617c8381617c47565b9050919050565b60006060820190508181036000830152617ca48186615d91565b9050617cb3602083018561779f565b617cc06040830184615ec1565b949350505050565b600060208284031215617cde57617cdd615a46565b5b600082015167ffffffffffffffff811115617cfc57617cfb615a4b565b5b617d0884828501617515565b91505092915050565b7f4346413a20666c6f7720616c7265616479206578697374000000000000000000600082015250565b6000617d47601783616380565b9150617d5282617d11565b602082019050919050565b60006020820190508181036000830152617d7681617d3a565b9050919050565b7f4e487b7100000000000000000000000000000000000000000000000000000000600052600160045260246000fd5b7f4346413a206e6f2073656c6620666c6f77000000000000000000000000000000600082015250565b6000617de2601183616380565b9150617ded82617dac565b602082019050919050565b60006020820190508181036000830152617e1181617dd5565b9050919050565b7f4346413a20696e76616c696420666c6f77207261746500000000000000000000600082015250565b6000617e4e601683616380565b9150617e5982617e18565b602082019050919050565b60006020820190508181036000830152617e7d81617e41565b9050919050565b6000617e8f82615b58565b9150617e9a83615b58565b92508260ff03821115617eb057617eaf61642c565b5b828201905092915050565b60006060820190508181036000830152617ed58186615d91565b9050617ee46020830185615ec1565b617ef1604083018461633a565b949350505050565b6000617f0482616330565b91507f80000000000000000000000000000000000000000000000000000000000000008203617f3657617f3561642c565b5b816000039050919050565b6000604082019050617f5660008301856161ca565b617f63602083018461633a565b9392505050565b7f4346413a204150505f52554c455f4e4f5f435249544943414c5f52454345495660008201527f45525f4143434f554e5400000000000000000000000000000000000000000000602082015250565b6000617fc6602a83616380565b9150617fd182617f6a565b604082019050919050565b60006020820190508181036000830152617ff581617fb9565b9050919050565b7f4346413a206e6f7420656e6f75676820617661696c61626c652062616c616e6360008201527f6500000000000000000000000000000000000000000000000000000000000000602082015250565b6000618058602183616380565b915061806382617ffc565b604082019050919050565b600060208201905081810360008301526180878161804b565b9050919050565b60006180a96180a461809f8461704d565b616bc5565b615b58565b9050919050565b6180b98161808e565b82525050565b60006040820190506180d460008301856180b0565b6180e16020830184615b65565b9392505050565b600060e0820190506180fd600083018a615b49565b818103602083015261810f8189615d91565b905061811e60408301886161ca565b61812b6060830187616067565b61813860808301866161ca565b61814560a0830185615ec1565b61815260c083018461633a565b98975050505050505050565b6000819050919050565b600061818361817e6181798461815e565b616bc5565b615b58565b9050919050565b61819381618168565b82525050565b60006040820190506181ae60008301856180b0565b6181bb602083018461818a565b9392505050565b600081519050919050565b60006181d8826181c2565b6181e28185616380565b93506181f2818560208601615d4d565b6181fb81615d80565b840191505092915050565b6000602082019050818103600083015261822081846181cd565b905092915050565b600061823382615b74565b915061823e83615b74565b92508261824e5761824d6163fd565b5b600160000383147fffffffffffffffffffffffffffffffffffffffff800000000000000000000000831416156182875761828661642c565b5b828205905092915050565b600061829d82615bc7565b91506182a883615bc7565b9250827fffffffffffffffffffffffffffffffffffffffffffffffffffffffffffffffff038211156182dd576182dc61642c565b5b828201905092915050565b60008060006060848603121561830157618300615a46565b5b600061830f86828701617378565b935050602061832086828701617378565b925050604061833186828701616737565b9150509250925092565b600060a0820190506183506000830188616c36565b61835d60208301876161ca565b61836a6040830186615b49565b818103606083015261837c8185615d91565b905081810360808301526183908184615d91565b90509695505050505050565b60006080820190506183b1600083018761779f565b81810360208301526183c38186615d91565b90506183d26040830185616067565b81810360608301526183e48184615d91565b905095945050505050565b600061840a61840561840084615b74565b616bc5565b616330565b9050919050565b61841a816183ef565b82525050565b60006080820190506184356000830187615b81565b6184426020830186618411565b61844f6040830185618411565b81810360608301526184618184615d91565b905095945050505050565b600060c0820190506184816000830189616c36565b61848e60208301886161ca565b61849b6040830187615b49565b81810360608301526184ad8186615d91565b905081810360808301526184c18185615d91565b905081810360a08301526184d58184615d91565b9050979650505050505050565b7f53616665436173743a2076616c7565206d75737420626520706f736974697665600082015250565b6000618518602083616380565b9150618523826184e2565b602082019050919050565b600060208201905081810360008301526185478161850b565b9050919050565b600060608201905061856360008301866161ca565b61857060208301856172a1565b81810360408301526185828184616a60565b9050949350505050565b600060a08201905081810360008301526185a68188615d91565b90506185b5602083018761779f565b6185c26040830186615ec1565b6185cf606083018561633a565b6185dc6080830184616c36565b9695505050505050565b600060408201905081810360008301526186008185615d91565b905061860f602083018461633a565b939250505056fea2646970667358221220cac064343a6ba20309af52ffa942019f9bd102f8a4dc611bf2f796bc769c3f3c64736f6c634300080d0033",
  "linkReferences": {},
  "deployedLinkReferences": {}
}