{
  "_format": "hh-sol-artifact-1",
  "contractName": "LendingPool",
  "sourceName": "contracts/LendingPool.sol",
  "abi": [
    {
      "inputs": [],
      "stateMutability": "nonpayable",
      "type": "constructor"
    },
    {
      "anonymous": false,
      "inputs": [
        {
          "indexed": false,
          "internalType": "address",
          "name": "previousAdmin",
          "type": "address"
        },
        {
          "indexed": false,
          "internalType": "address",
          "name": "newAdmin",
          "type": "address"
        }
      ],
      "name": "AdminChanged",
      "type": "event"
    },
    {
      "anonymous": false,
      "inputs": [
        {
          "indexed": true,
          "internalType": "address",
          "name": "beacon",
          "type": "address"
        }
      ],
      "name": "BeaconUpgraded",
      "type": "event"
    },
    {
      "anonymous": false,
      "inputs": [
        {
          "indexed": true,
          "internalType": "address",
          "name": "depositor",
          "type": "address"
        },
        {
          "indexed": false,
          "internalType": "uint256",
          "name": "amount",
          "type": "uint256"
        }
      ],
      "name": "Deposit",
      "type": "event"
    },
    {
      "anonymous": false,
      "inputs": [
        {
          "indexed": true,
          "internalType": "address",
          "name": "depositor",
          "type": "address"
        },
        {
          "indexed": false,
          "internalType": "int96",
          "name": "flowRate",
          "type": "int96"
        }
      ],
      "name": "DepositSuperfluid",
      "type": "event"
    },
    {
      "anonymous": false,
      "inputs": [
        {
          "indexed": false,
          "internalType": "uint8",
          "name": "version",
          "type": "uint8"
        }
      ],
      "name": "Initialized",
      "type": "event"
    },
    {
      "anonymous": false,
      "inputs": [
        {
          "indexed": true,
          "internalType": "bytes32",
          "name": "role",
          "type": "bytes32"
        },
        {
          "indexed": true,
          "internalType": "bytes32",
          "name": "previousAdminRole",
          "type": "bytes32"
        },
        {
          "indexed": true,
          "internalType": "bytes32",
          "name": "newAdminRole",
          "type": "bytes32"
        }
      ],
      "name": "RoleAdminChanged",
      "type": "event"
    },
    {
      "anonymous": false,
      "inputs": [
        {
          "indexed": true,
          "internalType": "bytes32",
          "name": "role",
          "type": "bytes32"
        },
        {
          "indexed": true,
          "internalType": "address",
          "name": "account",
          "type": "address"
        },
        {
          "indexed": true,
          "internalType": "address",
          "name": "sender",
          "type": "address"
        }
      ],
      "name": "RoleGranted",
      "type": "event"
    },
    {
      "anonymous": false,
      "inputs": [
        {
          "indexed": true,
          "internalType": "bytes32",
          "name": "role",
          "type": "bytes32"
        },
        {
          "indexed": true,
          "internalType": "address",
          "name": "account",
          "type": "address"
        },
        {
          "indexed": true,
          "internalType": "address",
          "name": "sender",
          "type": "address"
        }
      ],
      "name": "RoleRevoked",
      "type": "event"
    },
    {
      "anonymous": false,
      "inputs": [
        {
          "indexed": true,
          "internalType": "address",
          "name": "implementation",
          "type": "address"
        }
      ],
      "name": "Upgraded",
      "type": "event"
    },
    {
      "anonymous": false,
      "inputs": [
        {
          "indexed": true,
          "internalType": "address",
          "name": "withdrawer",
          "type": "address"
        },
        {
          "indexed": false,
          "internalType": "uint256",
          "name": "amount",
          "type": "uint256"
        }
      ],
      "name": "Withdraw",
      "type": "event"
    },
    {
      "inputs": [],
      "name": "DEFAULT_ADMIN_ROLE",
      "outputs": [
        {
          "internalType": "bytes32",
          "name": "",
          "type": "bytes32"
        }
      ],
      "stateMutability": "view",
      "type": "function"
    },
    {
      "inputs": [
        {
          "internalType": "contract ISuperToken",
          "name": "_superToken",
          "type": "address"
        },
        {
          "internalType": "address",
          "name": "_agreementClass",
          "type": "address"
        },
        {
          "internalType": "bytes32",
          "name": "",
          "type": "bytes32"
        },
        {
          "internalType": "bytes",
          "name": "",
          "type": "bytes"
        },
        {
          "internalType": "bytes",
          "name": "cbdata",
          "type": "bytes"
        },
        {
          "internalType": "bytes",
          "name": "ctx",
          "type": "bytes"
        }
      ],
      "name": "afterAgreementCreated",
      "outputs": [
        {
          "internalType": "bytes",
          "name": "newCtx",
          "type": "bytes"
        }
      ],
      "stateMutability": "nonpayable",
      "type": "function"
    },
    {
      "inputs": [
        {
          "internalType": "contract ISuperToken",
          "name": "_superToken",
          "type": "address"
        },
        {
          "internalType": "address",
          "name": "_agreementClass",
          "type": "address"
        },
        {
          "internalType": "bytes32",
          "name": "_agreementId",
          "type": "bytes32"
        },
        {
          "internalType": "bytes",
          "name": "_agreementData",
          "type": "bytes"
        },
        {
          "internalType": "bytes",
          "name": "cbdata",
          "type": "bytes"
        },
        {
          "internalType": "bytes",
          "name": "ctx",
          "type": "bytes"
        }
      ],
      "name": "afterAgreementTerminated",
      "outputs": [
        {
          "internalType": "bytes",
          "name": "newCtx",
          "type": "bytes"
        }
      ],
      "stateMutability": "nonpayable",
      "type": "function"
    },
    {
      "inputs": [
        {
          "internalType": "contract ISuperToken",
          "name": "_superToken",
          "type": "address"
        },
        {
          "internalType": "address",
          "name": "_agreementClass",
          "type": "address"
        },
        {
          "internalType": "bytes32",
          "name": "_agreementId",
          "type": "bytes32"
        },
        {
          "internalType": "bytes",
          "name": "_agreementData",
          "type": "bytes"
        },
        {
          "internalType": "bytes",
          "name": "cbdata",
          "type": "bytes"
        },
        {
          "internalType": "bytes",
          "name": "ctx",
          "type": "bytes"
        }
      ],
      "name": "afterAgreementUpdated",
      "outputs": [
        {
          "internalType": "bytes",
          "name": "newCtx",
          "type": "bytes"
        }
      ],
      "stateMutability": "nonpayable",
      "type": "function"
    },
    {
      "inputs": [
        {
          "internalType": "contract ISuperToken",
          "name": "",
          "type": "address"
        },
        {
          "internalType": "address",
          "name": "",
          "type": "address"
        },
        {
          "internalType": "bytes32",
          "name": "",
          "type": "bytes32"
        },
        {
          "internalType": "bytes",
          "name": "",
          "type": "bytes"
        },
        {
          "internalType": "bytes",
          "name": "",
          "type": "bytes"
        }
      ],
      "name": "beforeAgreementCreated",
      "outputs": [
        {
          "internalType": "bytes",
          "name": "",
          "type": "bytes"
        }
      ],
      "stateMutability": "view",
      "type": "function"
    },
    {
      "inputs": [
        {
          "internalType": "contract ISuperToken",
          "name": "",
          "type": "address"
        },
        {
          "internalType": "address",
          "name": "",
          "type": "address"
        },
        {
          "internalType": "bytes32",
          "name": "",
          "type": "bytes32"
        },
        {
          "internalType": "bytes",
          "name": "",
          "type": "bytes"
        },
        {
          "internalType": "bytes",
          "name": "",
          "type": "bytes"
        }
      ],
      "name": "beforeAgreementTerminated",
      "outputs": [
        {
          "internalType": "bytes",
          "name": "",
          "type": "bytes"
        }
      ],
      "stateMutability": "view",
      "type": "function"
    },
    {
      "inputs": [
        {
          "internalType": "contract ISuperToken",
          "name": "",
          "type": "address"
        },
        {
          "internalType": "address",
          "name": "",
          "type": "address"
        },
        {
          "internalType": "bytes32",
          "name": "",
          "type": "bytes32"
        },
        {
          "internalType": "bytes",
          "name": "",
          "type": "bytes"
        },
        {
          "internalType": "bytes",
          "name": "",
          "type": "bytes"
        }
      ],
      "name": "beforeAgreementUpdated",
      "outputs": [
        {
          "internalType": "bytes",
          "name": "",
          "type": "bytes"
        }
      ],
      "stateMutability": "view",
      "type": "function"
    },
    {
      "inputs": [],
      "name": "cfa",
      "outputs": [
        {
          "internalType": "contract IConstantFlowAgreementV1",
          "name": "",
          "type": "address"
        }
      ],
      "stateMutability": "view",
      "type": "function"
    },
    {
      "inputs": [],
      "name": "cfaV1",
      "outputs": [
        {
          "internalType": "contract ISuperfluid",
          "name": "host",
          "type": "address"
        },
        {
          "internalType": "contract IConstantFlowAgreementV1",
          "name": "cfa",
          "type": "address"
        }
      ],
      "stateMutability": "view",
      "type": "function"
    },
    {
      "inputs": [
        {
          "internalType": "uint256",
          "name": "amount",
          "type": "uint256"
        }
      ],
      "name": "deposit",
      "outputs": [],
      "stateMutability": "nonpayable",
      "type": "function"
    },
    {
      "inputs": [
        {
          "internalType": "bytes32",
          "name": "role",
          "type": "bytes32"
        }
      ],
      "name": "getRoleAdmin",
      "outputs": [
        {
          "internalType": "bytes32",
          "name": "",
          "type": "bytes32"
        }
      ],
      "stateMutability": "view",
      "type": "function"
    },
    {
      "inputs": [
        {
          "internalType": "bytes32",
          "name": "role",
          "type": "bytes32"
        },
        {
          "internalType": "address",
          "name": "account",
          "type": "address"
        }
      ],
      "name": "grantRole",
      "outputs": [],
      "stateMutability": "nonpayable",
      "type": "function"
    },
    {
      "inputs": [
        {
          "internalType": "bytes32",
          "name": "role",
          "type": "bytes32"
        },
        {
          "internalType": "address",
          "name": "account",
          "type": "address"
        }
      ],
      "name": "hasRole",
      "outputs": [
        {
          "internalType": "bool",
          "name": "",
          "type": "bool"
        }
      ],
      "stateMutability": "view",
      "type": "function"
    },
    {
      "inputs": [],
      "name": "host",
      "outputs": [
        {
          "internalType": "contract ISuperfluid",
          "name": "",
          "type": "address"
        }
      ],
      "stateMutability": "view",
      "type": "function"
    },
    {
      "inputs": [
        {
          "internalType": "contract ISuperToken",
          "name": "_token",
          "type": "address"
        },
        {
          "internalType": "contract ILoanManager",
          "name": "_loanManager",
          "type": "address"
        },
        {
          "internalType": "contract ISuperfluid",
          "name": "_host",
          "type": "address"
        }
      ],
      "name": "initialize",
      "outputs": [],
      "stateMutability": "nonpayable",
      "type": "function"
    },
    {
      "inputs": [],
      "name": "loanManager",
      "outputs": [
        {
          "internalType": "contract ILoanManager",
          "name": "",
          "type": "address"
        }
      ],
      "stateMutability": "view",
      "type": "function"
    },
    {
      "inputs": [],
      "name": "proxiableUUID",
      "outputs": [
        {
          "internalType": "bytes32",
          "name": "",
          "type": "bytes32"
        }
      ],
      "stateMutability": "view",
      "type": "function"
    },
    {
      "inputs": [
        {
          "internalType": "bytes32",
          "name": "role",
          "type": "bytes32"
        },
        {
          "internalType": "address",
          "name": "account",
          "type": "address"
        }
      ],
      "name": "renounceRole",
      "outputs": [],
      "stateMutability": "nonpayable",
      "type": "function"
    },
    {
      "inputs": [
        {
          "internalType": "bytes32",
          "name": "role",
          "type": "bytes32"
        },
        {
          "internalType": "address",
          "name": "account",
          "type": "address"
        }
      ],
      "name": "revokeRole",
      "outputs": [],
      "stateMutability": "nonpayable",
      "type": "function"
    },
    {
      "inputs": [
        {
          "internalType": "bytes4",
          "name": "interfaceId",
          "type": "bytes4"
        }
      ],
      "name": "supportsInterface",
      "outputs": [
        {
          "internalType": "bool",
          "name": "",
          "type": "bool"
        }
      ],
      "stateMutability": "view",
      "type": "function"
    },
    {
      "inputs": [],
      "name": "token",
      "outputs": [
        {
          "internalType": "contract ISuperToken",
          "name": "",
          "type": "address"
        }
      ],
      "stateMutability": "view",
      "type": "function"
    },
    {
      "inputs": [
        {
          "internalType": "uint256",
          "name": "loanId",
          "type": "uint256"
        },
        {
          "internalType": "int96",
          "name": "minimumFlowRate",
          "type": "int96"
        }
      ],
      "name": "updateLoanAllowance",
      "outputs": [],
      "stateMutability": "nonpayable",
      "type": "function"
    },
    {
      "inputs": [
        {
          "internalType": "address",
          "name": "newImplementation",
          "type": "address"
        }
      ],
      "name": "upgradeTo",
      "outputs": [],
      "stateMutability": "nonpayable",
      "type": "function"
    },
    {
      "inputs": [
        {
          "internalType": "address",
          "name": "newImplementation",
          "type": "address"
        },
        {
          "internalType": "bytes",
          "name": "data",
          "type": "bytes"
        }
      ],
      "name": "upgradeToAndCall",
      "outputs": [],
      "stateMutability": "payable",
      "type": "function"
    },
    {
      "inputs": [],
      "name": "value",
      "outputs": [
        {
          "internalType": "uint256",
          "name": "",
          "type": "uint256"
        }
      ],
      "stateMutability": "view",
      "type": "function"
    },
    {
      "inputs": [
        {
          "internalType": "uint256",
          "name": "amount",
          "type": "uint256"
        }
      ],
      "name": "withdraw",
      "outputs": [],
      "stateMutability": "nonpayable",
      "type": "function"
    }
  ],
  "bytecode": "0x60a06040523073ffffffffffffffffffffffffffffffffffffffff1660809073ffffffffffffffffffffffffffffffffffffffff1681525034801561004357600080fd5b50608051614af961007b60003960008181610d7201528181610e0001528181610f9d0152818161102b01526110db0152614af96000f3fe6080604052600436106101815760003560e01c806353c11f99116100d1578063b6b55f251161008a578063d547741f11610064578063d547741f146105ac578063d86ed3e5146105d5578063f437bc5914610612578063fc0c546a1461063d57610181565b8063b6b55f251461052e578063c0c53b8b14610557578063d3112b2e1461058057610181565b806353c11f99146103e45780635f9e7d7714610421578063884d1f401461045e57806391d148541461049b578063a217fddf146104d8578063b3ccbcfe1461050357610181565b80632f2ff15d1161013e5780633659cfe6116101185780633659cfe6146103495780633fa4f245146103725780634f1ef2861461039d57806352d1902d146103b957610181565b80632f2ff15d146102ba57806330d9c915146102e357806336568abe1461032057610181565b806301ffc9a7146101865780630519f03a146101c35780631054df8c146101ec578063230dbd2914610217578063248a9ca3146102545780632e1a7d4d14610291575b600080fd5b34801561019257600080fd5b506101ad60048036038101906101a89190612d69565b610668565b6040516101ba9190612db1565b60405180910390f35b3480156101cf57600080fd5b506101ea60048036038101906101e59190612e3b565b6106e2565b005b3480156101f857600080fd5b50610201610783565b60405161020e9190612efa565b60405180910390f35b34801561022357600080fd5b5061023e6004803603810190610239919061302c565b6107a9565b60405161024b91906131b4565b60405180910390f35b34801561026057600080fd5b5061027b600480360381019061027691906131d6565b610b15565b6040516102889190613212565b60405180910390f35b34801561029d57600080fd5b506102b860048036038101906102b3919061322d565b610b35565b005b3480156102c657600080fd5b506102e160048036038101906102dc919061325a565b610c8f565b005b3480156102ef57600080fd5b5061030a6004803603810190610305919061329a565b610cb0565b60405161031791906131b4565b60405180910390f35b34801561032c57600080fd5b506103476004803603810190610342919061325a565b610ced565b005b34801561035557600080fd5b50610370600480360381019061036b9190613356565b610d70565b005b34801561037e57600080fd5b50610387610ef8565b6040516103949190613392565b60405180910390f35b6103b760048036038101906103b291906134dd565b610f9b565b005b3480156103c557600080fd5b506103ce6110d7565b6040516103db9190613212565b60405180910390f35b3480156103f057600080fd5b5061040b6004803603810190610406919061302c565b611190565b60405161041891906131b4565b60405180910390f35b34801561042d57600080fd5b506104486004803603810190610443919061329a565b6114fa565b60405161045591906131b4565b60405180910390f35b34801561046a57600080fd5b506104856004803603810190610480919061329a565b611537565b60405161049291906131b4565b60405180910390f35b3480156104a757600080fd5b506104c260048036038101906104bd919061325a565b611574565b6040516104cf9190612db1565b60405180910390f35b3480156104e457600080fd5b506104ed6115df565b6040516104fa9190613212565b60405180910390f35b34801561050f57600080fd5b506105186115e6565b604051610525919061355a565b60405180910390f35b34801561053a57600080fd5b506105556004803603810190610550919061322d565b61160c565b005b34801561056357600080fd5b5061057e600480360381019061057991906135f1565b61170a565b005b34801561058c57600080fd5b50610595611b04565b6040516105a3929190613665565b60405180910390f35b3480156105b857600080fd5b506105d360048036038101906105ce919061325a565b611b56565b005b3480156105e157600080fd5b506105fc60048036038101906105f7919061302c565b611b77565b60405161060991906131b4565b60405180910390f35b34801561061e57600080fd5b50610627611de4565b604051610634919061368e565b60405180910390f35b34801561064957600080fd5b50610652611e0a565b60405161065f91906136ca565b60405180910390f35b60007f7965db0b000000000000000000000000000000000000000000000000000000007bffffffffffffffffffffffffffffffffffffffffffffffffffffffff1916827bffffffffffffffffffffffffffffffffffffffffffffffffffffffff191614806106db57506106da82611e30565b5b9050919050565b6000801b6106ef81611e9a565b609c60009054906101000a900473ffffffffffffffffffffffffffffffffffffffff1673ffffffffffffffffffffffffffffffffffffffff16630519f03a84846040518363ffffffff1660e01b815260040161074c9291906136f4565b600060405180830381600087803b15801561076657600080fd5b505af115801561077a573d6000803e3d6000fd5b50505050505050565b609a60009054906101000a900473ffffffffffffffffffffffffffffffffffffffff1681565b60606000609960009054906101000a900473ffffffffffffffffffffffffffffffffffffffff1673ffffffffffffffffffffffffffffffffffffffff16633f6c923a85856040518363ffffffff1660e01b815260040161080a92919061374a565b600060405180830381865afa158015610827573d6000803e3d6000fd5b505050506040513d6000823e3d601f19601f8201168201806040525081019061085091906139fc565b90506000609960009054906101000a900473ffffffffffffffffffffffffffffffffffffffff1673ffffffffffffffffffffffffffffffffffffffff16633f6c923a86866040518363ffffffff1660e01b81526004016108b192919061374a565b600060405180830381865afa1580156108ce573d6000803e3d6000fd5b505050506040513d6000823e3d601f19601f820116820180604052508101906108f791906139fc565b60600151905061090a6000801b82611574565b610949576040517f08c379a000000000000000000000000000000000000000000000000000000000815260040161094090613aa2565b60405180910390fd5b6000609a60009054906101000a900473ffffffffffffffffffffffffffffffffffffffff1673ffffffffffffffffffffffffffffffffffffffff1663e6a1e888609b60009054906101000a900473ffffffffffffffffffffffffffffffffffffffff1684306040518463ffffffff1660e01b81526004016109cc93929190613ad1565b608060405180830381865afa1580156109e9573d6000803e3d6000fd5b505050506040513d601f19601f82011682018060405250810190610a0d9190613b1d565b505091505085858080601f016020809104026020016040519081016040528093929190818152602001838380828437600081840152601f19601f82011690508083019250505050505050935060008360a00151806020019051810190610a739190613b84565b9050609c60009054906101000a900473ffffffffffffffffffffffffffffffffffffffff1673ffffffffffffffffffffffffffffffffffffffff166396d01b9782846040518363ffffffff1660e01b8152600401610ad29291906136f4565b600060405180830381600087803b158015610aec57600080fd5b505af1158015610b00573d6000803e3d6000fd5b50505050505050509998505050505050505050565b600060656000838152602001908152602001600020600101549050919050565b6000801b610b4281611e9a565b6000610b4c611eae565b90506000609b60009054906101000a900473ffffffffffffffffffffffffffffffffffffffff1673ffffffffffffffffffffffffffffffffffffffff166370a08231306040518263ffffffff1660e01b8152600401610bab9190613bb1565b602060405180830381865afa158015610bc8573d6000803e3d6000fd5b505050506040513d601f19601f82011682018060405250810190610bec9190613b84565b9050610c3b8285609b60009054906101000a900473ffffffffffffffffffffffffffffffffffffffff1673ffffffffffffffffffffffffffffffffffffffff16611eb69092919063ffffffff16565b8173ffffffffffffffffffffffffffffffffffffffff167f884edad9ce6fa2440d8a54cc123490eb96d2768479d49ff9c7366125a942436485604051610c819190613392565b60405180910390a250505050565b610c9882610b15565b610ca181611e9a565b610cab8383611f3c565b505050565b60606040517f08c379a0000000000000000000000000000000000000000000000000000000008152600401610ce490613c3e565b60405180910390fd5b610cf5611eae565b73ffffffffffffffffffffffffffffffffffffffff168173ffffffffffffffffffffffffffffffffffffffff1614610d62576040517f08c379a0000000000000000000000000000000000000000000000000000000008152600401610d5990613cd0565b60405180910390fd5b610d6c828261201d565b5050565b7f000000000000000000000000000000000000000000000000000000000000000073ffffffffffffffffffffffffffffffffffffffff163073ffffffffffffffffffffffffffffffffffffffff1603610dfe576040517f08c379a0000000000000000000000000000000000000000000000000000000008152600401610df590613d62565b60405180910390fd5b7f000000000000000000000000000000000000000000000000000000000000000073ffffffffffffffffffffffffffffffffffffffff16610e3d6120ff565b73ffffffffffffffffffffffffffffffffffffffff1614610e93576040517f08c379a0000000000000000000000000000000000000000000000000000000008152600401610e8a90613df4565b60405180910390fd5b610e9c81612156565b610ef581600067ffffffffffffffff811115610ebb57610eba6133b2565b5b6040519080825280601f01601f191660200182016040528015610eed5781602001600182028036833780820191505090505b506000612167565b50565b6000609b60009054906101000a900473ffffffffffffffffffffffffffffffffffffffff1673ffffffffffffffffffffffffffffffffffffffff166370a08231306040518263ffffffff1660e01b8152600401610f559190613bb1565b602060405180830381865afa158015610f72573d6000803e3d6000fd5b505050506040513d601f19601f82011682018060405250810190610f969190613b84565b905090565b7f000000000000000000000000000000000000000000000000000000000000000073ffffffffffffffffffffffffffffffffffffffff163073ffffffffffffffffffffffffffffffffffffffff1603611029576040517f08c379a000000000000000000000000000000000000000000000000000000000815260040161102090613d62565b60405180910390fd5b7f000000000000000000000000000000000000000000000000000000000000000073ffffffffffffffffffffffffffffffffffffffff166110686120ff565b73ffffffffffffffffffffffffffffffffffffffff16146110be576040517f08c379a00000000000000000000000000000000000000000000000000000000081526004016110b590613df4565b60405180910390fd5b6110c782612156565b6110d382826001612167565b5050565b60007f000000000000000000000000000000000000000000000000000000000000000073ffffffffffffffffffffffffffffffffffffffff163073ffffffffffffffffffffffffffffffffffffffff1614611167576040517f08c379a000000000000000000000000000000000000000000000000000000000815260040161115e90613e86565b60405180910390fd5b7f360894a13ba1a3210667c828492db98dca3e2076cc3735a920a3ca505d382bbc60001b905090565b60606000609960009054906101000a900473ffffffffffffffffffffffffffffffffffffffff1673ffffffffffffffffffffffffffffffffffffffff16633f6c923a85856040518363ffffffff1660e01b81526004016111f192919061374a565b600060405180830381865afa15801561120e573d6000803e3d6000fd5b505050506040513d6000823e3d601f19601f8201168201806040525081019061123791906139fc565b90506000609960009054906101000a900473ffffffffffffffffffffffffffffffffffffffff1673ffffffffffffffffffffffffffffffffffffffff16633f6c923a86866040518363ffffffff1660e01b815260040161129892919061374a565b600060405180830381865afa1580156112b5573d6000803e3d6000fd5b505050506040513d6000823e3d601f19601f820116820180604052508101906112de91906139fc565b6060015190506112f16000801b82611574565b611330576040517f08c379a000000000000000000000000000000000000000000000000000000000815260040161132790613aa2565b60405180910390fd5b6000609a60009054906101000a900473ffffffffffffffffffffffffffffffffffffffff1673ffffffffffffffffffffffffffffffffffffffff1663e6a1e888609b60009054906101000a900473ffffffffffffffffffffffffffffffffffffffff1684306040518463ffffffff1660e01b81526004016113b393929190613ad1565b608060405180830381865afa1580156113d0573d6000803e3d6000fd5b505050506040513d601f19601f820116820180604052508101906113f49190613b1d565b505091505085858080601f016020809104026020016040519081016040528093929190818152602001838380828437600081840152601f19601f82011690508083019250505050505050935060008360a0015180602001905181019061145a9190613b84565b9050609c60009054906101000a900473ffffffffffffffffffffffffffffffffffffffff1673ffffffffffffffffffffffffffffffffffffffff1663277fa38b826040518263ffffffff1660e01b81526004016114b79190613392565b600060405180830381600087803b1580156114d157600080fd5b505af11580156114e5573d6000803e3d6000fd5b50505050505050509998505050505050505050565b60606040517f08c379a000000000000000000000000000000000000000000000000000000000815260040161152e90613f18565b60405180910390fd5b60606040517f08c379a000000000000000000000000000000000000000000000000000000000815260040161156b90613faa565b60405180910390fd5b60006065600084815260200190815260200160002060000160008373ffffffffffffffffffffffffffffffffffffffff1673ffffffffffffffffffffffffffffffffffffffff16815260200190815260200160002060009054906101000a900460ff16905092915050565b6000801b81565b609c60009054906101000a900473ffffffffffffffffffffffffffffffffffffffff1681565b6000801b61161981611e9a565b6000821161165c576040517f08c379a000000000000000000000000000000000000000000000000000000000815260040161165390614016565b60405180910390fd5b6000611666611eae565b90506116b7813085609b60009054906101000a900473ffffffffffffffffffffffffffffffffffffffff1673ffffffffffffffffffffffffffffffffffffffff166122d5909392919063ffffffff16565b8073ffffffffffffffffffffffffffffffffffffffff167fe1fffcc4923d04b559f4d29a8bfc6cda04eb5b0d3c460751c2402c5c5cc9109c846040516116fd9190613392565b60405180910390a2505050565b6000611716600161235e565b9050801561173a576001600060016101000a81548160ff0219169083151502179055505b83609b60006101000a81548173ffffffffffffffffffffffffffffffffffffffff021916908373ffffffffffffffffffffffffffffffffffffffff16021790555081609960006101000a81548173ffffffffffffffffffffffffffffffffffffffff021916908373ffffffffffffffffffffffffffffffffffffffff16021790555082609c60006101000a81548173ffffffffffffffffffffffffffffffffffffffff021916908373ffffffffffffffffffffffffffffffffffffffff160217905550609960009054906101000a900473ffffffffffffffffffffffffffffffffffffffff1673ffffffffffffffffffffffffffffffffffffffff1663b6d200de7fa9214cc96615e0085d3bb077758db69497dc2dce3b2b1e97bc93c3d18d83efd36040518263ffffffff1660e01b81526004016118789190613212565b602060405180830381865afa158015611895573d6000803e3d6000fd5b505050506040513d601f19601f820116820180604052508101906118b99190614074565b609a60006101000a81548173ffffffffffffffffffffffffffffffffffffffff021916908373ffffffffffffffffffffffffffffffffffffffff1602179055506040518060400160405280609960009054906101000a900473ffffffffffffffffffffffffffffffffffffffff1673ffffffffffffffffffffffffffffffffffffffff168152602001609a60009054906101000a900473ffffffffffffffffffffffffffffffffffffffff1673ffffffffffffffffffffffffffffffffffffffff16815250609760008201518160000160006101000a81548173ffffffffffffffffffffffffffffffffffffffff021916908373ffffffffffffffffffffffffffffffffffffffff16021790555060208201518160010160006101000a81548173ffffffffffffffffffffffffffffffffffffffff021916908373ffffffffffffffffffffffffffffffffffffffff1602179055509050506000641000000000640400000000640100000000600117171790508273ffffffffffffffffffffffffffffffffffffffff1663ad3915c8826040518263ffffffff1660e01b8152600401611a659190613392565b600060405180830381600087803b158015611a7f57600080fd5b505af1158015611a93573d6000803e3d6000fd5b50505050611aa46000801b3361244e565b508015611afe5760008060016101000a81548160ff0219169083151502179055507f7f26b83ff96e1f2b6a682f133852f6798a09c465da95921460cefb38474024986001604051611af591906140dc565b60405180910390a15b50505050565b60978060000160009054906101000a900473ffffffffffffffffffffffffffffffffffffffff16908060010160009054906101000a900473ffffffffffffffffffffffffffffffffffffffff16905082565b611b5f82610b15565b611b6881611e9a565b611b72838361201d565b505050565b60606000609960009054906101000a900473ffffffffffffffffffffffffffffffffffffffff1673ffffffffffffffffffffffffffffffffffffffff16633f6c923a85856040518363ffffffff1660e01b8152600401611bd892919061374a565b600060405180830381865afa158015611bf5573d6000803e3d6000fd5b505050506040513d6000823e3d601f19601f82011682018060405250810190611c1e91906139fc565b9050600081606001519050611c366000801b82611574565b611c75576040517f08c379a0000000000000000000000000000000000000000000000000000000008152600401611c6c90613aa2565b60405180910390fd5b60008060008460a00151806020019051810190611c929190614135565b9250925092506000609a60009054906101000a900473ffffffffffffffffffffffffffffffffffffffff1673ffffffffffffffffffffffffffffffffffffffff1663e6a1e888609b60009054906101000a900473ffffffffffffffffffffffffffffffffffffffff1686306040518463ffffffff1660e01b8152600401611d1b93929190613ad1565b608060405180830381865afa158015611d38573d6000803e3d6000fd5b505050506040513d601f19601f82011682018060405250810190611d5c9190613b1d565b505091505088888080601f016020809104026020016040519081016040528093929190818152602001838380828437600081840152601f19601f82011690508083019250505050505050965060008660a00151806020019051810190611dc29190613b84565b9050611dd08385848861245c565b505050505050509998505050505050505050565b609960009054906101000a900473ffffffffffffffffffffffffffffffffffffffff1681565b609b60009054906101000a900473ffffffffffffffffffffffffffffffffffffffff1681565b60007f01ffc9a7000000000000000000000000000000000000000000000000000000007bffffffffffffffffffffffffffffffffffffffffffffffffffffffff1916827bffffffffffffffffffffffffffffffffffffffffffffffffffffffff1916149050919050565b611eab81611ea6611eae565b612542565b50565b600033905090565b611f378363a9059cbb60e01b8484604051602401611ed5929190614188565b604051602081830303815290604052907bffffffffffffffffffffffffffffffffffffffffffffffffffffffff19166020820180517bffffffffffffffffffffffffffffffffffffffffffffffffffffffff83818316178352505050506125df565b505050565b611f468282611574565b6120195760016065600084815260200190815260200160002060000160008373ffffffffffffffffffffffffffffffffffffffff1673ffffffffffffffffffffffffffffffffffffffff16815260200190815260200160002060006101000a81548160ff021916908315150217905550611fbe611eae565b73ffffffffffffffffffffffffffffffffffffffff168173ffffffffffffffffffffffffffffffffffffffff16837f2f8788117e7eff1d82e926ec794901d17c78024a50270940304540a733656f0d60405160405180910390a45b5050565b6120278282611574565b156120fb5760006065600084815260200190815260200160002060000160008373ffffffffffffffffffffffffffffffffffffffff1673ffffffffffffffffffffffffffffffffffffffff16815260200190815260200160002060006101000a81548160ff0219169083151502179055506120a0611eae565b73ffffffffffffffffffffffffffffffffffffffff168173ffffffffffffffffffffffffffffffffffffffff16837ff6391f5c32d9c69d2a47ea670b442974b53935d1edc7fd64eb21e047a839171b60405160405180910390a45b5050565b600061212d7f360894a13ba1a3210667c828492db98dca3e2076cc3735a920a3ca505d382bbc60001b6126a6565b60000160009054906101000a900473ffffffffffffffffffffffffffffffffffffffff16905090565b6000801b61216381611e9a565b5050565b6121937f4910fdfa16fed3260ed0e7147f7cc6da11a60208b5b9406d12a635614ffd914360001b6126b0565b60000160009054906101000a900460ff16156121b7576121b2836126ba565b6122d0565b8273ffffffffffffffffffffffffffffffffffffffff166352d1902d6040518163ffffffff1660e01b8152600401602060405180830381865afa92505050801561221f57506040513d601f19601f8201168201806040525081019061221c91906141c6565b60015b61225e576040517f08c379a000000000000000000000000000000000000000000000000000000000815260040161225590614265565b60405180910390fd5b7f360894a13ba1a3210667c828492db98dca3e2076cc3735a920a3ca505d382bbc60001b81146122c3576040517f08c379a00000000000000000000000000000000000000000000000000000000081526004016122ba906142f7565b60405180910390fd5b506122cf838383612773565b5b505050565b612358846323b872dd60e01b8585856040516024016122f693929190614317565b604051602081830303815290604052907bffffffffffffffffffffffffffffffffffffffffffffffffffffffff19166020820180517bffffffffffffffffffffffffffffffffffffffffffffffffffffffff83818316178352505050506125df565b50505050565b60008060019054906101000a900460ff16156123d55760018260ff1614801561238d575061238b3061279f565b155b6123cc576040517f08c379a00000000000000000000000000000000000000000000000000000000081526004016123c3906143c0565b60405180910390fd5b60009050612449565b8160ff1660008054906101000a900460ff1660ff161061242a576040517f08c379a0000000000000000000000000000000000000000000000000000000008152600401612421906143c0565b60405180910390fd5b816000806101000a81548160ff021916908360ff160217905550600190505b919050565b6124588282611f3c565b5050565b6124a98185609b60009054906101000a900473ffffffffffffffffffffffffffffffffffffffff1673ffffffffffffffffffffffffffffffffffffffff16611eb69092919063ffffffff16565b609c60009054906101000a900473ffffffffffffffffffffffffffffffffffffffff1673ffffffffffffffffffffffffffffffffffffffff1663728d25c2858585856040518563ffffffff1660e01b815260040161250a94939291906143e0565b600060405180830381600087803b15801561252457600080fd5b505af1158015612538573d6000803e3d6000fd5b5050505050505050565b61254c8282611574565b6125db576125718173ffffffffffffffffffffffffffffffffffffffff1660146127c2565b61257f8360001c60206127c2565b604051602001612590929190614504565b6040516020818303038152906040526040517f08c379a00000000000000000000000000000000000000000000000000000000081526004016125d29190614577565b60405180910390fd5b5050565b6000612641826040518060400160405280602081526020017f5361666545524332303a206c6f772d6c6576656c2063616c6c206661696c65648152508573ffffffffffffffffffffffffffffffffffffffff166129fe9092919063ffffffff16565b90506000815111156126a1578080602001905181019061266191906145c5565b6126a0576040517f08c379a000000000000000000000000000000000000000000000000000000000815260040161269790614664565b60405180910390fd5b5b505050565b6000819050919050565b6000819050919050565b6126c381612a16565b612702576040517f08c379a00000000000000000000000000000000000000000000000000000000081526004016126f9906146f6565b60405180910390fd5b8061272f7f360894a13ba1a3210667c828492db98dca3e2076cc3735a920a3ca505d382bbc60001b6126a6565b60000160006101000a81548173ffffffffffffffffffffffffffffffffffffffff021916908373ffffffffffffffffffffffffffffffffffffffff16021790555050565b61277c83612a39565b6000825111806127895750805b1561279a576127988383612a88565b505b505050565b6000808273ffffffffffffffffffffffffffffffffffffffff163b119050919050565b6060600060028360026127d59190614745565b6127df919061479f565b67ffffffffffffffff8111156127f8576127f76133b2565b5b6040519080825280601f01601f19166020018201604052801561282a5781602001600182028036833780820191505090505b5090507f300000000000000000000000000000000000000000000000000000000000000081600081518110612862576128616147f5565b5b60200101907effffffffffffffffffffffffffffffffffffffffffffffffffffffffffffff1916908160001a9053507f7800000000000000000000000000000000000000000000000000000000000000816001815181106128c6576128c56147f5565b5b60200101907effffffffffffffffffffffffffffffffffffffffffffffffffffffffffffff1916908160001a905350600060018460026129069190614745565b612910919061479f565b90505b60018111156129b0577f3031323334353637383961626364656600000000000000000000000000000000600f861660108110612952576129516147f5565b5b1a60f81b828281518110612969576129686147f5565b5b60200101907effffffffffffffffffffffffffffffffffffffffffffffffffffffffffffff1916908160001a905350600485901c9450806129a990614824565b9050612913565b50600084146129f4576040517f08c379a00000000000000000000000000000000000000000000000000000000081526004016129eb90614899565b60405180910390fd5b8091505092915050565b6060612a0d8484600085612ab5565b90509392505050565b6000808273ffffffffffffffffffffffffffffffffffffffff163b119050919050565b612a42816126ba565b8073ffffffffffffffffffffffffffffffffffffffff167fbc7cd75a20ee27fd9adebab32041f755214dbc6bffa90cc0225b39da2e5c2d3b60405160405180910390a250565b6060612aad8383604051806060016040528060278152602001614a9d60279139612bc9565b905092915050565b606082471015612afa576040517f08c379a0000000000000000000000000000000000000000000000000000000008152600401612af19061492b565b60405180910390fd5b612b0385612a16565b612b42576040517f08c379a0000000000000000000000000000000000000000000000000000000008152600401612b3990614997565b60405180910390fd5b6000808673ffffffffffffffffffffffffffffffffffffffff168587604051612b6b91906149f3565b60006040518083038185875af1925050503d8060008114612ba8576040519150601f19603f3d011682016040523d82523d6000602084013e612bad565b606091505b5091509150612bbd828286612c96565b92505050949350505050565b6060612bd484612a16565b612c13576040517f08c379a0000000000000000000000000000000000000000000000000000000008152600401612c0a90614a7c565b60405180910390fd5b6000808573ffffffffffffffffffffffffffffffffffffffff1685604051612c3b91906149f3565b600060405180830381855af49150503d8060008114612c76576040519150601f19603f3d011682016040523d82523d6000602084013e612c7b565b606091505b5091509150612c8b828286612c96565b925050509392505050565b60608315612ca657829050612cf6565b600083511115612cb95782518084602001fd5b816040517f08c379a0000000000000000000000000000000000000000000000000000000008152600401612ced9190614577565b60405180910390fd5b9392505050565b6000604051905090565b600080fd5b600080fd5b60007fffffffff0000000000000000000000000000000000000000000000000000000082169050919050565b612d4681612d11565b8114612d5157600080fd5b50565b600081359050612d6381612d3d565b92915050565b600060208284031215612d7f57612d7e612d07565b5b6000612d8d84828501612d54565b91505092915050565b60008115159050919050565b612dab81612d96565b82525050565b6000602082019050612dc66000830184612da2565b92915050565b6000819050919050565b612ddf81612dcc565b8114612dea57600080fd5b50565b600081359050612dfc81612dd6565b92915050565b600081600b0b9050919050565b612e1881612e02565b8114612e2357600080fd5b50565b600081359050612e3581612e0f565b92915050565b60008060408385031215612e5257612e51612d07565b5b6000612e6085828601612ded565b9250506020612e7185828601612e26565b9150509250929050565b600073ffffffffffffffffffffffffffffffffffffffff82169050919050565b6000819050919050565b6000612ec0612ebb612eb684612e7b565b612e9b565b612e7b565b9050919050565b6000612ed282612ea5565b9050919050565b6000612ee482612ec7565b9050919050565b612ef481612ed9565b82525050565b6000602082019050612f0f6000830184612eeb565b92915050565b6000612f2082612e7b565b9050919050565b6000612f3282612f15565b9050919050565b612f4281612f27565b8114612f4d57600080fd5b50565b600081359050612f5f81612f39565b92915050565b612f6e81612f15565b8114612f7957600080fd5b50565b600081359050612f8b81612f65565b92915050565b6000819050919050565b612fa481612f91565b8114612faf57600080fd5b50565b600081359050612fc181612f9b565b92915050565b600080fd5b600080fd5b600080fd5b60008083601f840112612fec57612feb612fc7565b5b8235905067ffffffffffffffff81111561300957613008612fcc565b5b60208301915083600182028301111561302557613024612fd1565b5b9250929050565b600080600080600080600080600060c08a8c03121561304e5761304d612d07565b5b600061305c8c828d01612f50565b995050602061306d8c828d01612f7c565b985050604061307e8c828d01612fb2565b97505060608a013567ffffffffffffffff81111561309f5761309e612d0c565b5b6130ab8c828d01612fd6565b965096505060808a013567ffffffffffffffff8111156130ce576130cd612d0c565b5b6130da8c828d01612fd6565b945094505060a08a013567ffffffffffffffff8111156130fd576130fc612d0c565b5b6131098c828d01612fd6565b92509250509295985092959850929598565b600081519050919050565b600082825260208201905092915050565b60005b8381101561315557808201518184015260208101905061313a565b83811115613164576000848401525b50505050565b6000601f19601f8301169050919050565b60006131868261311b565b6131908185613126565b93506131a0818560208601613137565b6131a98161316a565b840191505092915050565b600060208201905081810360008301526131ce818461317b565b905092915050565b6000602082840312156131ec576131eb612d07565b5b60006131fa84828501612fb2565b91505092915050565b61320c81612f91565b82525050565b60006020820190506132276000830184613203565b92915050565b60006020828403121561324357613242612d07565b5b600061325184828501612ded565b91505092915050565b6000806040838503121561327157613270612d07565b5b600061327f85828601612fb2565b925050602061329085828601612f7c565b9150509250929050565b600080600080600080600060a0888a0312156132b9576132b8612d07565b5b60006132c78a828b01612f50565b97505060206132d88a828b01612f7c565b96505060406132e98a828b01612fb2565b955050606088013567ffffffffffffffff81111561330a57613309612d0c565b5b6133168a828b01612fd6565b9450945050608088013567ffffffffffffffff81111561333957613338612d0c565b5b6133458a828b01612fd6565b925092505092959891949750929550565b60006020828403121561336c5761336b612d07565b5b600061337a84828501612f7c565b91505092915050565b61338c81612dcc565b82525050565b60006020820190506133a76000830184613383565b92915050565b600080fd5b7f4e487b7100000000000000000000000000000000000000000000000000000000600052604160045260246000fd5b6133ea8261316a565b810181811067ffffffffffffffff82111715613409576134086133b2565b5b80604052505050565b600061341c612cfd565b905061342882826133e1565b919050565b600067ffffffffffffffff821115613448576134476133b2565b5b6134518261316a565b9050602081019050919050565b82818337600083830152505050565b600061348061347b8461342d565b613412565b90508281526020810184848401111561349c5761349b6133ad565b5b6134a784828561345e565b509392505050565b600082601f8301126134c4576134c3612fc7565b5b81356134d484826020860161346d565b91505092915050565b600080604083850312156134f4576134f3612d07565b5b600061350285828601612f7c565b925050602083013567ffffffffffffffff81111561352357613522612d0c565b5b61352f858286016134af565b9150509250929050565b600061354482612ec7565b9050919050565b61355481613539565b82525050565b600060208201905061356f600083018461354b565b92915050565b600061358082612f15565b9050919050565b61359081613575565b811461359b57600080fd5b50565b6000813590506135ad81613587565b92915050565b60006135be82612f15565b9050919050565b6135ce816135b3565b81146135d957600080fd5b50565b6000813590506135eb816135c5565b92915050565b60008060006060848603121561360a57613609612d07565b5b600061361886828701612f50565b93505060206136298682870161359e565b925050604061363a868287016135dc565b9150509250925092565b600061364f82612ec7565b9050919050565b61365f81613644565b82525050565b600060408201905061367a6000830185613656565b6136876020830184612eeb565b9392505050565b60006020820190506136a36000830184613656565b92915050565b60006136b482612ec7565b9050919050565b6136c4816136a9565b82525050565b60006020820190506136df60008301846136bb565b92915050565b6136ee81612e02565b82525050565b60006040820190506137096000830185613383565b61371660208301846136e5565b9392505050565b60006137298385613126565b935061373683858461345e565b61373f8361316a565b840190509392505050565b6000602082019050818103600083015261376581848661371d565b90509392505050565b600080fd5b600080fd5b600060ff82169050919050565b61378e81613778565b811461379957600080fd5b50565b6000815190506137ab81613785565b92915050565b6000815190506137c081612dd6565b92915050565b6000815190506137d581612f65565b92915050565b6000815190506137ea81612d3d565b92915050565b60006138036137fe8461342d565b613412565b90508281526020810184848401111561381f5761381e6133ad565b5b61382a848285613137565b509392505050565b600082601f83011261384757613846612fc7565b5b81516138578482602086016137f0565b91505092915050565b6000819050919050565b61387381613860565b811461387e57600080fd5b50565b6000815190506138908161386a565b92915050565b60006138a182612f15565b9050919050565b6138b181613896565b81146138bc57600080fd5b50565b6000815190506138ce816138a8565b92915050565b600061016082840312156138eb576138ea61376e565b5b6138f6610160613412565b905060006139068482850161379c565b600083015250602061391a8482850161379c565b602083015250604061392e848285016137b1565b6040830152506060613942848285016137c6565b6060830152506080613956848285016137db565b60808301525060a082015167ffffffffffffffff81111561397a57613979613773565b5b61398684828501613832565b60a08301525060c061399a848285016137b1565b60c08301525060e06139ae848285016137b1565b60e0830152506101006139c384828501613881565b610100830152506101206139d9848285016137c6565b610120830152506101406139ef848285016138bf565b6101408301525092915050565b600060208284031215613a1257613a11612d07565b5b600082015167ffffffffffffffff811115613a3057613a2f612d0c565b5b613a3c848285016138d4565b91505092915050565b600082825260208201905092915050565b7f4c656e64696e67506f6f6c3a4f4e4c595f44414f000000000000000000000000600082015250565b6000613a8c601483613a45565b9150613a9782613a56565b602082019050919050565b60006020820190508181036000830152613abb81613a7f565b9050919050565b613acb81612f15565b82525050565b6000606082019050613ae660008301866136bb565b613af36020830185613ac2565b613b006040830184613ac2565b949350505050565b600081519050613b1781612e0f565b92915050565b60008060008060808587031215613b3757613b36612d07565b5b6000613b45878288016137b1565b9450506020613b5687828801613b08565b9350506040613b67878288016137b1565b9250506060613b78878288016137b1565b91505092959194509250565b600060208284031215613b9a57613b99612d07565b5b6000613ba8848285016137b1565b91505092915050565b6000602082019050613bc66000830184613ac2565b92915050565b7f556e737570706f727465642063616c6c6261636b202d204265666f726520416760008201527f7265656d656e7420437265617465640000000000000000000000000000000000602082015250565b6000613c28602f83613a45565b9150613c3382613bcc565b604082019050919050565b60006020820190508181036000830152613c5781613c1b565b9050919050565b7f416363657373436f6e74726f6c3a2063616e206f6e6c792072656e6f756e636560008201527f20726f6c657320666f722073656c660000000000000000000000000000000000602082015250565b6000613cba602f83613a45565b9150613cc582613c5e565b604082019050919050565b60006020820190508181036000830152613ce981613cad565b9050919050565b7f46756e6374696f6e206d7573742062652063616c6c6564207468726f7567682060008201527f64656c656761746563616c6c0000000000000000000000000000000000000000602082015250565b6000613d4c602c83613a45565b9150613d5782613cf0565b604082019050919050565b60006020820190508181036000830152613d7b81613d3f565b9050919050565b7f46756e6374696f6e206d7573742062652063616c6c6564207468726f7567682060008201527f6163746976652070726f78790000000000000000000000000000000000000000602082015250565b6000613dde602c83613a45565b9150613de982613d82565b604082019050919050565b60006020820190508181036000830152613e0d81613dd1565b9050919050565b7f555550535570677261646561626c653a206d757374206e6f742062652063616c60008201527f6c6564207468726f7567682064656c656761746563616c6c0000000000000000602082015250565b6000613e70603883613a45565b9150613e7b82613e14565b604082019050919050565b60006020820190508181036000830152613e9f81613e63565b9050919050565b7f556e737570706f727465642063616c6c6261636b202d20204265666f7265204160008201527f677265656d656e74205465726d696e6174656400000000000000000000000000602082015250565b6000613f02603383613a45565b9150613f0d82613ea6565b604082019050919050565b60006020820190508181036000830152613f3181613ef5565b9050919050565b7f556e737570706f727465642063616c6c6261636b202d204265666f726520416760008201527f7265656d656e7420757064617465640000000000000000000000000000000000602082015250565b6000613f94602f83613a45565b9150613f9f82613f38565b604082019050919050565b60006020820190508181036000830152613fc381613f87565b9050919050565b7f4c656e64696e67506f6f6c3a20414d4f554e545f5a45524f0000000000000000600082015250565b6000614000601883613a45565b915061400b82613fca565b602082019050919050565b6000602082019050818103600083015261402f81613ff3565b9050919050565b600061404182612f15565b9050919050565b61405181614036565b811461405c57600080fd5b50565b60008151905061406e81614048565b92915050565b60006020828403121561408a57614089612d07565b5b60006140988482850161405f565b91505092915050565b6000819050919050565b60006140c66140c16140bc846140a1565b612e9b565b613778565b9050919050565b6140d6816140ab565b82525050565b60006020820190506140f160008301846140cd565b92915050565b600061410282612e7b565b9050919050565b614112816140f7565b811461411d57600080fd5b50565b60008151905061412f81614109565b92915050565b60008060006060848603121561414e5761414d612d07565b5b600061415c86828701614120565b935050602061416d868287016137b1565b925050604061417e868287016137b1565b9150509250925092565b600060408201905061419d6000830185613ac2565b6141aa6020830184613383565b9392505050565b6000815190506141c081612f9b565b92915050565b6000602082840312156141dc576141db612d07565b5b60006141ea848285016141b1565b91505092915050565b7f45524331393637557067726164653a206e657720696d706c656d656e7461746960008201527f6f6e206973206e6f742055555053000000000000000000000000000000000000602082015250565b600061424f602e83613a45565b915061425a826141f3565b604082019050919050565b6000602082019050818103600083015261427e81614242565b9050919050565b7f45524331393637557067726164653a20756e737570706f727465642070726f7860008201527f6961626c65555549440000000000000000000000000000000000000000000000602082015250565b60006142e1602983613a45565b91506142ec82614285565b604082019050919050565b60006020820190508181036000830152614310816142d4565b9050919050565b600060608201905061432c6000830186613ac2565b6143396020830185613ac2565b6143466040830184613383565b949350505050565b7f496e697469616c697a61626c653a20636f6e747261637420697320616c72656160008201527f647920696e697469616c697a6564000000000000000000000000000000000000602082015250565b60006143aa602e83613a45565b91506143b58261434e565b604082019050919050565b600060208201905081810360008301526143d98161439d565b9050919050565b60006080820190506143f56000830187613383565b6144026020830186613383565b61440f60408301856136e5565b61441c6060830184613ac2565b95945050505050565b600081905092915050565b7f416363657373436f6e74726f6c3a206163636f756e7420000000000000000000600082015250565b6000614466601783614425565b915061447182614430565b601782019050919050565b600081519050919050565b60006144928261447c565b61449c8185614425565b93506144ac818560208601613137565b80840191505092915050565b7f206973206d697373696e6720726f6c6520000000000000000000000000000000600082015250565b60006144ee601183614425565b91506144f9826144b8565b601182019050919050565b600061450f82614459565b915061451b8285614487565b9150614526826144e1565b91506145328284614487565b91508190509392505050565b60006145498261447c565b6145538185613a45565b9350614563818560208601613137565b61456c8161316a565b840191505092915050565b60006020820190508181036000830152614591818461453e565b905092915050565b6145a281612d96565b81146145ad57600080fd5b50565b6000815190506145bf81614599565b92915050565b6000602082840312156145db576145da612d07565b5b60006145e9848285016145b0565b91505092915050565b7f5361666545524332303a204552433230206f7065726174696f6e20646964206e60008201527f6f74207375636365656400000000000000000000000000000000000000000000602082015250565b600061464e602a83613a45565b9150614659826145f2565b604082019050919050565b6000602082019050818103600083015261467d81614641565b9050919050565b7f455243313936373a206e657720696d706c656d656e746174696f6e206973206e60008201527f6f74206120636f6e747261637400000000000000000000000000000000000000602082015250565b60006146e0602d83613a45565b91506146eb82614684565b604082019050919050565b6000602082019050818103600083015261470f816146d3565b9050919050565b7f4e487b7100000000000000000000000000000000000000000000000000000000600052601160045260246000fd5b600061475082612dcc565b915061475b83612dcc565b9250817fffffffffffffffffffffffffffffffffffffffffffffffffffffffffffffffff048311821515161561479457614793614716565b5b828202905092915050565b60006147aa82612dcc565b91506147b583612dcc565b9250827fffffffffffffffffffffffffffffffffffffffffffffffffffffffffffffffff038211156147ea576147e9614716565b5b828201905092915050565b7f4e487b7100000000000000000000000000000000000000000000000000000000600052603260045260246000fd5b600061482f82612dcc565b91506000820361484257614841614716565b5b600182039050919050565b7f537472696e67733a20686578206c656e67746820696e73756666696369656e74600082015250565b6000614883602083613a45565b915061488e8261484d565b602082019050919050565b600060208201905081810360008301526148b281614876565b9050919050565b7f416464726573733a20696e73756666696369656e742062616c616e636520666f60008201527f722063616c6c0000000000000000000000000000000000000000000000000000602082015250565b6000614915602683613a45565b9150614920826148b9565b604082019050919050565b6000602082019050818103600083015261494481614908565b9050919050565b7f416464726573733a2063616c6c20746f206e6f6e2d636f6e7472616374000000600082015250565b6000614981601d83613a45565b915061498c8261494b565b602082019050919050565b600060208201905081810360008301526149b081614974565b9050919050565b600081905092915050565b60006149cd8261311b565b6149d781856149b7565b93506149e7818560208601613137565b80840191505092915050565b60006149ff82846149c2565b915081905092915050565b7f416464726573733a2064656c65676174652063616c6c20746f206e6f6e2d636f60008201527f6e74726163740000000000000000000000000000000000000000000000000000602082015250565b6000614a66602683613a45565b9150614a7182614a0a565b604082019050919050565b60006020820190508181036000830152614a9581614a59565b905091905056fe416464726573733a206c6f772d6c6576656c2064656c65676174652063616c6c206661696c6564a26469706673582212209e84eb3c72edc0d5b20242fd7d88ded12c826d76a71f7ca518bfd2c1d790dd9464736f6c634300080d0033",
  "linkReferences": {},
  "deployedLinkReferences": {}
}