{
  "_format": "hh-sol-artifact-1",
  "contractName": "LoanManager",
  "sourceName": "contracts/LoanManager.sol",
  "abi": [
    {
      "inputs": [],
      "stateMutability": "nonpayable",
      "type": "constructor"
    },
    {
      "anonymous": false,
      "inputs": [
        {
          "indexed": false,
          "internalType": "address",
          "name": "previousAdmin",
          "type": "address"
        },
        {
          "indexed": false,
          "internalType": "address",
          "name": "newAdmin",
          "type": "address"
        }
      ],
      "name": "AdminChanged",
      "type": "event"
    },
    {
      "anonymous": false,
      "inputs": [
        {
          "indexed": true,
          "internalType": "address",
          "name": "beacon",
          "type": "address"
        }
      ],
      "name": "BeaconUpgraded",
      "type": "event"
    },
    {
      "anonymous": false,
      "inputs": [
        {
          "indexed": false,
          "internalType": "uint256",
          "name": "loanId",
          "type": "uint256"
        }
      ],
      "name": "CreateLoan",
      "type": "event"
    },
    {
      "anonymous": false,
      "inputs": [
        {
          "indexed": false,
          "internalType": "uint8",
          "name": "version",
          "type": "uint8"
        }
      ],
      "name": "Initialized",
      "type": "event"
    },
    {
      "anonymous": false,
      "inputs": [
        {
          "indexed": true,
          "internalType": "bytes32",
          "name": "role",
          "type": "bytes32"
        },
        {
          "indexed": true,
          "internalType": "bytes32",
          "name": "previousAdminRole",
          "type": "bytes32"
        },
        {
          "indexed": true,
          "internalType": "bytes32",
          "name": "newAdminRole",
          "type": "bytes32"
        }
      ],
      "name": "RoleAdminChanged",
      "type": "event"
    },
    {
      "anonymous": false,
      "inputs": [
        {
          "indexed": true,
          "internalType": "bytes32",
          "name": "role",
          "type": "bytes32"
        },
        {
          "indexed": true,
          "internalType": "address",
          "name": "account",
          "type": "address"
        },
        {
          "indexed": true,
          "internalType": "address",
          "name": "sender",
          "type": "address"
        }
      ],
      "name": "RoleGranted",
      "type": "event"
    },
    {
      "anonymous": false,
      "inputs": [
        {
          "indexed": true,
          "internalType": "bytes32",
          "name": "role",
          "type": "bytes32"
        },
        {
          "indexed": true,
          "internalType": "address",
          "name": "account",
          "type": "address"
        },
        {
          "indexed": true,
          "internalType": "address",
          "name": "sender",
          "type": "address"
        }
      ],
      "name": "RoleRevoked",
      "type": "event"
    },
    {
      "anonymous": false,
      "inputs": [
        {
          "indexed": true,
          "internalType": "address",
          "name": "implementation",
          "type": "address"
        }
      ],
      "name": "Upgraded",
      "type": "event"
    },
    {
      "inputs": [],
      "name": "DEFAULT_ADMIN_ROLE",
      "outputs": [
        {
          "internalType": "bytes32",
          "name": "",
          "type": "bytes32"
        }
      ],
      "stateMutability": "view",
      "type": "function"
    },
    {
      "inputs": [],
      "name": "LENDING_POOL",
      "outputs": [
        {
          "internalType": "bytes32",
          "name": "",
          "type": "bytes32"
        }
      ],
      "stateMutability": "view",
      "type": "function"
    },
    {
      "inputs": [],
      "name": "UPGRADER_ROLE",
      "outputs": [
        {
          "internalType": "bytes32",
          "name": "",
          "type": "bytes32"
        }
      ],
      "stateMutability": "view",
      "type": "function"
    },
    {
      "inputs": [
        {
          "internalType": "uint256",
          "name": "principal",
          "type": "uint256"
        },
        {
          "internalType": "uint256",
          "name": "repaymentAmount",
          "type": "uint256"
        },
        {
          "internalType": "int96",
          "name": "flowRate",
          "type": "int96"
        },
        {
          "internalType": "address",
          "name": "borrower",
          "type": "address"
        }
      ],
      "name": "createLoan",
      "outputs": [],
      "stateMutability": "nonpayable",
      "type": "function"
    },
    {
      "inputs": [
        {
          "internalType": "uint256",
          "name": "loanId",
          "type": "uint256"
        }
      ],
      "name": "finalizeRepayment",
      "outputs": [],
      "stateMutability": "nonpayable",
      "type": "function"
    },
    {
      "inputs": [
        {
          "internalType": "int96",
          "name": "flowRate",
          "type": "int96"
        },
        {
          "internalType": "uint256",
          "name": "startDate",
          "type": "uint256"
        },
        {
          "internalType": "uint256",
          "name": "repaymentAmount",
          "type": "uint256"
        }
      ],
      "name": "getRepaymentDuration",
      "outputs": [
        {
          "internalType": "uint256",
          "name": "",
          "type": "uint256"
        }
      ],
      "stateMutability": "view",
      "type": "function"
    },
    {
      "inputs": [
        {
          "internalType": "bytes32",
          "name": "role",
          "type": "bytes32"
        }
      ],
      "name": "getRoleAdmin",
      "outputs": [
        {
          "internalType": "bytes32",
          "name": "",
          "type": "bytes32"
        }
      ],
      "stateMutability": "view",
      "type": "function"
    },
    {
      "inputs": [
        {
          "internalType": "bytes32",
          "name": "role",
          "type": "bytes32"
        },
        {
          "internalType": "address",
          "name": "account",
          "type": "address"
        }
      ],
      "name": "grantRole",
      "outputs": [],
      "stateMutability": "nonpayable",
      "type": "function"
    },
    {
      "inputs": [
        {
          "internalType": "bytes32",
          "name": "role",
          "type": "bytes32"
        },
        {
          "internalType": "address",
          "name": "account",
          "type": "address"
        }
      ],
      "name": "hasRole",
      "outputs": [
        {
          "internalType": "bool",
          "name": "",
          "type": "bool"
        }
      ],
      "stateMutability": "view",
      "type": "function"
    },
    {
      "inputs": [],
      "name": "initialize",
      "outputs": [],
      "stateMutability": "nonpayable",
      "type": "function"
    },
    {
      "inputs": [],
      "name": "loanId",
      "outputs": [
        {
          "internalType": "uint256",
          "name": "",
          "type": "uint256"
        }
      ],
      "stateMutability": "view",
      "type": "function"
    },
    {
      "inputs": [
        {
          "internalType": "uint256",
          "name": "",
          "type": "uint256"
        }
      ],
      "name": "loans",
      "outputs": [
        {
          "internalType": "uint256",
          "name": "principal",
          "type": "uint256"
        },
        {
          "internalType": "uint256",
          "name": "repaymentAmount",
          "type": "uint256"
        },
        {
          "internalType": "int96",
          "name": "flowRate",
          "type": "int96"
        },
        {
          "internalType": "int96",
          "name": "minimumFlowRate",
          "type": "int96"
        },
        {
          "internalType": "uint256",
          "name": "startDate",
          "type": "uint256"
        },
        {
          "internalType": "address",
          "name": "borrower",
          "type": "address"
        },
        {
          "internalType": "enum ILoanManager.LoanStatus",
          "name": "status",
          "type": "uint8"
        }
      ],
      "stateMutability": "view",
      "type": "function"
    },
    {
      "inputs": [],
      "name": "proxiableUUID",
      "outputs": [
        {
          "internalType": "bytes32",
          "name": "",
          "type": "bytes32"
        }
      ],
      "stateMutability": "view",
      "type": "function"
    },
    {
      "inputs": [
        {
          "internalType": "bytes32",
          "name": "role",
          "type": "bytes32"
        },
        {
          "internalType": "address",
          "name": "account",
          "type": "address"
        }
      ],
      "name": "renounceRole",
      "outputs": [],
      "stateMutability": "nonpayable",
      "type": "function"
    },
    {
      "inputs": [
        {
          "internalType": "bytes32",
          "name": "role",
          "type": "bytes32"
        },
        {
          "internalType": "address",
          "name": "account",
          "type": "address"
        }
      ],
      "name": "revokeRole",
      "outputs": [],
      "stateMutability": "nonpayable",
      "type": "function"
    },
    {
      "inputs": [
        {
          "internalType": "bytes4",
          "name": "interfaceId",
          "type": "bytes4"
        }
      ],
      "name": "supportsInterface",
      "outputs": [
        {
          "internalType": "bool",
          "name": "",
          "type": "bool"
        }
      ],
      "stateMutability": "view",
      "type": "function"
    },
    {
      "inputs": [
        {
          "internalType": "uint256",
          "name": "loanId",
          "type": "uint256"
        },
        {
          "internalType": "int96",
          "name": "minimumFlowRate",
          "type": "int96"
        }
      ],
      "name": "updateLoanAllowance",
      "outputs": [],
      "stateMutability": "nonpayable",
      "type": "function"
    },
    {
      "inputs": [
        {
          "internalType": "uint256",
          "name": "loanId",
          "type": "uint256"
        },
        {
          "internalType": "int96",
          "name": "newFlowRate",
          "type": "int96"
        }
      ],
      "name": "updateLoanTerms",
      "outputs": [],
      "stateMutability": "nonpayable",
      "type": "function"
    },
    {
      "inputs": [
        {
          "internalType": "address",
          "name": "newImplementation",
          "type": "address"
        }
      ],
      "name": "upgradeTo",
      "outputs": [],
      "stateMutability": "nonpayable",
      "type": "function"
    },
    {
      "inputs": [
        {
          "internalType": "address",
          "name": "newImplementation",
          "type": "address"
        },
        {
          "internalType": "bytes",
          "name": "data",
          "type": "bytes"
        }
      ],
      "name": "upgradeToAndCall",
      "outputs": [],
      "stateMutability": "payable",
      "type": "function"
    }
  ],
  "bytecode": "0x60a06040523073ffffffffffffffffffffffffffffffffffffffff1660809073ffffffffffffffffffffffffffffffffffffffff1681525034801561004357600080fd5b50608051612e6e61007b60003960008181610828015281816108b6015281816109b001528181610a3e0152610aee0152612e6e6000f3fe60806040526004361061011f5760003560e01c80638129fc1c116100a0578063c95669a511610064578063c95669a5146103ae578063d547741f146103d9578063e1ec3c6814610402578063f72c0d8b14610445578063fe8d8048146104705761011f565b80638129fc1c146102db57806391d14854146102f257806396d01b971461032f578063a217fddf14610358578063b4dcfc77146103835761011f565b806336568abe116100e757806336568abe146102195780633659cfe6146102425780634f1ef2861461026b57806352d1902d14610287578063728d25c2146102b25761011f565b806301ffc9a7146101245780630519f03a14610161578063248a9ca31461018a578063277fa38b146101c75780632f2ff15d146101f0575b600080fd5b34801561013057600080fd5b5061014b60048036038101906101469190611cb2565b6104ad565b6040516101589190611cfa565b60405180910390f35b34801561016d57600080fd5b5061018860048036038101906101839190611d84565b610527565b005b34801561019657600080fd5b506101b160048036038101906101ac9190611dfa565b610644565b6040516101be9190611e36565b60405180910390f35b3480156101d357600080fd5b506101ee60048036038101906101e99190611e51565b610664565b005b3480156101fc57600080fd5b5061021760048036038101906102129190611edc565b610782565b005b34801561022557600080fd5b50610240600480360381019061023b9190611edc565b6107a3565b005b34801561024e57600080fd5b5061026960048036038101906102649190611f1c565b610826565b005b6102856004803603810190610280919061208f565b6109ae565b005b34801561029357600080fd5b5061029c610aea565b6040516102a99190611e36565b60405180910390f35b3480156102be57600080fd5b506102d960048036038101906102d491906120eb565b610ba3565b005b3480156102e757600080fd5b506102f0610da8565b005b3480156102fe57600080fd5b5061031960048036038101906103149190611edc565b610e41565b6040516103269190611cfa565b60405180910390f35b34801561033b57600080fd5b5061035660048036038101906103519190611d84565b610eac565b005b34801561036457600080fd5b5061036d610fbd565b60405161037a9190611e36565b60405180910390f35b34801561038f57600080fd5b50610398610fc4565b6040516103a59190611e36565b60405180910390f35b3480156103ba57600080fd5b506103c3610fe8565b6040516103d09190612161565b60405180910390f35b3480156103e557600080fd5b5061040060048036038101906103fb9190611edc565b610fee565b005b34801561040e57600080fd5b5061042960048036038101906104249190611e51565b61100f565b60405161043c9796959493929190612211565b60405180910390f35b34801561045157600080fd5b5061045a611098565b6040516104679190611e36565b60405180910390f35b34801561047c57600080fd5b5061049760048036038101906104929190612280565b6110bc565b6040516104a49190612161565b60405180910390f35b60007f7965db0b000000000000000000000000000000000000000000000000000000007bffffffffffffffffffffffffffffffffffffffffffffffffffffffff1916827bffffffffffffffffffffffffffffffffffffffffffffffffffffffff19161480610520575061051f82611144565b5b9050919050565b7fb0a02d474211257da1bdb72ce7e91b05cbdc99ae0876cb0a61bbc7ad100c58a7610551816111ae565b600060976000858152602001908152602001600020905060008160030154116105af576040517f08c379a00000000000000000000000000000000000000000000000000000000081526004016105a690612330565b60405180910390fd5b8060020160009054906101000a9004600b0b600b0b83600b0b12610608576040517f08c379a00000000000000000000000000000000000000000000000000000000081526004016105ff9061239c565b60405180910390fd5b8281600201600c6101000a8154816bffffffffffffffffffffffff0219169083600b0b6bffffffffffffffffffffffff16021790555050505050565b600060656000838152602001908152602001600020600101549050919050565b7fb0a02d474211257da1bdb72ce7e91b05cbdc99ae0876cb0a61bbc7ad100c58a761068e816111ae565b600060976000848152602001908152602001600020905060008160030154116106ec576040517f08c379a00000000000000000000000000000000000000000000000000000000081526004016106e390612330565b60405180910390fd5b60006107128260020160009054906101000a9004600b0b836003015484600101546110bc565b90506000811161074e5760018260040160146101000a81548160ff021916908360028111156107445761074361219a565b5b021790555061077c565b60028260040160146101000a81548160ff021916908360028111156107765761077561219a565b5b02179055505b50505050565b61078b82610644565b610794816111ae565b61079e83836111c2565b505050565b6107ab6112a3565b73ffffffffffffffffffffffffffffffffffffffff168173ffffffffffffffffffffffffffffffffffffffff1614610818576040517f08c379a000000000000000000000000000000000000000000000000000000000815260040161080f9061242e565b60405180910390fd5b61082282826112ab565b5050565b7f000000000000000000000000000000000000000000000000000000000000000073ffffffffffffffffffffffffffffffffffffffff163073ffffffffffffffffffffffffffffffffffffffff16036108b4576040517f08c379a00000000000000000000000000000000000000000000000000000000081526004016108ab906124c0565b60405180910390fd5b7f000000000000000000000000000000000000000000000000000000000000000073ffffffffffffffffffffffffffffffffffffffff166108f361138d565b73ffffffffffffffffffffffffffffffffffffffff1614610949576040517f08c379a000000000000000000000000000000000000000000000000000000000815260040161094090612552565b60405180910390fd5b610952816113e4565b6109ab81600067ffffffffffffffff81111561097157610970611f64565b5b6040519080825280601f01601f1916602001820160405280156109a35781602001600182028036833780820191505090505b506000611412565b50565b7f000000000000000000000000000000000000000000000000000000000000000073ffffffffffffffffffffffffffffffffffffffff163073ffffffffffffffffffffffffffffffffffffffff1603610a3c576040517f08c379a0000000000000000000000000000000000000000000000000000000008152600401610a33906124c0565b60405180910390fd5b7f000000000000000000000000000000000000000000000000000000000000000073ffffffffffffffffffffffffffffffffffffffff16610a7b61138d565b73ffffffffffffffffffffffffffffffffffffffff1614610ad1576040517f08c379a0000000000000000000000000000000000000000000000000000000008152600401610ac890612552565b60405180910390fd5b610ada826113e4565b610ae682826001611412565b5050565b60007f000000000000000000000000000000000000000000000000000000000000000073ffffffffffffffffffffffffffffffffffffffff163073ffffffffffffffffffffffffffffffffffffffff1614610b7a576040517f08c379a0000000000000000000000000000000000000000000000000000000008152600401610b71906125e4565b60405180910390fd5b7f360894a13ba1a3210667c828492db98dca3e2076cc3735a920a3ca505d382bbc60001b905090565b7fb0a02d474211257da1bdb72ce7e91b05cbdc99ae0876cb0a61bbc7ad100c58a7610bcd816111ae565b6040518060e0016040528086815260200185815260200184600b0b815260200184600b0b81526020014281526020018373ffffffffffffffffffffffffffffffffffffffff16815260200160006002811115610c2c57610c2b61219a565b5b815250609760006098548152602001908152602001600020600082015181600001556020820151816001015560408201518160020160006101000a8154816bffffffffffffffffffffffff0219169083600b0b6bffffffffffffffffffffffff160217905550606082015181600201600c6101000a8154816bffffffffffffffffffffffff0219169083600b0b6bffffffffffffffffffffffff1602179055506080820151816003015560a08201518160040160006101000a81548173ffffffffffffffffffffffffffffffffffffffff021916908373ffffffffffffffffffffffffffffffffffffffff16021790555060c08201518160040160146101000a81548160ff02191690836002811115610d4857610d4761219a565b5b02179055509050507ff593468c0b9d971756d7969d00d18fbbdde778cbb73a6fa35634b9421d43c1e2609854604051610d819190612161565b60405180910390a160986000815480929190610d9c90612633565b91905055505050505050565b6000610db46001611580565b90508015610dd8576001600060016101000a81548160ff0219169083151502179055505b610de56000801b33611670565b8015610e3e5760008060016101000a81548160ff0219169083151502179055507f7f26b83ff96e1f2b6a682f133852f6798a09c465da95921460cefb38474024986001604051610e3591906126cd565b60405180910390a15b50565b60006065600084815260200190815260200160002060000160008373ffffffffffffffffffffffffffffffffffffffff1673ffffffffffffffffffffffffffffffffffffffff16815260200190815260200160002060009054906101000a900460ff16905092915050565b7fb0a02d474211257da1bdb72ce7e91b05cbdc99ae0876cb0a61bbc7ad100c58a7610ed6816111ae565b60006097600085815260200190815260200160002090506000816003015411610f34576040517f08c379a0000000000000000000000000000000000000000000000000000000008152600401610f2b90612330565b60405180910390fd5b828160020160006101000a8154816bffffffffffffffffffffffff0219169083600b0b6bffffffffffffffffffffffff16021790555080600201600c9054906101000a9004600b0b600b0b83600b0b1215610fb75760028160040160146101000a81548160ff02191690836002811115610fb157610fb061219a565b5b02179055505b50505050565b6000801b81565b7fb0a02d474211257da1bdb72ce7e91b05cbdc99ae0876cb0a61bbc7ad100c58a781565b60985481565b610ff782610644565b611000816111ae565b61100a83836112ab565b505050565b60976020528060005260406000206000915090508060000154908060010154908060020160009054906101000a9004600b0b9080600201600c9054906101000a9004600b0b908060030154908060040160009054906101000a900473ffffffffffffffffffffffffffffffffffffffff16908060040160149054906101000a900460ff16905087565b7f189ab7a9244df0848122154315af71fe140f3db0fe014031783b0946b8c9d2e381565b60008083426110cb91906126e8565b856bffffffffffffffffffffffff166110e4919061271c565b9050828111156110f857600091505061113d565b6000818461110691906126e8565b9050844261111491906126e8565b866bffffffffffffffffffffffff168261112e91906127a5565b61113891906127d6565b925050505b9392505050565b60007f01ffc9a7000000000000000000000000000000000000000000000000000000007bffffffffffffffffffffffffffffffffffffffffffffffffffffffff1916827bffffffffffffffffffffffffffffffffffffffffffffffffffffffff1916149050919050565b6111bf816111ba6112a3565b61167e565b50565b6111cc8282610e41565b61129f5760016065600084815260200190815260200160002060000160008373ffffffffffffffffffffffffffffffffffffffff1673ffffffffffffffffffffffffffffffffffffffff16815260200190815260200160002060006101000a81548160ff0219169083151502179055506112446112a3565b73ffffffffffffffffffffffffffffffffffffffff168173ffffffffffffffffffffffffffffffffffffffff16837f2f8788117e7eff1d82e926ec794901d17c78024a50270940304540a733656f0d60405160405180910390a45b5050565b600033905090565b6112b58282610e41565b156113895760006065600084815260200190815260200160002060000160008373ffffffffffffffffffffffffffffffffffffffff1673ffffffffffffffffffffffffffffffffffffffff16815260200190815260200160002060006101000a81548160ff02191690831515021790555061132e6112a3565b73ffffffffffffffffffffffffffffffffffffffff168173ffffffffffffffffffffffffffffffffffffffff16837ff6391f5c32d9c69d2a47ea670b442974b53935d1edc7fd64eb21e047a839171b60405160405180910390a45b5050565b60006113bb7f360894a13ba1a3210667c828492db98dca3e2076cc3735a920a3ca505d382bbc60001b61171b565b60000160009054906101000a900473ffffffffffffffffffffffffffffffffffffffff16905090565b7f189ab7a9244df0848122154315af71fe140f3db0fe014031783b0946b8c9d2e361140e816111ae565b5050565b61143e7f4910fdfa16fed3260ed0e7147f7cc6da11a60208b5b9406d12a635614ffd914360001b611725565b60000160009054906101000a900460ff16156114625761145d8361172f565b61157b565b8273ffffffffffffffffffffffffffffffffffffffff166352d1902d6040518163ffffffff1660e01b8152600401602060405180830381865afa9250505080156114ca57506040513d601f19601f820116820180604052508101906114c79190612841565b60015b611509576040517f08c379a0000000000000000000000000000000000000000000000000000000008152600401611500906128e0565b60405180910390fd5b7f360894a13ba1a3210667c828492db98dca3e2076cc3735a920a3ca505d382bbc60001b811461156e576040517f08c379a000000000000000000000000000000000000000000000000000000000815260040161156590612972565b60405180910390fd5b5061157a8383836117e8565b5b505050565b60008060019054906101000a900460ff16156115f75760018260ff161480156115af57506115ad30611814565b155b6115ee576040517f08c379a00000000000000000000000000000000000000000000000000000000081526004016115e590612a04565b60405180910390fd5b6000905061166b565b8160ff1660008054906101000a900460ff1660ff161061164c576040517f08c379a000000000000000000000000000000000000000000000000000000000815260040161164390612a04565b60405180910390fd5b816000806101000a81548160ff021916908360ff160217905550600190505b919050565b61167a82826111c2565b5050565b6116888282610e41565b611717576116ad8173ffffffffffffffffffffffffffffffffffffffff166014611837565b6116bb8360001c6020611837565b6040516020016116cc929190612b36565b6040516020818303038152906040526040517f08c379a000000000000000000000000000000000000000000000000000000000815260040161170e9190612ba9565b60405180910390fd5b5050565b6000819050919050565b6000819050919050565b61173881611a73565b611777576040517f08c379a000000000000000000000000000000000000000000000000000000000815260040161176e90612c3d565b60405180910390fd5b806117a47f360894a13ba1a3210667c828492db98dca3e2076cc3735a920a3ca505d382bbc60001b61171b565b60000160006101000a81548173ffffffffffffffffffffffffffffffffffffffff021916908373ffffffffffffffffffffffffffffffffffffffff16021790555050565b6117f183611a96565b6000825111806117fe5750805b1561180f5761180d8383611ae5565b505b505050565b6000808273ffffffffffffffffffffffffffffffffffffffff163b119050919050565b60606000600283600261184a919061271c565b61185491906127d6565b67ffffffffffffffff81111561186d5761186c611f64565b5b6040519080825280601f01601f19166020018201604052801561189f5781602001600182028036833780820191505090505b5090507f3000000000000000000000000000000000000000000000000000000000000000816000815181106118d7576118d6612c5d565b5b60200101907effffffffffffffffffffffffffffffffffffffffffffffffffffffffffffff1916908160001a9053507f78000000000000000000000000000000000000000000000000000000000000008160018151811061193b5761193a612c5d565b5b60200101907effffffffffffffffffffffffffffffffffffffffffffffffffffffffffffff1916908160001a9053506000600184600261197b919061271c565b61198591906127d6565b90505b6001811115611a25577f3031323334353637383961626364656600000000000000000000000000000000600f8616601081106119c7576119c6612c5d565b5b1a60f81b8282815181106119de576119dd612c5d565b5b60200101907effffffffffffffffffffffffffffffffffffffffffffffffffffffffffffff1916908160001a905350600485901c945080611a1e90612c8c565b9050611988565b5060008414611a69576040517f08c379a0000000000000000000000000000000000000000000000000000000008152600401611a6090612d01565b60405180910390fd5b8091505092915050565b6000808273ffffffffffffffffffffffffffffffffffffffff163b119050919050565b611a9f8161172f565b8073ffffffffffffffffffffffffffffffffffffffff167fbc7cd75a20ee27fd9adebab32041f755214dbc6bffa90cc0225b39da2e5c2d3b60405160405180910390a250565b6060611b0a8383604051806060016040528060278152602001612e1260279139611b12565b905092915050565b6060611b1d84611a73565b611b5c576040517f08c379a0000000000000000000000000000000000000000000000000000000008152600401611b5390612d93565b60405180910390fd5b6000808573ffffffffffffffffffffffffffffffffffffffff1685604051611b849190612dfa565b600060405180830381855af49150503d8060008114611bbf576040519150601f19603f3d011682016040523d82523d6000602084013e611bc4565b606091505b5091509150611bd4828286611bdf565b925050509392505050565b60608315611bef57829050611c3f565b600083511115611c025782518084602001fd5b816040517f08c379a0000000000000000000000000000000000000000000000000000000008152600401611c369190612ba9565b60405180910390fd5b9392505050565b6000604051905090565b600080fd5b600080fd5b60007fffffffff0000000000000000000000000000000000000000000000000000000082169050919050565b611c8f81611c5a565b8114611c9a57600080fd5b50565b600081359050611cac81611c86565b92915050565b600060208284031215611cc857611cc7611c50565b5b6000611cd684828501611c9d565b91505092915050565b60008115159050919050565b611cf481611cdf565b82525050565b6000602082019050611d0f6000830184611ceb565b92915050565b6000819050919050565b611d2881611d15565b8114611d3357600080fd5b50565b600081359050611d4581611d1f565b92915050565b600081600b0b9050919050565b611d6181611d4b565b8114611d6c57600080fd5b50565b600081359050611d7e81611d58565b92915050565b60008060408385031215611d9b57611d9a611c50565b5b6000611da985828601611d36565b9250506020611dba85828601611d6f565b9150509250929050565b6000819050919050565b611dd781611dc4565b8114611de257600080fd5b50565b600081359050611df481611dce565b92915050565b600060208284031215611e1057611e0f611c50565b5b6000611e1e84828501611de5565b91505092915050565b611e3081611dc4565b82525050565b6000602082019050611e4b6000830184611e27565b92915050565b600060208284031215611e6757611e66611c50565b5b6000611e7584828501611d36565b91505092915050565b600073ffffffffffffffffffffffffffffffffffffffff82169050919050565b6000611ea982611e7e565b9050919050565b611eb981611e9e565b8114611ec457600080fd5b50565b600081359050611ed681611eb0565b92915050565b60008060408385031215611ef357611ef2611c50565b5b6000611f0185828601611de5565b9250506020611f1285828601611ec7565b9150509250929050565b600060208284031215611f3257611f31611c50565b5b6000611f4084828501611ec7565b91505092915050565b600080fd5b600080fd5b6000601f19601f8301169050919050565b7f4e487b7100000000000000000000000000000000000000000000000000000000600052604160045260246000fd5b611f9c82611f53565b810181811067ffffffffffffffff82111715611fbb57611fba611f64565b5b80604052505050565b6000611fce611c46565b9050611fda8282611f93565b919050565b600067ffffffffffffffff821115611ffa57611ff9611f64565b5b61200382611f53565b9050602081019050919050565b82818337600083830152505050565b600061203261202d84611fdf565b611fc4565b90508281526020810184848401111561204e5761204d611f4e565b5b612059848285612010565b509392505050565b600082601f83011261207657612075611f49565b5b813561208684826020860161201f565b91505092915050565b600080604083850312156120a6576120a5611c50565b5b60006120b485828601611ec7565b925050602083013567ffffffffffffffff8111156120d5576120d4611c55565b5b6120e185828601612061565b9150509250929050565b6000806000806080858703121561210557612104611c50565b5b600061211387828801611d36565b945050602061212487828801611d36565b935050604061213587828801611d6f565b925050606061214687828801611ec7565b91505092959194509250565b61215b81611d15565b82525050565b60006020820190506121766000830184612152565b92915050565b61218581611d4b565b82525050565b61219481611e9e565b82525050565b7f4e487b7100000000000000000000000000000000000000000000000000000000600052602160045260246000fd5b600381106121da576121d961219a565b5b50565b60008190506121eb826121c9565b919050565b60006121fb826121dd565b9050919050565b61220b816121f0565b82525050565b600060e082019050612226600083018a612152565b6122336020830189612152565b612240604083018861217c565b61224d606083018761217c565b61225a6080830186612152565b61226760a083018561218b565b61227460c0830184612202565b98975050505050505050565b60008060006060848603121561229957612298611c50565b5b60006122a786828701611d6f565b93505060206122b886828701611d36565b92505060406122c986828701611d36565b9150509250925092565b600082825260208201905092915050565b7f4c6f616e4d616e616765723a444f45534e545f45584953545300000000000000600082015250565b600061231a6019836122d3565b9150612325826122e4565b602082019050919050565b600060208201905081810360008301526123498161230d565b9050919050565b7f4c6f616e4d616e616765723a494e56414c49445f464c4f575f52415445000000600082015250565b6000612386601d836122d3565b915061239182612350565b602082019050919050565b600060208201905081810360008301526123b581612379565b9050919050565b7f416363657373436f6e74726f6c3a2063616e206f6e6c792072656e6f756e636560008201527f20726f6c657320666f722073656c660000000000000000000000000000000000602082015250565b6000612418602f836122d3565b9150612423826123bc565b604082019050919050565b600060208201905081810360008301526124478161240b565b9050919050565b7f46756e6374696f6e206d7573742062652063616c6c6564207468726f7567682060008201527f64656c656761746563616c6c0000000000000000000000000000000000000000602082015250565b60006124aa602c836122d3565b91506124b58261244e565b604082019050919050565b600060208201905081810360008301526124d98161249d565b9050919050565b7f46756e6374696f6e206d7573742062652063616c6c6564207468726f7567682060008201527f6163746976652070726f78790000000000000000000000000000000000000000602082015250565b600061253c602c836122d3565b9150612547826124e0565b604082019050919050565b6000602082019050818103600083015261256b8161252f565b9050919050565b7f555550535570677261646561626c653a206d757374206e6f742062652063616c60008201527f6c6564207468726f7567682064656c656761746563616c6c0000000000000000602082015250565b60006125ce6038836122d3565b91506125d982612572565b604082019050919050565b600060208201905081810360008301526125fd816125c1565b9050919050565b7f4e487b7100000000000000000000000000000000000000000000000000000000600052601160045260246000fd5b600061263e82611d15565b91507fffffffffffffffffffffffffffffffffffffffffffffffffffffffffffffffff82036126705761266f612604565b5b600182019050919050565b6000819050919050565b600060ff82169050919050565b6000819050919050565b60006126b76126b26126ad8461267b565b612692565b612685565b9050919050565b6126c78161269c565b82525050565b60006020820190506126e260008301846126be565b92915050565b60006126f382611d15565b91506126fe83611d15565b92508282101561271157612710612604565b5b828203905092915050565b600061272782611d15565b915061273283611d15565b9250817fffffffffffffffffffffffffffffffffffffffffffffffffffffffffffffffff048311821515161561276b5761276a612604565b5b828202905092915050565b7f4e487b7100000000000000000000000000000000000000000000000000000000600052601260045260246000fd5b60006127b082611d15565b91506127bb83611d15565b9250826127cb576127ca612776565b5b828204905092915050565b60006127e182611d15565b91506127ec83611d15565b9250827fffffffffffffffffffffffffffffffffffffffffffffffffffffffffffffffff0382111561282157612820612604565b5b828201905092915050565b60008151905061283b81611dce565b92915050565b60006020828403121561285757612856611c50565b5b60006128658482850161282c565b91505092915050565b7f45524331393637557067726164653a206e657720696d706c656d656e7461746960008201527f6f6e206973206e6f742055555053000000000000000000000000000000000000602082015250565b60006128ca602e836122d3565b91506128d58261286e565b604082019050919050565b600060208201905081810360008301526128f9816128bd565b9050919050565b7f45524331393637557067726164653a20756e737570706f727465642070726f7860008201527f6961626c65555549440000000000000000000000000000000000000000000000602082015250565b600061295c6029836122d3565b915061296782612900565b604082019050919050565b6000602082019050818103600083015261298b8161294f565b9050919050565b7f496e697469616c697a61626c653a20636f6e747261637420697320616c72656160008201527f647920696e697469616c697a6564000000000000000000000000000000000000602082015250565b60006129ee602e836122d3565b91506129f982612992565b604082019050919050565b60006020820190508181036000830152612a1d816129e1565b9050919050565b600081905092915050565b7f416363657373436f6e74726f6c3a206163636f756e7420000000000000000000600082015250565b6000612a65601783612a24565b9150612a7082612a2f565b601782019050919050565b600081519050919050565b60005b83811015612aa4578082015181840152602081019050612a89565b83811115612ab3576000848401525b50505050565b6000612ac482612a7b565b612ace8185612a24565b9350612ade818560208601612a86565b80840191505092915050565b7f206973206d697373696e6720726f6c6520000000000000000000000000000000600082015250565b6000612b20601183612a24565b9150612b2b82612aea565b601182019050919050565b6000612b4182612a58565b9150612b4d8285612ab9565b9150612b5882612b13565b9150612b648284612ab9565b91508190509392505050565b6000612b7b82612a7b565b612b8581856122d3565b9350612b95818560208601612a86565b612b9e81611f53565b840191505092915050565b60006020820190508181036000830152612bc38184612b70565b905092915050565b7f455243313936373a206e657720696d706c656d656e746174696f6e206973206e60008201527f6f74206120636f6e747261637400000000000000000000000000000000000000602082015250565b6000612c27602d836122d3565b9150612c3282612bcb565b604082019050919050565b60006020820190508181036000830152612c5681612c1a565b9050919050565b7f4e487b7100000000000000000000000000000000000000000000000000000000600052603260045260246000fd5b6000612c9782611d15565b915060008203612caa57612ca9612604565b5b600182039050919050565b7f537472696e67733a20686578206c656e67746820696e73756666696369656e74600082015250565b6000612ceb6020836122d3565b9150612cf682612cb5565b602082019050919050565b60006020820190508181036000830152612d1a81612cde565b9050919050565b7f416464726573733a2064656c65676174652063616c6c20746f206e6f6e2d636f60008201527f6e74726163740000000000000000000000000000000000000000000000000000602082015250565b6000612d7d6026836122d3565b9150612d8882612d21565b604082019050919050565b60006020820190508181036000830152612dac81612d70565b9050919050565b600081519050919050565b600081905092915050565b6000612dd482612db3565b612dde8185612dbe565b9350612dee818560208601612a86565b80840191505092915050565b6000612e068284612dc9565b91508190509291505056fe416464726573733a206c6f772d6c6576656c2064656c65676174652063616c6c206661696c6564a2646970667358221220687622e3845534941412ccec14b0e0b692e219ec5f860bcef589db2277adfd4064736f6c634300080d0033",
  "linkReferences": {},
  "deployedLinkReferences": {}
}