{
  "_format": "hh-sol-artifact-1",
  "contractName": "ProtocolFactory",
  "sourceName": "contracts/ProtocolFactory.sol",
  "abi": [
    {
      "inputs": [
        {
          "internalType": "address",
          "name": "_loanManager",
          "type": "address"
        },
        {
          "internalType": "address",
          "name": "_lendingPool",
          "type": "address"
        }
      ],
      "stateMutability": "nonpayable",
      "type": "constructor"
    },
    {
      "anonymous": false,
      "inputs": [
        {
          "indexed": false,
          "internalType": "contract ILoanManager",
          "name": "manager",
          "type": "address"
        },
        {
          "indexed": false,
          "internalType": "contract ILendingPool",
          "name": "pool",
          "type": "address"
        },
        {
          "indexed": false,
          "internalType": "address",
          "name": "creator",
          "type": "address"
        }
      ],
      "name": "CreatedPortfolio",
      "type": "event"
    },
    {
      "anonymous": false,
      "inputs": [
        {
          "indexed": true,
          "internalType": "bytes32",
          "name": "role",
          "type": "bytes32"
        },
        {
          "indexed": true,
          "internalType": "bytes32",
          "name": "previousAdminRole",
          "type": "bytes32"
        },
        {
          "indexed": true,
          "internalType": "bytes32",
          "name": "newAdminRole",
          "type": "bytes32"
        }
      ],
      "name": "RoleAdminChanged",
      "type": "event"
    },
    {
      "anonymous": false,
      "inputs": [
        {
          "indexed": true,
          "internalType": "bytes32",
          "name": "role",
          "type": "bytes32"
        },
        {
          "indexed": true,
          "internalType": "address",
          "name": "account",
          "type": "address"
        },
        {
          "indexed": true,
          "internalType": "address",
          "name": "sender",
          "type": "address"
        }
      ],
      "name": "RoleGranted",
      "type": "event"
    },
    {
      "anonymous": false,
      "inputs": [
        {
          "indexed": true,
          "internalType": "bytes32",
          "name": "role",
          "type": "bytes32"
        },
        {
          "indexed": true,
          "internalType": "address",
          "name": "account",
          "type": "address"
        },
        {
          "indexed": true,
          "internalType": "address",
          "name": "sender",
          "type": "address"
        }
      ],
      "name": "RoleRevoked",
      "type": "event"
    },
    {
      "inputs": [],
      "name": "DEFAULT_ADMIN_ROLE",
      "outputs": [
        {
          "internalType": "bytes32",
          "name": "",
          "type": "bytes32"
        }
      ],
      "stateMutability": "view",
      "type": "function"
    },
    {
      "inputs": [],
      "name": "UPDATER_ROLE",
      "outputs": [
        {
          "internalType": "bytes32",
          "name": "",
          "type": "bytes32"
        }
      ],
      "stateMutability": "view",
      "type": "function"
    },
    {
      "inputs": [
        {
          "internalType": "contract ISuperfluid",
          "name": "_host",
          "type": "address"
        },
        {
          "internalType": "contract ISuperToken",
          "name": "_token",
          "type": "address"
        }
      ],
      "name": "createLoanManagerAndPool",
      "outputs": [
        {
          "internalType": "contract ILoanManager",
          "name": "manager",
          "type": "address"
        },
        {
          "internalType": "contract ILendingPool",
          "name": "pool",
          "type": "address"
        }
      ],
      "stateMutability": "nonpayable",
      "type": "function"
    },
    {
      "inputs": [
        {
          "internalType": "uint256",
          "name": "id",
          "type": "uint256"
        }
      ],
      "name": "getPortfolio",
      "outputs": [
        {
          "internalType": "contract ILoanManager",
          "name": "manager",
          "type": "address"
        },
        {
          "internalType": "contract ILendingPool",
          "name": "pool",
          "type": "address"
        }
      ],
      "stateMutability": "view",
      "type": "function"
    },
    {
      "inputs": [
        {
          "internalType": "bytes32",
          "name": "role",
          "type": "bytes32"
        }
      ],
      "name": "getRoleAdmin",
      "outputs": [
        {
          "internalType": "bytes32",
          "name": "",
          "type": "bytes32"
        }
      ],
      "stateMutability": "view",
      "type": "function"
    },
    {
      "inputs": [
        {
          "internalType": "bytes32",
          "name": "role",
          "type": "bytes32"
        },
        {
          "internalType": "address",
          "name": "account",
          "type": "address"
        }
      ],
      "name": "grantRole",
      "outputs": [],
      "stateMutability": "nonpayable",
      "type": "function"
    },
    {
      "inputs": [
        {
          "internalType": "bytes32",
          "name": "role",
          "type": "bytes32"
        },
        {
          "internalType": "address",
          "name": "account",
          "type": "address"
        }
      ],
      "name": "hasRole",
      "outputs": [
        {
          "internalType": "bool",
          "name": "",
          "type": "bool"
        }
      ],
      "stateMutability": "view",
      "type": "function"
    },
    {
      "inputs": [],
      "name": "lendingPoolImplementation",
      "outputs": [
        {
          "internalType": "address",
          "name": "",
          "type": "address"
        }
      ],
      "stateMutability": "view",
      "type": "function"
    },
    {
      "inputs": [],
      "name": "loanManagerImplementation",
      "outputs": [
        {
          "internalType": "address",
          "name": "",
          "type": "address"
        }
      ],
      "stateMutability": "view",
      "type": "function"
    },
    {
      "inputs": [],
      "name": "portfolioId",
      "outputs": [
        {
          "internalType": "uint256",
          "name": "",
          "type": "uint256"
        }
      ],
      "stateMutability": "view",
      "type": "function"
    },
    {
      "inputs": [
        {
          "internalType": "uint256",
          "name": "",
          "type": "uint256"
        }
      ],
      "name": "portfolios",
      "outputs": [
        {
          "internalType": "contract ILoanManager",
          "name": "manager",
          "type": "address"
        },
        {
          "internalType": "contract ILendingPool",
          "name": "pool",
          "type": "address"
        }
      ],
      "stateMutability": "view",
      "type": "function"
    },
    {
      "inputs": [
        {
          "internalType": "bytes32",
          "name": "role",
          "type": "bytes32"
        },
        {
          "internalType": "address",
          "name": "account",
          "type": "address"
        }
      ],
      "name": "renounceRole",
      "outputs": [],
      "stateMutability": "nonpayable",
      "type": "function"
    },
    {
      "inputs": [
        {
          "internalType": "bytes32",
          "name": "role",
          "type": "bytes32"
        },
        {
          "internalType": "address",
          "name": "account",
          "type": "address"
        }
      ],
      "name": "revokeRole",
      "outputs": [],
      "stateMutability": "nonpayable",
      "type": "function"
    },
    {
      "inputs": [
        {
          "internalType": "bytes4",
          "name": "interfaceId",
          "type": "bytes4"
        }
      ],
      "name": "supportsInterface",
      "outputs": [
        {
          "internalType": "bool",
          "name": "",
          "type": "bool"
        }
      ],
      "stateMutability": "view",
      "type": "function"
    },
    {
      "inputs": [
        {
          "internalType": "address",
          "name": "_lendingPool",
          "type": "address"
        }
      ],
      "name": "updateLendingPool",
      "outputs": [],
      "stateMutability": "nonpayable",
      "type": "function"
    },
    {
      "inputs": [
        {
          "internalType": "address",
          "name": "_loanManager",
          "type": "address"
        }
      ],
      "name": "updateLoanManager",
      "outputs": [],
      "stateMutability": "nonpayable",
      "type": "function"
    }
  ],
  "bytecode": "0x60806040523480156200001157600080fd5b5060405162002fba38038062002fba8339818101604052810190620000379190620002eb565b81600160006101000a81548173ffffffffffffffffffffffffffffffffffffffff021916908373ffffffffffffffffffffffffffffffffffffffff16021790555080600260006101000a81548173ffffffffffffffffffffffffffffffffffffffff021916908373ffffffffffffffffffffffffffffffffffffffff160217905550620000ce6000801b336200010860201b60201c565b620001007f73e573f9566d61418a34d5de3ff49360f9c51fec37f7486551670290f6285dab336200010860201b60201c565b505062000332565b6200011a82826200011e60201b60201c565b5050565b6200013082826200020f60201b60201c565b6200020b57600160008084815260200190815260200160002060000160008373ffffffffffffffffffffffffffffffffffffffff1673ffffffffffffffffffffffffffffffffffffffff16815260200190815260200160002060006101000a81548160ff021916908315150217905550620001b06200027960201b60201c565b73ffffffffffffffffffffffffffffffffffffffff168173ffffffffffffffffffffffffffffffffffffffff16837f2f8788117e7eff1d82e926ec794901d17c78024a50270940304540a733656f0d60405160405180910390a45b5050565b600080600084815260200190815260200160002060000160008373ffffffffffffffffffffffffffffffffffffffff1673ffffffffffffffffffffffffffffffffffffffff16815260200190815260200160002060009054906101000a900460ff16905092915050565b600033905090565b600080fd5b600073ffffffffffffffffffffffffffffffffffffffff82169050919050565b6000620002b38262000286565b9050919050565b620002c581620002a6565b8114620002d157600080fd5b50565b600081519050620002e581620002ba565b92915050565b6000806040838503121562000305576200030462000281565b5b60006200031585828601620002d4565b92505060206200032885828601620002d4565b9150509250929050565b612c7880620003426000396000f3fe60806040523480156200001157600080fd5b5060043610620001185760003560e01c80636614647a11620000a55780639863d077116200006f5780639863d077146200032a578063a217fddf146200034c578063d547741f146200036e578063e042386c146200038e5762000118565b80636614647a14620002795780636fc4455e146200029b578063794c059414620002bd57806391d1485414620002f45762000118565b806336568abe11620000e757806336568abe14620001c9578063367ca91414620001e957806347e63380146200022057806352d51c9a14620002425762000118565b806301ffc9a7146200011d5780630b9b1f9a1462000153578063248a9ca314620001735780632f2ff15d14620001a9575b600080fd5b6200013b6004803603810190620001359190620013cc565b620003ae565b6040516200014a91906200141b565b60405180910390f35b6200017160048036038101906200016b91906200149d565b6200042b565b005b6200019160048036038101906200018b91906200150a565b6200049c565b604051620001a091906200154d565b60405180910390f35b620001c76004803603810190620001c191906200156a565b620004bb565b005b620001e76004803603810190620001e191906200156a565b620004e2565b005b620002076004803603810190620002019190620015ec565b6200056c565b60405162000217929190620016ae565b60405180910390f35b6200022a620005d0565b6040516200023991906200154d565b60405180910390f35b6200026060048036038101906200025a919062001765565b620005f4565b60405162000270929190620016ae565b60405180910390f35b62000283620007f2565b604051620002929190620017bd565b60405180910390f35b620002a562000818565b604051620002b49190620017eb565b60405180910390f35b620002db6004803603810190620002d59190620015ec565b6200081e565b604051620002eb929190620016ae565b60405180910390f35b6200031260048036038101906200030c91906200156a565b6200094a565b6040516200032191906200141b565b60405180910390f35b62000334620009b4565b604051620003439190620017bd565b60405180910390f35b62000356620009da565b6040516200036591906200154d565b60405180910390f35b6200038c60048036038101906200038691906200156a565b620009e1565b005b620003ac6004803603810190620003a691906200149d565b62000a08565b005b60007f7965db0b000000000000000000000000000000000000000000000000000000007bffffffffffffffffffffffffffffffffffffffffffffffffffffffff1916827bffffffffffffffffffffffffffffffffffffffffffffffffffffffff19161480620004245750620004238262000a79565b5b9050919050565b7f73e573f9566d61418a34d5de3ff49360f9c51fec37f7486551670290f6285dab620004578162000ae3565b81600260006101000a81548173ffffffffffffffffffffffffffffffffffffffff021916908373ffffffffffffffffffffffffffffffffffffffff1602179055505050565b6000806000838152602001908152602001600020600101549050919050565b620004c6826200049c565b620004d18162000ae3565b620004dd838362000afb565b505050565b620004ec62000be0565b73ffffffffffffffffffffffffffffffffffffffff168173ffffffffffffffffffffffffffffffffffffffff16146200055c576040517f08c379a000000000000000000000000000000000000000000000000000000000815260040162000553906200188f565b60405180910390fd5b62000568828262000be8565b5050565b60046020528060005260406000206000915090508060000160009054906101000a900473ffffffffffffffffffffffffffffffffffffffff16908060010160009054906101000a900473ffffffffffffffffffffffffffffffffffffffff16905082565b7f73e573f9566d61418a34d5de3ff49360f9c51fec37f7486551670290f6285dab81565b60008060003390506200060985858362000cce565b9250620006198484878462000eb0565b915060405180604001604052808473ffffffffffffffffffffffffffffffffffffffff1681526020018373ffffffffffffffffffffffffffffffffffffffff1681525060046000600354815260200190815260200160002060008201518160000160006101000a81548173ffffffffffffffffffffffffffffffffffffffff021916908373ffffffffffffffffffffffffffffffffffffffff16021790555060208201518160010160006101000a81548173ffffffffffffffffffffffffffffffffffffffff021916908373ffffffffffffffffffffffffffffffffffffffff1602179055509050508273ffffffffffffffffffffffffffffffffffffffff16632f2ff15d7fb0a02d474211257da1bdb72ce7e91b05cbdc99ae0876cb0a61bbc7ad100c58a7846040518363ffffffff1660e01b81526004016200075f929190620018b1565b600060405180830381600087803b1580156200077a57600080fd5b505af11580156200078f573d6000803e3d6000fd5b5050505060036000815480929190620007a8906200190d565b91905055507fdf5cd10cca0149d32e158d78e604810e83ce7f67f4fa02461ed8b1e42517f839838383604051620007e2939291906200195a565b60405180910390a1509250929050565b600260009054906101000a900473ffffffffffffffffffffffffffffffffffffffff1681565b60035481565b600080600354831062000868576040517f08c379a00000000000000000000000000000000000000000000000000000000081526004016200085f90620019e7565b60405180910390fd5b6000600460008581526020019081526020016000206040518060400160405290816000820160009054906101000a900473ffffffffffffffffffffffffffffffffffffffff1673ffffffffffffffffffffffffffffffffffffffff1673ffffffffffffffffffffffffffffffffffffffff1681526020016001820160009054906101000a900473ffffffffffffffffffffffffffffffffffffffff1673ffffffffffffffffffffffffffffffffffffffff1673ffffffffffffffffffffffffffffffffffffffff16815250509050806000015192508060200151915050915091565b600080600084815260200190815260200160002060000160008373ffffffffffffffffffffffffffffffffffffffff1673ffffffffffffffffffffffffffffffffffffffff16815260200190815260200160002060009054906101000a900460ff16905092915050565b600160009054906101000a900473ffffffffffffffffffffffffffffffffffffffff1681565b6000801b81565b620009ec826200049c565b620009f78162000ae3565b62000a03838362000be8565b505050565b7f73e573f9566d61418a34d5de3ff49360f9c51fec37f7486551670290f6285dab62000a348162000ae3565b81600160006101000a81548173ffffffffffffffffffffffffffffffffffffffff021916908373ffffffffffffffffffffffffffffffffffffffff1602179055505050565b60007f01ffc9a7000000000000000000000000000000000000000000000000000000007bffffffffffffffffffffffffffffffffffffffffffffffffffffffff1916827bffffffffffffffffffffffffffffffffffffffffffffffffffffffff1916149050919050565b62000af88162000af262000be0565b62001059565b50565b62000b0782826200094a565b62000bdc57600160008084815260200190815260200160002060000160008373ffffffffffffffffffffffffffffffffffffffff1673ffffffffffffffffffffffffffffffffffffffff16815260200190815260200160002060006101000a81548160ff02191690831515021790555062000b8162000be0565b73ffffffffffffffffffffffffffffffffffffffff168173ffffffffffffffffffffffffffffffffffffffff16837f2f8788117e7eff1d82e926ec794901d17c78024a50270940304540a733656f0d60405160405180910390a45b5050565b600033905090565b62000bf482826200094a565b1562000cca57600080600084815260200190815260200160002060000160008373ffffffffffffffffffffffffffffffffffffffff1673ffffffffffffffffffffffffffffffffffffffff16815260200190815260200160002060006101000a81548160ff02191690831515021790555062000c6f62000be0565b73ffffffffffffffffffffffffffffffffffffffff168173ffffffffffffffffffffffffffffffffffffffff16837ff6391f5c32d9c69d2a47ea670b442974b53935d1edc7fd64eb21e047a839171b60405160405180910390a45b5050565b600080638129fc1c60e01b604051602401604051602081830303815290604052907bffffffffffffffffffffffffffffffffffffffffffffffffffffffff19166020820180517bffffffffffffffffffffffffffffffffffffffffffffffffffffffff8381831617835250505050905060007f189ab7a9244df0848122154315af71fe140f3db0fe014031783b0946b8c9d2e39050600160009054906101000a900473ffffffffffffffffffffffffffffffffffffffff168260405162000d95906200135c565b62000da292919062001aad565b604051809103906000f08015801562000dbf573d6000803e3d6000fd5b5092508273ffffffffffffffffffffffffffffffffffffffff16632f2ff15d82866040518363ffffffff1660e01b815260040162000dff929190620018b1565b600060405180830381600087803b15801562000e1a57600080fd5b505af115801562000e2f573d6000803e3d6000fd5b505050508273ffffffffffffffffffffffffffffffffffffffff16632f2ff15d6000801b866040518363ffffffff1660e01b815260040162000e73929190620018b1565b600060405180830381600087803b15801562000e8e57600080fd5b505af115801562000ea3573d6000803e3d6000fd5b5050505050509392505050565b60008063c0c53b8b60e01b86868660405160240162000ed29392919062001b2b565b604051602081830303815290604052907bffffffffffffffffffffffffffffffffffffffffffffffffffffffff19166020820180517bffffffffffffffffffffffffffffffffffffffffffffffffffffffff8381831617835250505050905060007f8f4f2da22e8ac8f11e15f9fc141cddbb5deea8800186560abb6e68c5496619a9905060007f241ecf16d79d0f8dbfb92cbc07fe17840425976cf0667f022fe9877caa831b089050600260009054906101000a900473ffffffffffffffffffffffffffffffffffffffff168360405162000fad906200135c565b62000fba92919062001aad565b604051809103906000f08015801562000fd7573d6000803e3d6000fd5b5093508373ffffffffffffffffffffffffffffffffffffffff16632f2ff15d6000801b876040518363ffffffff1660e01b81526004016200101a929190620018b1565b600060405180830381600087803b1580156200103557600080fd5b505af11580156200104a573d6000803e3d6000fd5b50505050505050949350505050565b6200106582826200094a565b620010fd576200108d8173ffffffffffffffffffffffffffffffffffffffff16601462001101565b6200109d8360001c602062001101565b604051602001620010b092919062001c55565b6040516020818303038152906040526040517f08c379a0000000000000000000000000000000000000000000000000000000008152600401620010f4919062001cd8565b60405180910390fd5b5050565b60606000600283600262001116919062001cfc565b62001122919062001d5d565b67ffffffffffffffff8111156200113e576200113d62001dba565b5b6040519080825280601f01601f191660200182016040528015620011715781602001600182028036833780820191505090505b5090507f300000000000000000000000000000000000000000000000000000000000000081600081518110620011ac57620011ab62001de9565b5b60200101907effffffffffffffffffffffffffffffffffffffffffffffffffffffffffffff1916908160001a9053507f78000000000000000000000000000000000000000000000000000000000000008160018151811062001213576200121262001de9565b5b60200101907effffffffffffffffffffffffffffffffffffffffffffffffffffffffffffff1916908160001a9053506000600184600262001255919062001cfc565b62001261919062001d5d565b90505b60018111156200130b577f3031323334353637383961626364656600000000000000000000000000000000600f861660108110620012a757620012a662001de9565b5b1a60f81b828281518110620012c157620012c062001de9565b5b60200101907effffffffffffffffffffffffffffffffffffffffffffffffffffffffffffff1916908160001a905350600485901c945080620013039062001e18565b905062001264565b506000841462001352576040517f08c379a0000000000000000000000000000000000000000000000000000000008152600401620013499062001e96565b60405180910390fd5b8091505092915050565b610d8a8062001eb983390190565b600080fd5b60007fffffffff0000000000000000000000000000000000000000000000000000000082169050919050565b620013a6816200136f565b8114620013b257600080fd5b50565b600081359050620013c6816200139b565b92915050565b600060208284031215620013e557620013e46200136a565b5b6000620013f584828501620013b5565b91505092915050565b60008115159050919050565b6200141581620013fe565b82525050565b60006020820190506200143260008301846200140a565b92915050565b600073ffffffffffffffffffffffffffffffffffffffff82169050919050565b6000620014658262001438565b9050919050565b620014778162001458565b81146200148357600080fd5b50565b60008135905062001497816200146c565b92915050565b600060208284031215620014b657620014b56200136a565b5b6000620014c68482850162001486565b91505092915050565b6000819050919050565b620014e481620014cf565b8114620014f057600080fd5b50565b6000813590506200150481620014d9565b92915050565b6000602082840312156200152357620015226200136a565b5b60006200153384828501620014f3565b91505092915050565b6200154781620014cf565b82525050565b60006020820190506200156460008301846200153c565b92915050565b600080604083850312156200158457620015836200136a565b5b60006200159485828601620014f3565b9250506020620015a78582860162001486565b9150509250929050565b6000819050919050565b620015c681620015b1565b8114620015d257600080fd5b50565b600081359050620015e681620015bb565b92915050565b6000602082840312156200160557620016046200136a565b5b60006200161584828501620015d5565b91505092915050565b6000819050919050565b600062001649620016436200163d8462001438565b6200161e565b62001438565b9050919050565b60006200165d8262001628565b9050919050565b6000620016718262001650565b9050919050565b620016838162001664565b82525050565b6000620016968262001650565b9050919050565b620016a88162001689565b82525050565b6000604082019050620016c5600083018562001678565b620016d460208301846200169d565b9392505050565b6000620016e88262001458565b9050919050565b620016fa81620016db565b81146200170657600080fd5b50565b6000813590506200171a81620016ef565b92915050565b60006200172d8262001458565b9050919050565b6200173f8162001720565b81146200174b57600080fd5b50565b6000813590506200175f8162001734565b92915050565b600080604083850312156200177f576200177e6200136a565b5b60006200178f8582860162001709565b9250506020620017a2858286016200174e565b9150509250929050565b620017b78162001458565b82525050565b6000602082019050620017d46000830184620017ac565b92915050565b620017e581620015b1565b82525050565b6000602082019050620018026000830184620017da565b92915050565b600082825260208201905092915050565b7f416363657373436f6e74726f6c3a2063616e206f6e6c792072656e6f756e636560008201527f20726f6c657320666f722073656c660000000000000000000000000000000000602082015250565b600062001877602f8362001808565b9150620018848262001819565b604082019050919050565b60006020820190508181036000830152620018aa8162001868565b9050919050565b6000604082019050620018c860008301856200153c565b620018d76020830184620017ac565b9392505050565b7f4e487b7100000000000000000000000000000000000000000000000000000000600052601160045260246000fd5b60006200191a82620015b1565b91507fffffffffffffffffffffffffffffffffffffffffffffffffffffffffffffffff82036200194f576200194e620018de565b5b600182019050919050565b600060608201905062001971600083018662001678565b6200198060208301856200169d565b6200198f6040830184620017ac565b949350505050565b7f50726f746f636f6c466163746f72793a444f45534e545f455849535453000000600082015250565b6000620019cf601d8362001808565b9150620019dc8262001997565b602082019050919050565b6000602082019050818103600083015262001a0281620019c0565b9050919050565b600081519050919050565b600082825260208201905092915050565b60005b8381101562001a4557808201518184015260208101905062001a28565b8381111562001a55576000848401525b50505050565b6000601f19601f8301169050919050565b600062001a798262001a09565b62001a85818562001a14565b935062001a9781856020860162001a25565b62001aa28162001a5b565b840191505092915050565b600060408201905062001ac46000830185620017ac565b818103602083015262001ad8818462001a6c565b90509392505050565b600062001aee8262001650565b9050919050565b62001b008162001ae1565b82525050565b600062001b138262001650565b9050919050565b62001b258162001b06565b82525050565b600060608201905062001b42600083018662001af5565b62001b51602083018562001678565b62001b60604083018462001b1a565b949350505050565b600081905092915050565b7f416363657373436f6e74726f6c3a206163636f756e7420000000000000000000600082015250565b600062001bab60178362001b68565b915062001bb88262001b73565b601782019050919050565b600081519050919050565b600062001bdb8262001bc3565b62001be7818562001b68565b935062001bf981856020860162001a25565b80840191505092915050565b7f206973206d697373696e6720726f6c6520000000000000000000000000000000600082015250565b600062001c3d60118362001b68565b915062001c4a8262001c05565b601182019050919050565b600062001c628262001b9c565b915062001c70828562001bce565b915062001c7d8262001c2e565b915062001c8b828462001bce565b91508190509392505050565b600062001ca48262001bc3565b62001cb0818562001808565b935062001cc281856020860162001a25565b62001ccd8162001a5b565b840191505092915050565b6000602082019050818103600083015262001cf4818462001c97565b905092915050565b600062001d0982620015b1565b915062001d1683620015b1565b9250817fffffffffffffffffffffffffffffffffffffffffffffffffffffffffffffffff048311821515161562001d525762001d51620018de565b5b828202905092915050565b600062001d6a82620015b1565b915062001d7783620015b1565b9250827fffffffffffffffffffffffffffffffffffffffffffffffffffffffffffffffff0382111562001daf5762001dae620018de565b5b828201905092915050565b7f4e487b7100000000000000000000000000000000000000000000000000000000600052604160045260246000fd5b7f4e487b7100000000000000000000000000000000000000000000000000000000600052603260045260246000fd5b600062001e2582620015b1565b91506000820362001e3b5762001e3a620018de565b5b600182039050919050565b7f537472696e67733a20686578206c656e67746820696e73756666696369656e74600082015250565b600062001e7e60208362001808565b915062001e8b8262001e46565b602082019050919050565b6000602082019050818103600083015262001eb18162001e6f565b905091905056fe608060405260405162000d8a38038062000d8a8339818101604052810190620000299190620005d8565b818160017f360894a13ba1a3210667c828492db98dca3e2076cc3735a920a3ca505d382bbd60001c6200005d919062000677565b60001b7f360894a13ba1a3210667c828492db98dca3e2076cc3735a920a3ca505d382bbc60001b14620000955762000094620006b2565b5b620000a982826000620000b360201b60201c565b50505050620008f8565b620000c483620000f660201b60201c565b600082511180620000d25750805b15620000f157620000ef83836200014d60201b620000371760201c565b505b505050565b62000107816200018360201b60201c565b8073ffffffffffffffffffffffffffffffffffffffff167fbc7cd75a20ee27fd9adebab32041f755214dbc6bffa90cc0225b39da2e5c2d3b60405160405180910390a250565b60606200017b838360405180606001604052806027815260200162000d63602791396200025960201b60201c565b905092915050565b62000199816200033d60201b620000641760201c565b620001db576040517f08c379a0000000000000000000000000000000000000000000000000000000008152600401620001d29062000768565b60405180910390fd5b80620002157f360894a13ba1a3210667c828492db98dca3e2076cc3735a920a3ca505d382bbc60001b6200036060201b620000871760201c565b60000160006101000a81548173ffffffffffffffffffffffffffffffffffffffff021916908373ffffffffffffffffffffffffffffffffffffffff16021790555050565b60606200026c846200033d60201b60201c565b620002ae576040517f08c379a0000000000000000000000000000000000000000000000000000000008152600401620002a59062000800565b60405180910390fd5b6000808573ffffffffffffffffffffffffffffffffffffffff1685604051620002d891906200086f565b600060405180830381855af49150503d806000811462000315576040519150601f19603f3d011682016040523d82523d6000602084013e6200031a565b606091505b5091509150620003328282866200036a60201b60201c565b925050509392505050565b6000808273ffffffffffffffffffffffffffffffffffffffff163b119050919050565b6000819050919050565b606083156200037c57829050620003cf565b600083511115620003905782518084602001fd5b816040517f08c379a0000000000000000000000000000000000000000000000000000000008152600401620003c69190620008d4565b60405180910390fd5b9392505050565b6000604051905090565b600080fd5b600080fd5b600073ffffffffffffffffffffffffffffffffffffffff82169050919050565b60006200041782620003ea565b9050919050565b62000429816200040a565b81146200043557600080fd5b50565b60008151905062000449816200041e565b92915050565b600080fd5b600080fd5b6000601f19601f8301169050919050565b7f4e487b7100000000000000000000000000000000000000000000000000000000600052604160045260246000fd5b620004a48262000459565b810181811067ffffffffffffffff82111715620004c657620004c56200046a565b5b80604052505050565b6000620004db620003d6565b9050620004e9828262000499565b919050565b600067ffffffffffffffff8211156200050c576200050b6200046a565b5b620005178262000459565b9050602081019050919050565b60005b838110156200054457808201518184015260208101905062000527565b8381111562000554576000848401525b50505050565b6000620005716200056b84620004ee565b620004cf565b90508281526020810184848401111562000590576200058f62000454565b5b6200059d84828562000524565b509392505050565b600082601f830112620005bd57620005bc6200044f565b5b8151620005cf8482602086016200055a565b91505092915050565b60008060408385031215620005f257620005f1620003e0565b5b6000620006028582860162000438565b925050602083015167ffffffffffffffff811115620006265762000625620003e5565b5b6200063485828601620005a5565b9150509250929050565b6000819050919050565b7f4e487b7100000000000000000000000000000000000000000000000000000000600052601160045260246000fd5b600062000684826200063e565b915062000691836200063e565b925082821015620006a757620006a662000648565b5b828203905092915050565b7f4e487b7100000000000000000000000000000000000000000000000000000000600052600160045260246000fd5b600082825260208201905092915050565b7f455243313936373a206e657720696d706c656d656e746174696f6e206973206e60008201527f6f74206120636f6e747261637400000000000000000000000000000000000000602082015250565b600062000750602d83620006e1565b91506200075d82620006f2565b604082019050919050565b60006020820190508181036000830152620007838162000741565b9050919050565b7f416464726573733a2064656c65676174652063616c6c20746f206e6f6e2d636f60008201527f6e74726163740000000000000000000000000000000000000000000000000000602082015250565b6000620007e8602683620006e1565b9150620007f5826200078a565b604082019050919050565b600060208201905081810360008301526200081b81620007d9565b9050919050565b600081519050919050565b600081905092915050565b6000620008458262000822565b6200085181856200082d565b93506200086381856020860162000524565b80840191505092915050565b60006200087d828462000838565b915081905092915050565b600081519050919050565b6000620008a08262000888565b620008ac8185620006e1565b9350620008be81856020860162000524565b620008c98162000459565b840191505092915050565b60006020820190508181036000830152620008f0818462000893565b905092915050565b61045b80620009086000396000f3fe6080604052366100135761001161001d565b005b61001b61001d565b005b610025610091565b610035610030610093565b6100a2565b565b606061005c83836040518060600160405280602781526020016103ff602791396100c8565b905092915050565b6000808273ffffffffffffffffffffffffffffffffffffffff163b119050919050565b6000819050919050565b565b600061009d610195565b905090565b3660008037600080366000845af43d6000803e80600081146100c3573d6000f35b3d6000fd5b60606100d384610064565b610112576040517f08c379a0000000000000000000000000000000000000000000000000000000008152600401610109906102d6565b60405180910390fd5b6000808573ffffffffffffffffffffffffffffffffffffffff168560405161013a9190610370565b600060405180830381855af49150503d8060008114610175576040519150601f19603f3d011682016040523d82523d6000602084013e61017a565b606091505b509150915061018a8282866101ec565b925050509392505050565b60006101c37f360894a13ba1a3210667c828492db98dca3e2076cc3735a920a3ca505d382bbc60001b610087565b60000160009054906101000a900473ffffffffffffffffffffffffffffffffffffffff16905090565b606083156101fc5782905061024c565b60008351111561020f5782518084602001fd5b816040517f08c379a000000000000000000000000000000000000000000000000000000000815260040161024391906103dc565b60405180910390fd5b9392505050565b600082825260208201905092915050565b7f416464726573733a2064656c65676174652063616c6c20746f206e6f6e2d636f60008201527f6e74726163740000000000000000000000000000000000000000000000000000602082015250565b60006102c0602683610253565b91506102cb82610264565b604082019050919050565b600060208201905081810360008301526102ef816102b3565b9050919050565b600081519050919050565b600081905092915050565b60005b8381101561032a57808201518184015260208101905061030f565b83811115610339576000848401525b50505050565b600061034a826102f6565b6103548185610301565b935061036481856020860161030c565b80840191505092915050565b600061037c828461033f565b915081905092915050565b600081519050919050565b6000601f19601f8301169050919050565b60006103ae82610387565b6103b88185610253565b93506103c881856020860161030c565b6103d181610392565b840191505092915050565b600060208201905081810360008301526103f681846103a3565b90509291505056fe416464726573733a206c6f772d6c6576656c2064656c65676174652063616c6c206661696c6564a26469706673582212208c5c2297a69291f2976d8136531db4a22b75c1a4b499f167b4472e334e234ff264736f6c634300080d0033416464726573733a206c6f772d6c6576656c2064656c65676174652063616c6c206661696c6564a26469706673582212206291c21a77ab1404b70f03df28d3166e26af655eac367503eb0f3e34cc2138fc64736f6c634300080d0033",
  "linkReferences": {},
  "deployedLinkReferences": {}
}