{
  "_format": "hh-sol-artifact-1",
  "contractName": "Superfluid",
  "sourceName": "@superfluid-finance/ethereum-contracts/contracts/superfluid/Superfluid.sol",
  "abi": [
    {
      "inputs": [
        {
          "internalType": "bool",
          "name": "nonUpgradable",
          "type": "bool"
        },
        {
          "internalType": "bool",
          "name": "appWhiteListingEnabled",
          "type": "bool"
        }
      ],
      "stateMutability": "nonpayable",
      "type": "constructor"
    },
    {
      "anonymous": false,
      "inputs": [
        {
          "indexed": false,
          "internalType": "bytes32",
          "name": "agreementType",
          "type": "bytes32"
        },
        {
          "indexed": false,
          "internalType": "address",
          "name": "code",
          "type": "address"
        }
      ],
      "name": "AgreementClassRegistered",
      "type": "event"
    },
    {
      "anonymous": false,
      "inputs": [
        {
          "indexed": false,
          "internalType": "bytes32",
          "name": "agreementType",
          "type": "bytes32"
        },
        {
          "indexed": false,
          "internalType": "address",
          "name": "code",
          "type": "address"
        }
      ],
      "name": "AgreementClassUpdated",
      "type": "event"
    },
    {
      "anonymous": false,
      "inputs": [
        {
          "indexed": true,
          "internalType": "contract ISuperApp",
          "name": "app",
          "type": "address"
        }
      ],
      "name": "AppRegistered",
      "type": "event"
    },
    {
      "anonymous": false,
      "inputs": [
        {
          "indexed": false,
          "internalType": "bytes32",
          "name": "uuid",
          "type": "bytes32"
        },
        {
          "indexed": false,
          "internalType": "address",
          "name": "codeAddress",
          "type": "address"
        }
      ],
      "name": "CodeUpdated",
      "type": "event"
    },
    {
      "anonymous": false,
      "inputs": [
        {
          "indexed": false,
          "internalType": "contract ISuperfluidGovernance",
          "name": "oldGov",
          "type": "address"
        },
        {
          "indexed": false,
          "internalType": "contract ISuperfluidGovernance",
          "name": "newGov",
          "type": "address"
        }
      ],
      "name": "GovernanceReplaced",
      "type": "event"
    },
    {
      "anonymous": false,
      "inputs": [
        {
          "indexed": false,
          "internalType": "uint8",
          "name": "version",
          "type": "uint8"
        }
      ],
      "name": "Initialized",
      "type": "event"
    },
    {
      "anonymous": false,
      "inputs": [
        {
          "indexed": true,
          "internalType": "contract ISuperApp",
          "name": "app",
          "type": "address"
        },
        {
          "indexed": false,
          "internalType": "uint256",
          "name": "reason",
          "type": "uint256"
        }
      ],
      "name": "Jail",
      "type": "event"
    },
    {
      "anonymous": false,
      "inputs": [
        {
          "indexed": false,
          "internalType": "contract ISuperTokenFactory",
          "name": "newFactory",
          "type": "address"
        }
      ],
      "name": "SuperTokenFactoryUpdated",
      "type": "event"
    },
    {
      "anonymous": false,
      "inputs": [
        {
          "indexed": true,
          "internalType": "contract ISuperToken",
          "name": "token",
          "type": "address"
        },
        {
          "indexed": false,
          "internalType": "address",
          "name": "code",
          "type": "address"
        }
      ],
      "name": "SuperTokenLogicUpdated",
      "type": "event"
    },
    {
      "inputs": [],
      "name": "APP_WHITE_LISTING_ENABLED",
      "outputs": [
        {
          "internalType": "bool",
          "name": "",
          "type": "bool"
        }
      ],
      "stateMutability": "view",
      "type": "function"
    },
    {
      "inputs": [],
      "name": "CALLBACK_GAS_LIMIT",
      "outputs": [
        {
          "internalType": "uint64",
          "name": "",
          "type": "uint64"
        }
      ],
      "stateMutability": "view",
      "type": "function"
    },
    {
      "inputs": [],
      "name": "MAX_APP_LEVEL",
      "outputs": [
        {
          "internalType": "uint256",
          "name": "",
          "type": "uint256"
        }
      ],
      "stateMutability": "view",
      "type": "function"
    },
    {
      "inputs": [],
      "name": "NON_UPGRADABLE_DEPLOYMENT",
      "outputs": [
        {
          "internalType": "bool",
          "name": "",
          "type": "bool"
        }
      ],
      "stateMutability": "view",
      "type": "function"
    },
    {
      "inputs": [
        {
          "internalType": "uint256",
          "name": "bitmap",
          "type": "uint256"
        },
        {
          "internalType": "bytes32",
          "name": "agreementType",
          "type": "bytes32"
        }
      ],
      "name": "addToAgreementClassesBitmap",
      "outputs": [
        {
          "internalType": "uint256",
          "name": "newBitmap",
          "type": "uint256"
        }
      ],
      "stateMutability": "view",
      "type": "function"
    },
    {
      "inputs": [
        {
          "internalType": "contract ISuperApp",
          "name": "targetApp",
          "type": "address"
        }
      ],
      "name": "allowCompositeApp",
      "outputs": [],
      "stateMutability": "nonpayable",
      "type": "function"
    },
    {
      "inputs": [
        {
          "internalType": "bytes",
          "name": "ctx",
          "type": "bytes"
        },
        {
          "internalType": "int256",
          "name": "appAllowanceUsedDelta",
          "type": "int256"
        }
      ],
      "name": "appCallbackPop",
      "outputs": [
        {
          "internalType": "bytes",
          "name": "newCtx",
          "type": "bytes"
        }
      ],
      "stateMutability": "nonpayable",
      "type": "function"
    },
    {
      "inputs": [
        {
          "internalType": "bytes",
          "name": "ctx",
          "type": "bytes"
        },
        {
          "internalType": "contract ISuperApp",
          "name": "app",
          "type": "address"
        },
        {
          "internalType": "uint256",
          "name": "appAllowanceGranted",
          "type": "uint256"
        },
        {
          "internalType": "int256",
          "name": "appAllowanceUsed",
          "type": "int256"
        },
        {
          "internalType": "contract ISuperfluidToken",
          "name": "appAllowanceToken",
          "type": "address"
        }
      ],
      "name": "appCallbackPush",
      "outputs": [
        {
          "internalType": "bytes",
          "name": "appCtx",
          "type": "bytes"
        }
      ],
      "stateMutability": "nonpayable",
      "type": "function"
    },
    {
      "inputs": [
        {
          "components": [
            {
              "internalType": "uint32",
              "name": "operationType",
              "type": "uint32"
            },
            {
              "internalType": "address",
              "name": "target",
              "type": "address"
            },
            {
              "internalType": "bytes",
              "name": "data",
              "type": "bytes"
            }
          ],
          "internalType": "struct ISuperfluid.Operation[]",
          "name": "operations",
          "type": "tuple[]"
        }
      ],
      "name": "batchCall",
      "outputs": [],
      "stateMutability": "nonpayable",
      "type": "function"
    },
    {
      "inputs": [
        {
          "internalType": "contract ISuperAgreement",
          "name": "agreementClass",
          "type": "address"
        },
        {
          "internalType": "bytes",
          "name": "callData",
          "type": "bytes"
        },
        {
          "internalType": "bytes",
          "name": "userData",
          "type": "bytes"
        }
      ],
      "name": "callAgreement",
      "outputs": [
        {
          "internalType": "bytes",
          "name": "returnedData",
          "type": "bytes"
        }
      ],
      "stateMutability": "nonpayable",
      "type": "function"
    },
    {
      "inputs": [
        {
          "internalType": "contract ISuperAgreement",
          "name": "agreementClass",
          "type": "address"
        },
        {
          "internalType": "bytes",
          "name": "callData",
          "type": "bytes"
        },
        {
          "internalType": "bytes",
          "name": "userData",
          "type": "bytes"
        },
        {
          "internalType": "bytes",
          "name": "ctx",
          "type": "bytes"
        }
      ],
      "name": "callAgreementWithContext",
      "outputs": [
        {
          "internalType": "bytes",
          "name": "newCtx",
          "type": "bytes"
        },
        {
          "internalType": "bytes",
          "name": "returnedData",
          "type": "bytes"
        }
      ],
      "stateMutability": "nonpayable",
      "type": "function"
    },
    {
      "inputs": [
        {
          "internalType": "contract ISuperApp",
          "name": "app",
          "type": "address"
        },
        {
          "internalType": "bytes",
          "name": "callData",
          "type": "bytes"
        }
      ],
      "name": "callAppAction",
      "outputs": [
        {
          "internalType": "bytes",
          "name": "returnedData",
          "type": "bytes"
        }
      ],
      "stateMutability": "nonpayable",
      "type": "function"
    },
    {
      "inputs": [
        {
          "internalType": "contract ISuperApp",
          "name": "app",
          "type": "address"
        },
        {
          "internalType": "bytes",
          "name": "callData",
          "type": "bytes"
        },
        {
          "internalType": "bytes",
          "name": "ctx",
          "type": "bytes"
        }
      ],
      "name": "callAppActionWithContext",
      "outputs": [
        {
          "internalType": "bytes",
          "name": "newCtx",
          "type": "bytes"
        }
      ],
      "stateMutability": "nonpayable",
      "type": "function"
    },
    {
      "inputs": [
        {
          "internalType": "contract ISuperApp",
          "name": "app",
          "type": "address"
        },
        {
          "internalType": "bytes",
          "name": "callData",
          "type": "bytes"
        },
        {
          "internalType": "bool",
          "name": "isTermination",
          "type": "bool"
        },
        {
          "internalType": "bytes",
          "name": "ctx",
          "type": "bytes"
        }
      ],
      "name": "callAppAfterCallback",
      "outputs": [
        {
          "internalType": "bytes",
          "name": "newCtx",
          "type": "bytes"
        }
      ],
      "stateMutability": "nonpayable",
      "type": "function"
    },
    {
      "inputs": [
        {
          "internalType": "contract ISuperApp",
          "name": "app",
          "type": "address"
        },
        {
          "internalType": "bytes",
          "name": "callData",
          "type": "bytes"
        },
        {
          "internalType": "bool",
          "name": "isTermination",
          "type": "bool"
        },
        {
          "internalType": "bytes",
          "name": "ctx",
          "type": "bytes"
        }
      ],
      "name": "callAppBeforeCallback",
      "outputs": [
        {
          "internalType": "bytes",
          "name": "cbdata",
          "type": "bytes"
        }
      ],
      "stateMutability": "nonpayable",
      "type": "function"
    },
    {
      "inputs": [
        {
          "internalType": "bytes",
          "name": "ctx",
          "type": "bytes"
        },
        {
          "internalType": "uint256",
          "name": "appAllowanceWantedMore",
          "type": "uint256"
        },
        {
          "internalType": "int256",
          "name": "appAllowanceUsedDelta",
          "type": "int256"
        }
      ],
      "name": "ctxUseAllowance",
      "outputs": [
        {
          "internalType": "bytes",
          "name": "newCtx",
          "type": "bytes"
        }
      ],
      "stateMutability": "nonpayable",
      "type": "function"
    },
    {
      "inputs": [
        {
          "internalType": "bytes",
          "name": "ctx",
          "type": "bytes"
        }
      ],
      "name": "decodeCtx",
      "outputs": [
        {
          "components": [
            {
              "internalType": "uint8",
              "name": "appLevel",
              "type": "uint8"
            },
            {
              "internalType": "uint8",
              "name": "callType",
              "type": "uint8"
            },
            {
              "internalType": "uint256",
              "name": "timestamp",
              "type": "uint256"
            },
            {
              "internalType": "address",
              "name": "msgSender",
              "type": "address"
            },
            {
              "internalType": "bytes4",
              "name": "agreementSelector",
              "type": "bytes4"
            },
            {
              "internalType": "bytes",
              "name": "userData",
              "type": "bytes"
            },
            {
              "internalType": "uint256",
              "name": "appAllowanceGranted",
              "type": "uint256"
            },
            {
              "internalType": "uint256",
              "name": "appAllowanceWanted",
              "type": "uint256"
            },
            {
              "internalType": "int256",
              "name": "appAllowanceUsed",
              "type": "int256"
            },
            {
              "internalType": "address",
              "name": "appAddress",
              "type": "address"
            },
            {
              "internalType": "contract ISuperfluidToken",
              "name": "appAllowanceToken",
              "type": "address"
            }
          ],
          "internalType": "struct ISuperfluid.Context",
          "name": "context",
          "type": "tuple"
        }
      ],
      "stateMutability": "pure",
      "type": "function"
    },
    {
      "inputs": [
        {
          "components": [
            {
              "internalType": "uint32",
              "name": "operationType",
              "type": "uint32"
            },
            {
              "internalType": "address",
              "name": "target",
              "type": "address"
            },
            {
              "internalType": "bytes",
              "name": "data",
              "type": "bytes"
            }
          ],
          "internalType": "struct ISuperfluid.Operation[]",
          "name": "operations",
          "type": "tuple[]"
        }
      ],
      "name": "forwardBatchCall",
      "outputs": [],
      "stateMutability": "nonpayable",
      "type": "function"
    },
    {
      "inputs": [
        {
          "internalType": "bytes32",
          "name": "agreementType",
          "type": "bytes32"
        }
      ],
      "name": "getAgreementClass",
      "outputs": [
        {
          "internalType": "contract ISuperAgreement",
          "name": "agreementClass",
          "type": "address"
        }
      ],
      "stateMutability": "view",
      "type": "function"
    },
    {
      "inputs": [
        {
          "internalType": "contract ISuperApp",
          "name": "appAddr",
          "type": "address"
        }
      ],
      "name": "getAppLevel",
      "outputs": [
        {
          "internalType": "uint8",
          "name": "",
          "type": "uint8"
        }
      ],
      "stateMutability": "view",
      "type": "function"
    },
    {
      "inputs": [
        {
          "internalType": "contract ISuperApp",
          "name": "app",
          "type": "address"
        }
      ],
      "name": "getAppManifest",
      "outputs": [
        {
          "internalType": "bool",
          "name": "isSuperApp",
          "type": "bool"
        },
        {
          "internalType": "bool",
          "name": "isJailed",
          "type": "bool"
        },
        {
          "internalType": "uint256",
          "name": "noopMask",
          "type": "uint256"
        }
      ],
      "stateMutability": "view",
      "type": "function"
    },
    {
      "inputs": [],
      "name": "getCodeAddress",
      "outputs": [
        {
          "internalType": "address",
          "name": "codeAddress",
          "type": "address"
        }
      ],
      "stateMutability": "view",
      "type": "function"
    },
    {
      "inputs": [],
      "name": "getGovernance",
      "outputs": [
        {
          "internalType": "contract ISuperfluidGovernance",
          "name": "",
          "type": "address"
        }
      ],
      "stateMutability": "view",
      "type": "function"
    },
    {
      "inputs": [],
      "name": "getNow",
      "outputs": [
        {
          "internalType": "uint256",
          "name": "",
          "type": "uint256"
        }
      ],
      "stateMutability": "view",
      "type": "function"
    },
    {
      "inputs": [],
      "name": "getSuperTokenFactory",
      "outputs": [
        {
          "internalType": "contract ISuperTokenFactory",
          "name": "factory",
          "type": "address"
        }
      ],
      "stateMutability": "view",
      "type": "function"
    },
    {
      "inputs": [],
      "name": "getSuperTokenFactoryLogic",
      "outputs": [
        {
          "internalType": "address",
          "name": "logic",
          "type": "address"
        }
      ],
      "stateMutability": "view",
      "type": "function"
    },
    {
      "inputs": [
        {
          "internalType": "contract ISuperfluidGovernance",
          "name": "gov",
          "type": "address"
        }
      ],
      "name": "initialize",
      "outputs": [],
      "stateMutability": "nonpayable",
      "type": "function"
    },
    {
      "inputs": [
        {
          "internalType": "contract ISuperAgreement",
          "name": "agreementClass",
          "type": "address"
        }
      ],
      "name": "isAgreementClassListed",
      "outputs": [
        {
          "internalType": "bool",
          "name": "yes",
          "type": "bool"
        }
      ],
      "stateMutability": "view",
      "type": "function"
    },
    {
      "inputs": [
        {
          "internalType": "bytes32",
          "name": "agreementType",
          "type": "bytes32"
        }
      ],
      "name": "isAgreementTypeListed",
      "outputs": [
        {
          "internalType": "bool",
          "name": "yes",
          "type": "bool"
        }
      ],
      "stateMutability": "view",
      "type": "function"
    },
    {
      "inputs": [
        {
          "internalType": "contract ISuperApp",
          "name": "app",
          "type": "address"
        }
      ],
      "name": "isApp",
      "outputs": [
        {
          "internalType": "bool",
          "name": "",
          "type": "bool"
        }
      ],
      "stateMutability": "view",
      "type": "function"
    },
    {
      "inputs": [
        {
          "internalType": "contract ISuperApp",
          "name": "app",
          "type": "address"
        }
      ],
      "name": "isAppJailed",
      "outputs": [
        {
          "internalType": "bool",
          "name": "",
          "type": "bool"
        }
      ],
      "stateMutability": "view",
      "type": "function"
    },
    {
      "inputs": [
        {
          "internalType": "contract ISuperApp",
          "name": "app",
          "type": "address"
        },
        {
          "internalType": "contract ISuperApp",
          "name": "targetApp",
          "type": "address"
        }
      ],
      "name": "isCompositeAppAllowed",
      "outputs": [
        {
          "internalType": "bool",
          "name": "",
          "type": "bool"
        }
      ],
      "stateMutability": "view",
      "type": "function"
    },
    {
      "inputs": [
        {
          "internalType": "bytes",
          "name": "ctx",
          "type": "bytes"
        }
      ],
      "name": "isCtxValid",
      "outputs": [
        {
          "internalType": "bool",
          "name": "",
          "type": "bool"
        }
      ],
      "stateMutability": "view",
      "type": "function"
    },
    {
      "inputs": [
        {
          "internalType": "address",
          "name": "forwarder",
          "type": "address"
        }
      ],
      "name": "isTrustedForwarder",
      "outputs": [
        {
          "internalType": "bool",
          "name": "",
          "type": "bool"
        }
      ],
      "stateMutability": "view",
      "type": "function"
    },
    {
      "inputs": [
        {
          "internalType": "bytes",
          "name": "ctx",
          "type": "bytes"
        },
        {
          "internalType": "contract ISuperApp",
          "name": "app",
          "type": "address"
        },
        {
          "internalType": "uint256",
          "name": "reason",
          "type": "uint256"
        }
      ],
      "name": "jailApp",
      "outputs": [
        {
          "internalType": "bytes",
          "name": "newCtx",
          "type": "bytes"
        }
      ],
      "stateMutability": "nonpayable",
      "type": "function"
    },
    {
      "inputs": [
        {
          "internalType": "uint256",
          "name": "bitmap",
          "type": "uint256"
        }
      ],
      "name": "mapAgreementClasses",
      "outputs": [
        {
          "internalType": "contract ISuperAgreement[]",
          "name": "agreementClasses",
          "type": "address[]"
        }
      ],
      "stateMutability": "view",
      "type": "function"
    },
    {
      "inputs": [],
      "name": "proxiableUUID",
      "outputs": [
        {
          "internalType": "bytes32",
          "name": "",
          "type": "bytes32"
        }
      ],
      "stateMutability": "pure",
      "type": "function"
    },
    {
      "inputs": [
        {
          "internalType": "contract ISuperAgreement",
          "name": "agreementClassLogic",
          "type": "address"
        }
      ],
      "name": "registerAgreementClass",
      "outputs": [],
      "stateMutability": "nonpayable",
      "type": "function"
    },
    {
      "inputs": [
        {
          "internalType": "uint256",
          "name": "configWord",
          "type": "uint256"
        }
      ],
      "name": "registerApp",
      "outputs": [],
      "stateMutability": "nonpayable",
      "type": "function"
    },
    {
      "inputs": [
        {
          "internalType": "contract ISuperApp",
          "name": "app",
          "type": "address"
        },
        {
          "internalType": "uint256",
          "name": "configWord",
          "type": "uint256"
        }
      ],
      "name": "registerAppByFactory",
      "outputs": [],
      "stateMutability": "nonpayable",
      "type": "function"
    },
    {
      "inputs": [
        {
          "internalType": "uint256",
          "name": "configWord",
          "type": "uint256"
        },
        {
          "internalType": "string",
          "name": "registrationKey",
          "type": "string"
        }
      ],
      "name": "registerAppWithKey",
      "outputs": [],
      "stateMutability": "nonpayable",
      "type": "function"
    },
    {
      "inputs": [
        {
          "internalType": "uint256",
          "name": "bitmap",
          "type": "uint256"
        },
        {
          "internalType": "bytes32",
          "name": "agreementType",
          "type": "bytes32"
        }
      ],
      "name": "removeFromAgreementClassesBitmap",
      "outputs": [
        {
          "internalType": "uint256",
          "name": "newBitmap",
          "type": "uint256"
        }
      ],
      "stateMutability": "view",
      "type": "function"
    },
    {
      "inputs": [
        {
          "internalType": "contract ISuperfluidGovernance",
          "name": "newGov",
          "type": "address"
        }
      ],
      "name": "replaceGovernance",
      "outputs": [],
      "stateMutability": "nonpayable",
      "type": "function"
    },
    {
      "inputs": [
        {
          "internalType": "contract ISuperAgreement",
          "name": "agreementClassLogic",
          "type": "address"
        }
      ],
      "name": "updateAgreementClass",
      "outputs": [],
      "stateMutability": "nonpayable",
      "type": "function"
    },
    {
      "inputs": [
        {
          "internalType": "address",
          "name": "newAddress",
          "type": "address"
        }
      ],
      "name": "updateCode",
      "outputs": [],
      "stateMutability": "nonpayable",
      "type": "function"
    },
    {
      "inputs": [
        {
          "internalType": "contract ISuperTokenFactory",
          "name": "newFactory",
          "type": "address"
        }
      ],
      "name": "updateSuperTokenFactory",
      "outputs": [],
      "stateMutability": "nonpayable",
      "type": "function"
    },
    {
      "inputs": [
        {
          "internalType": "contract ISuperToken",
          "name": "token",
          "type": "address"
        }
      ],
      "name": "updateSuperTokenLogic",
      "outputs": [],
      "stateMutability": "nonpayable",
      "type": "function"
    },
    {
      "inputs": [],
      "name": "versionRecipient",
      "outputs": [
        {
          "internalType": "string",
          "name": "",
          "type": "string"
        }
      ],
      "stateMutability": "pure",
      "type": "function"
    }
  ],
  "bytecode": "0x610100604052600160c090815250622dc6c067ffffffffffffffff1660e09067ffffffffffffffff168152503480156200003857600080fd5b5060405162009fb938038062009fb983398181016040528101906200005e9190620000c0565b81151560808115158152505080151560a081151581525050505062000107565b600080fd5b60008115159050919050565b6200009a8162000083565b8114620000a657600080fd5b50565b600081519050620000ba816200008f565b92915050565b60008060408385031215620000da57620000d96200007e565b5b6000620000ea85828601620000a9565b9250506020620000fd85828601620000a9565b9150509250929050565b60805160a05160c05160e051619e2b6200018e600039600081816116270152818161418a015261422e015260008181613bda0152613f8e015260008181612d2001528181612dc20152613d99015260008181610ba30152818161113501528181611ab201528181611d3901528181611f1201528181613b900152613c600152619e2b6000f3fe60806040523480156200001157600080fd5b5060043610620002e05760003560e01c806374041e021162000189578063bbe4fd5011620000e1578063cd312ec41162000093578063cd312ec41462000a1a578063e8dccb7d1462000a3c578063f213bb021462000a72578063f2e55caf1462000a94578063f37330521462000ab6578063f9f522f41462000ad657620002e0565b8063bbe4fd501462000916578063bced3ddc1462000938578063bd1c448b146200096e578063bf428734146200098e578063c4d66de814620009c4578063c56a069d14620009e457620002e0565b8063a5dbbbcd116200013b578063a5dbbbcd14620007e8578063ad3915c8146200081e578063b6d200de146200083e578063b724211e1462000874578063ba48b5f814620008aa578063bb84cfa114620008e057620002e0565b806374041e0214620006ce578063768fabb01462000704578063787afde7146200073a5780638ca48484146200075a578063989b0c3e14620007905780639d297e3014620007c657620002e0565b806346951954116200023d578063572b6c0511620001ef578063572b6c0514620005e0578063670e77e314620006165780636ad3ca7d14620006365780636b4f333514620006565780637283100c146200068c578063731aed6e14620006ac57620002e0565b806346951954146200051a578063486ff0cd146200053a57806350d75d25146200055c57806352d1902d146200057e57806354fbc49314620005a057806357121e0c14620005c057620002e0565b8063289b3c0d1162000297578063289b3c0d14620003fd57806333d608f1146200041f57806339255d5b14620004415780633ca3ad4e14620004775780633f6c923a14620004ad5780634329d29314620004e357620002e0565b806306cecba814620002e55780630792f20a146200030557806313349046146200033b57806315a024e114620003715780631e6d0a8414620003915780631e855cf314620003c7575b600080fd5b620003036004803603810190620002fd919062005f87565b62000b0e565b005b6200032360048036038101906200031d91906200609d565b62000ddc565b604051620003329190620061c1565b60405180910390f35b6200035960048036038101906200035391906200622a565b62000f2d565b6040516200036891906200627a565b60405180910390f35b6200038f600480360381019062000389919062005f87565b62000f83565b005b620003af6004803603810190620003a99190620062d4565b620012c6565b604051620003be9190620061c1565b60405180910390f35b620003e56004803603810190620003df9190620064d8565b620015e5565b604051620003f49190620061c1565b60405180910390f35b62000407620015fc565b604051620004169190620065a9565b60405180910390f35b6200042962001625565b604051620004389190620065eb565b60405180910390f35b6200045f600480360381019062000459919062006608565b62001649565b6040516200046e9190620061c1565b60405180910390f35b6200049560048036038101906200048f91906200622a565b62001662565b604051620004a49190620066b3565b60405180910390f35b620004cb6004803603810190620004c59190620066d0565b620016b0565b604051620004da91906200691e565b60405180910390f35b620005016004803603810190620004fb919062006942565b620016cc565b6040516200051192919062006a1f565b60405180910390f35b62000538600480360381019062000532919062006a8b565b62001a1d565b005b6200054462001bd7565b60405162000553919062006b1a565b60405180910390f35b6200056662001c14565b60405162000575919062006b4f565b60405180910390f35b6200058862001c25565b60405162000597919062006b87565b60405180910390f35b620005be6004803603810190620005b8919062006be9565b62001c4d565b005b620005de6004803603810190620005d891906200622a565b62002064565b005b620005fe6004803603810190620005f8919062006a8b565b620021fb565b6040516200060d9190620066b3565b60405180910390f35b6200063460048036038101906200062e919062006deb565b620022b7565b005b6200065460048036038101906200064e919062006deb565b620022cf565b005b6200067460048036038101906200066e91906200622a565b620022de565b604051620006839190620066b3565b60405180910390f35b620006aa6004803603810190620006a4919062006e81565b62002334565b005b620006b662002468565b604051620006c5919062006ed8565b60405180910390f35b620006ec6004803603810190620006e69190620062d4565b62002492565b604051620006fb9190620061c1565b60405180910390f35b6200072260048036038101906200071c919062006f3a565b62002675565b604051620007319190620061c1565b60405180910390f35b62000758600480360381019062000752919062007029565b62002939565b005b62000778600480360381019062000772919062005f87565b62002b27565b604051620007879190620066b3565b60405180910390f35b620007ae6004803603810190620007a891906200705b565b62002c4a565b604051620007bd9190620061c1565b60405180910390f35b620007d062002d1e565b604051620007df9190620066b3565b60405180910390f35b620008066004803603810190620008009190620070f6565b62002d42565b6040516200081591906200714e565b60405180910390f35b6200083c60048036038101906200083691906200716b565b62002dc0565b005b6200085c60048036038101906200085691906200719d565b62002e35565b6040516200086b9190620071f4565b60405180910390f35b6200089260048036038101906200088c919062007211565b62002eeb565b604051620008a19190620061c1565b60405180910390f35b620008c86004803603810190620008c2919062007291565b62002ff6565b604051620008d79190620061c1565b60405180910390f35b620008fe6004803603810190620008f8919062007335565b62003626565b6040516200090d9190620066b3565b60405180910390f35b62000920620036ba565b6040516200092f91906200714e565b60405180910390f35b620009566004803603810190620009509190620070f6565b620036c2565b6040516200096591906200714e565b60405180910390f35b6200098c6004803603810190620009869190620073db565b6200373f565b005b620009ac6004803603810190620009a6919062007445565b62003922565b604051620009bb9190620066b3565b60405180910390f35b620009e26004803603810190620009dc919062006e81565b6200397b565b005b62000a026004803603810190620009fc91906200716b565b62003a4f565b60405162000a11919062007568565b60405180910390f35b62000a2462003b8e565b60405162000a339190620066b3565b60405180910390f35b62000a5a600480360381019062000a5491906200719d565b62003bb2565b60405162000a699190620066b3565b60405180910390f35b62000a7c62003bd8565b60405162000a8b91906200714e565b60405180910390f35b62000a9e62003bfc565b60405162000aad919062006b4f565b60405180910390f35b62000ad4600480360381019062000ace91906200758c565b62003d4a565b005b62000af4600480360381019062000aee91906200622a565b62003ed2565b60405162000b0593929190620075d3565b60405180910390f35b600060029054906101000a900473ffffffffffffffffffffffffffffffffffffffff1673ffffffffffffffffffffffffffffffffffffffff163373ffffffffffffffffffffffffffffffffffffffff161462000ba1576040517f08c379a000000000000000000000000000000000000000000000000000000000815260040162000b989062007660565b60405180910390fd5b7f00000000000000000000000000000000000000000000000000000000000000001562000c05576040517f08c379a000000000000000000000000000000000000000000000000000000000815260040162000bfc90620076d2565b60405180910390fd5b60008173ffffffffffffffffffffffffffffffffffffffff16637730599e6040518163ffffffff1660e01b8152600401602060405180830381865afa15801562000c53573d6000803e3d6000fd5b505050506040513d601f19601f8201168201806040525081019062000c7991906200770b565b90506000600260008381526020019081526020016000205490506000810362000cd9576040517f08c379a000000000000000000000000000000000000000000000000000000000815260040162000cd090620077b3565b60405180910390fd5b60006001808362000ceb919062007804565b8154811062000cff5762000cfe6200783f565b5b9060005260206000200160009054906101000a900473ffffffffffffffffffffffffffffffffffffffff1690508073ffffffffffffffffffffffffffffffffffffffff166346951954856040518263ffffffff1660e01b815260040162000d67919062006b4f565b600060405180830381600087803b15801562000d8257600080fd5b505af115801562000d97573d6000803e3d6000fd5b505050507f9279aa773f2b588996032d8de89911555039f28b13a11a7c17074330bc082d9a838560405162000dce9291906200786e565b60405180910390a150505050565b606062000de93362002b27565b62000e2b576040517f08c379a000000000000000000000000000000000000000000000000000000000815260040162000e229062007911565b60405180910390fd5b84848080601f016020809104026020016040519081016040528093929190818152602001838380828437600081840152601f19601f8201169050808301925050505050505062000e7b8162003f67565b62000e8b5762000e8a62007933565b5b600062000edc87878080601f016020809104026020016040519081016040528093929190818152602001838380828437600081840152601f19601f82011690508083019250505050505050620016b0565b9050848160e0015162000ef0919062007962565b8160e00181815250508381610100015162000f0c9190620079bf565b8161010001818152505062000f218162003f8a565b92505050949350505050565b600062000f7c600460008473ffffffffffffffffffffffffffffffffffffffff1673ffffffffffffffffffffffffffffffffffffffff1681526020019081526020016000206000015462004106565b9050919050565b600060029054906101000a900473ffffffffffffffffffffffffffffffffffffffff1673ffffffffffffffffffffffffffffffffffffffff163373ffffffffffffffffffffffffffffffffffffffff161462001016576040517f08c379a00000000000000000000000000000000000000000000000000000000081526004016200100d9062007660565b60405180910390fd5b60008173ffffffffffffffffffffffffffffffffffffffff16637730599e6040518163ffffffff1660e01b8152600401602060405180830381865afa15801562001064573d6000803e3d6000fd5b505050506040513d601f19601f820116820180604052508101906200108a91906200770b565b90506000600260008381526020019081526020016000205414620010e5576040517f08c379a0000000000000000000000000000000000000000000000000000000008152600401620010dc9062007ad3565b60405180910390fd5b6101006001805490501062001131576040517f08c379a0000000000000000000000000000000000000000000000000000000008152600401620011289062007b6b565b60405180910390fd5b60007f000000000000000000000000000000000000000000000000000000000000000062001202576000604051620011699062005e2b565b604051809103906000f08015801562001186573d6000803e3d6000fd5b5090508073ffffffffffffffffffffffffffffffffffffffff16634a0687ef856040518263ffffffff1660e01b8152600401620011c4919062006b4f565b600060405180830381600087803b158015620011df57600080fd5b505af1158015620011f4573d6000803e3d6000fd5b505050508091505062001206565b8290505b6001819080600181540180825580915050600190039060005260206000200160009091909190916101000a81548173ffffffffffffffffffffffffffffffffffffffff021916908373ffffffffffffffffffffffffffffffffffffffff16021790555060018054905060026000848152602001908152602001600020819055507f878135063a6cfb3bc333e534b1fdc83f4f12221cad6705c31c0567048a8bd3d18284604051620012b99291906200786e565b60405180910390a1505050565b6060620012d33362002b27565b62001315576040517f08c379a00000000000000000000000000000000000000000000000000000000081526004016200130c9062007911565b60405180910390fd5b82828080601f016020809104026020016040519081016040528093929190818152602001838380828437600081840152601f19601f82011690508083019250505050505050620013658162003f67565b62001375576200137462007933565b5b600080620014108a6000898c8c8080601f016020809104026020016040519081016040528093929190818152602001838380828437600081840152601f19601f820116905080830192505050505050508a8a8080601f016020809104026020016040519081016040528093929190818152602001838380828437600081840152601f19601f8201169050808301925050505050505062004113565b9150915081156200159057620014268162004347565b15620014f2578080602001905181019062001442919062007c0b565b93506200144f8462003f67565b620014ec578662001497576040517f08c379a00000000000000000000000000000000000000000000000000000000081526004016200148e9062007cac565b60405180910390fd5b85858080601f016020809104026020016040519081016040528093929190818152602001838380828437600081840152601f19601f820116905080830192505050505050509350620014eb8a6014620043aa565b5b6200158a565b8662001535576040517f08c379a00000000000000000000000000000000000000000000000000000000081526004016200152c9062007d1e565b60405180910390fd5b85858080601f016020809104026020016040519081016040528093929190818152602001838380828437600081840152601f19601f820116905080830192505050505050509350620015898a6016620043aa565b5b620015d8565b85858080601f016020809104026020016040519081016040528093929190818152602001838380828437600081840152601f19601f8201169050808301925050505050505093505b5050509695505050505050565b6060620015f4338484620044a0565b905092915050565b60008060029054906101000a900473ffffffffffffffffffffffffffffffffffffffff16905090565b7f000000000000000000000000000000000000000000000000000000000000000081565b606062001659338585856200499b565b90509392505050565b600080600460008473ffffffffffffffffffffffffffffffffffffffff1673ffffffffffffffffffffffffffffffffffffffff16815260200190815260200160002060000154119050919050565b620016ba62005e39565b620016c58262004b6d565b9050919050565b60608083838080601f016020809104026020016040519081016040528093929190818152602001838380828437600081840152601f19601f820116905080830192505050505050506200171f8162003f67565b62001761576040517f08c379a0000000000000000000000000000000000000000000000000000000008152600401620017589062007d90565b60405180910390fd5b896200176d8162002b27565b620017af576040517f08c379a0000000000000000000000000000000000000000000000000000000008152600401620017a69062007e28565b60405180910390fd5b60006200180087878080601f016020809104026020016040519081016040528093929190818152602001838380828437600081840152601f19601f82011690508083019250505050505050620016b0565b90503373ffffffffffffffffffffffffffffffffffffffff1681610120015173ffffffffffffffffffffffffffffffffffffffff161462001878576040517f08c379a00000000000000000000000000000000000000000000000000000000081526004016200186f9062007ec0565b60405180910390fd5b60008160600151905033826060019073ffffffffffffffffffffffffffffffffffffffff16908173ffffffffffffffffffffffffffffffffffffffff168152505089898080601f016020809104026020016040519081016040528093929190818152602001838380828437600081840152601f19601f820116905080830192505050505050508260a00181905250620019118262003f8a565b95506000620019668e8e8e8080601f016020809104026020016040519081016040528093929190818152602001838380828437600081840152601f19601f820116905080830192505050505050508962004d31565b8097508192505050801562001a0057858060200190518101906200198b919062007c0b565b9650620019988762003f67565b620019a857620019a762007933565b5b620019b387620016b0565b925081836060019073ffffffffffffffffffffffffffffffffffffffff16908173ffffffffffffffffffffffffffffffffffffffff1681525050620019f88362003f8a565b965062001a0c565b62001a0b8662004e4e565b5b505050505097509795505050505050565b600060029054906101000a900473ffffffffffffffffffffffffffffffffffffffff1673ffffffffffffffffffffffffffffffffffffffff163373ffffffffffffffffffffffffffffffffffffffff161462001ab0576040517f08c379a000000000000000000000000000000000000000000000000000000000815260040162001aa79062007660565b60405180910390fd5b7f00000000000000000000000000000000000000000000000000000000000000001562001b14576040517f08c379a000000000000000000000000000000000000000000000000000000000815260040162001b0b90620076d2565b60405180910390fd5b8073ffffffffffffffffffffffffffffffffffffffff1663cd312ec46040518163ffffffff1660e01b8152600401602060405180830381865afa15801562001b60573d6000803e3d6000fd5b505050506040513d601f19601f8201168201806040525081019062001b86919062007ef9565b1562001bc9576040517f08c379a000000000000000000000000000000000000000000000000000000000815260040162001bc09062007fa1565b60405180910390fd5b62001bd48162004fc6565b50565b60606040518060400160405280600281526020017f7631000000000000000000000000000000000000000000000000000000000000815250905090565b600062001c20620051c3565b905090565b60007fcd355cae2c435f8c5e0c626c4691d22fd85aa7422a424c6f0bced6e64c7aba74905090565b600060029054906101000a900473ffffffffffffffffffffffffffffffffffffffff1673ffffffffffffffffffffffffffffffffffffffff163373ffffffffffffffffffffffffffffffffffffffff161462001ce0576040517f08c379a000000000000000000000000000000000000000000000000000000000815260040162001cd79062007660565b60405180910390fd5b600073ffffffffffffffffffffffffffffffffffffffff16600360009054906101000a900473ffffffffffffffffffffffffffffffffffffffff1673ffffffffffffffffffffffffffffffffffffffff160362001f10577f000000000000000000000000000000000000000000000000000000000000000062001e4457600060405162001d6d9062005e2b565b604051809103906000f08015801562001d8a573d6000803e3d6000fd5b5090508073ffffffffffffffffffffffffffffffffffffffff16634a0687ef836040518263ffffffff1660e01b815260040162001dc8919062006b4f565b600060405180830381600087803b15801562001de357600080fd5b505af115801562001df8573d6000803e3d6000fd5b5050505080600360006101000a81548173ffffffffffffffffffffffffffffffffffffffff021916908373ffffffffffffffffffffffffffffffffffffffff1602179055505062001e86565b80600360006101000a81548173ffffffffffffffffffffffffffffffffffffffff021916908373ffffffffffffffffffffffffffffffffffffffff1602179055505b600360009054906101000a900473ffffffffffffffffffffffffffffffffffffffff1673ffffffffffffffffffffffffffffffffffffffff16638129fc1c6040518163ffffffff1660e01b8152600401600060405180830381600087803b15801562001ef157600080fd5b505af115801562001f06573d6000803e3d6000fd5b5050505062002006565b7f00000000000000000000000000000000000000000000000000000000000000001562001f74576040517f08c379a000000000000000000000000000000000000000000000000000000000815260040162001f6b90620076d2565b60405180910390fd5b600360009054906101000a900473ffffffffffffffffffffffffffffffffffffffff1673ffffffffffffffffffffffffffffffffffffffff166346951954826040518263ffffffff1660e01b815260040162001fd1919062006b4f565b600060405180830381600087803b15801562001fec57600080fd5b505af115801562002001573d6000803e3d6000fd5b505050505b7fce13a9895a1719ad4493b2ac1a9bfb36070566161abab408e7ecbe586da8d499600360009054906101000a900473ffffffffffffffffffffffffffffffffffffffff1660405162002059919062006ed8565b60405180910390a150565b6000339050620020748162001662565b620020b6576040517f08c379a0000000000000000000000000000000000000000000000000000000008152600401620020ad9062008013565b60405180910390fd5b620020c18262001662565b62002103576040517f08c379a0000000000000000000000000000000000000000000000000000000008152600401620020fa9062008085565b60405180910390fd5b6200210e8262000f2d565b60ff166200211c8262000f2d565b60ff161162002162576040517f08c379a000000000000000000000000000000000000000000000000000000000815260040162002159906200811d565b60405180910390fd5b6001600560003373ffffffffffffffffffffffffffffffffffffffff1673ffffffffffffffffffffffffffffffffffffffff16815260200190815260200160002060008473ffffffffffffffffffffffffffffffffffffffff1673ffffffffffffffffffffffffffffffffffffffff16815260200190815260200160002060006101000a81548160ff0219169083151502179055505050565b600080600060029054906101000a900473ffffffffffffffffffffffffffffffffffffffff1673ffffffffffffffffffffffffffffffffffffffff166380f70cba3060006200224a87620051ec565b6040518463ffffffff1660e01b81526004016200226a9392919062008175565b602060405180830381865afa15801562002288573d6000803e3d6000fd5b505050506040513d601f19601f82011682018060405250810190620022ae9190620081c9565b14159050919050565b620022cc620022c56200521e565b826200528c565b50565b620022db33826200528c565b50565b60006200232d600460008473ffffffffffffffffffffffffffffffffffffffff1673ffffffffffffffffffffffffffffffffffffffff16815260200190815260200160002060000154620057be565b9050919050565b600060029054906101000a900473ffffffffffffffffffffffffffffffffffffffff1673ffffffffffffffffffffffffffffffffffffffff163373ffffffffffffffffffffffffffffffffffffffff1614620023c7576040517f08c379a0000000000000000000000000000000000000000000000000000000008152600401620023be9062007660565b60405180910390fd5b7f13abda02e63c790d0e2818b251282cfe5cbe0a8abd69c54bf5d2260c0907bd2e600060029054906101000a900473ffffffffffffffffffffffffffffffffffffffff16826040516200241c929190620081fb565b60405180910390a180600060026101000a81548173ffffffffffffffffffffffffffffffffffffffff021916908373ffffffffffffffffffffffffffffffffffffffff16021790555050565b6000600360009054906101000a900473ffffffffffffffffffffffffffffffffffffffff16905090565b60606200249f3362002b27565b620024e1576040517f08c379a0000000000000000000000000000000000000000000000000000000008152600401620024d89062007911565b60405180910390fd5b82828080601f016020809104026020016040519081016040528093929190818152602001838380828437600081840152601f19601f82011690508083019250505050505050620025318162003f67565b62002541576200254062007933565b5b600080620025dc8a6001898c8c8080601f016020809104026020016040519081016040528093929190818152602001838380828437600081840152601f19601f820116905080830192505050505050508a8a8080601f016020809104026020016040519081016040528093929190818152602001838380828437600081840152601f19601f8201169050808301925050505050505062004113565b9150915081156200266857620025f28162004347565b156200261657808060200190518101906200260e919062007c0b565b935062002667565b8662002659576040517f08c379a0000000000000000000000000000000000000000000000000000000008152600401620026509062007d1e565b60405180910390fd5b620026668a6016620043aa565b5b5b5050509695505050505050565b6060620026823362002b27565b620026c4576040517f08c379a0000000000000000000000000000000000000000000000000000000008152600401620026bb9062007911565b60405180910390fd5b86868080601f016020809104026020016040519081016040528093929190818152602001838380828437600081840152601f19601f82011690508083019250505050505050620027148162003f67565b62002724576200272362007933565b5b60006200277589898080601f016020809104026020016040519081016040528093929190818152602001838380828437600081840152601f19601f82011690508083019250505050505050620016b0565b905062002786816060015162001662565b156200285d5760056000826060015173ffffffffffffffffffffffffffffffffffffffff1673ffffffffffffffffffffffffffffffffffffffff16815260200190815260200160002060008873ffffffffffffffffffffffffffffffffffffffff1673ffffffffffffffffffffffffffffffffffffffff16815260200190815260200160002060009054906101000a900460ff166200285c576040517f08c379a000000000000000000000000000000000000000000000000000000000815260040162002853906200829e565b60405180910390fd5b5b8060000180518091906200287190620082c0565b60ff1660ff16815250506003816020019060ff16908160ff1681525050858160c001818152505060008160e001818152505084816101000181815250508681610120019073ffffffffffffffffffffffffffffffffffffffff16908173ffffffffffffffffffffffffffffffffffffffff16815250508381610140019073ffffffffffffffffffffffffffffffffffffffff16908173ffffffffffffffffffffffffffffffffffffffff16815250506200292b8162003f8a565b925050509695505050505050565b600060029054906101000a900473ffffffffffffffffffffffffffffffffffffffff1673ffffffffffffffffffffffffffffffffffffffff163373ffffffffffffffffffffffffffffffffffffffff1614620029cc576040517f08c379a0000000000000000000000000000000000000000000000000000000008152600401620029c39062007660565b60405180910390fd5b6000600360009054906101000a900473ffffffffffffffffffffffffffffffffffffffff1673ffffffffffffffffffffffffffffffffffffffff16639470a5b26040518163ffffffff1660e01b8152600401602060405180830381865afa15801562002a3c573d6000803e3d6000fd5b505050506040513d601f19601f8201168201806040525081019062002a62919062008305565b90508173ffffffffffffffffffffffffffffffffffffffff166346951954826040518263ffffffff1660e01b815260040162002a9f919062006b4f565b600060405180830381600087803b15801562002aba57600080fd5b505af115801562002acf573d6000803e3d6000fd5b505050508173ffffffffffffffffffffffffffffffffffffffff167f840acbd291b38534819f47f875839277e502f40e1c7bfea2c5fc2c8017442cd38260405162002b1b919062006b4f565b60405180910390a25050565b6000808273ffffffffffffffffffffffffffffffffffffffff16637730599e6040518163ffffffff1660e01b8152600401602060405180830381865afa15801562002b76573d6000803e3d6000fd5b505050506040513d601f19601f8201168201806040525081019062002b9c91906200770b565b90506000600260008381526020019081526020016000205490506000811415801562002c4157508373ffffffffffffffffffffffffffffffffffffffff166001808362002bea919062007804565b8154811062002bfe5762002bfd6200783f565b5b9060005260206000200160009054906101000a900473ffffffffffffffffffffffffffffffffffffffff1673ffffffffffffffffffffffffffffffffffffffff16145b92505050919050565b606062002c573362002b27565b62002c99576040517f08c379a000000000000000000000000000000000000000000000000000000000815260040162002c909062007911565b60405180910390fd5b600062002cea85858080601f016020809104026020016040519081016040528093929190818152602001838380828437600081840152601f19601f82011690508083019250505050505050620016b0565b90508281610100015162002cff9190620079bf565b8161010001818152505062002d148162003f8a565b9150509392505050565b7f000000000000000000000000000000000000000000000000000000000000000081565b600080600260008481526020019081526020016000205490506000810362002da1576040517f08c379a000000000000000000000000000000000000000000000000000000000815260040162002d9890620077b3565b60405180910390fd5b60018162002db0919062007804565b6001901b19841691505092915050565b7f00000000000000000000000000000000000000000000000000000000000000001562002e24576040517f08c379a000000000000000000000000000000000000000000000000000000000815260040162002e1b90620083ad565b60405180910390fd5b62002e3281336001620057ce565b50565b600080600260008481526020019081526020016000205490506000810362002e94576040517f08c379a000000000000000000000000000000000000000000000000000000000815260040162002e8b90620077b3565b60405180910390fd5b6001808262002ea4919062007804565b8154811062002eb85762002eb76200783f565b5b9060005260206000200160009054906101000a900473ffffffffffffffffffffffffffffffffffffffff16915050919050565b606062002ef83362002b27565b62002f3a576040517f08c379a000000000000000000000000000000000000000000000000000000000815260040162002f319062007911565b60405180910390fd5b84848080601f016020809104026020016040519081016040528093929190818152602001838380828437600081840152601f19601f8201169050808301925050505050505062002f8a8162003f67565b62002f9a5762002f9962007933565b5b62002fa68484620043aa565b85858080601f016020809104026020016040519081016040528093929190818152602001838380828437600081840152601f19601f82011690508083019250505050505050915050949350505050565b606082828080601f016020809104026020016040519081016040528093929190818152602001838380828437600081840152601f19601f82011690508083019250505050505050620030488162003f67565b6200308a576040517f08c379a0000000000000000000000000000000000000000000000000000000008152600401620030819062007d90565b60405180910390fd5b866000600460008373ffffffffffffffffffffffffffffffffffffffff1673ffffffffffffffffffffffffffffffffffffffff1681526020019081526020016000206000015490506000811162003118576040517f08c379a00000000000000000000000000000000000000000000000000000000081526004016200310f906200841f565b60405180910390fd5b6200312381620057be565b1562003166576040517f08c379a00000000000000000000000000000000000000000000000000000000081526004016200315d9062008491565b60405180910390fd5b87878080601f016020809104026020016040519081016040528093929190818152602001838380828437600081840152601f19601f820116905080830192505050505050506000620031b88262005a37565b90506330d9c91560e01b7bffffffffffffffffffffffffffffffffffffffffffffffffffffffff1916817bffffffffffffffffffffffffffffffffffffffffffffffffffffffff1916148062003252575063d86ed3e560e01b7bffffffffffffffffffffffffffffffffffffffffffffffffffffffff1916817bffffffffffffffffffffffffffffffffffffffffffffffffffffffff1916145b80620032a2575063884d1f4060e01b7bffffffffffffffffffffffffffffffffffffffffffffffffffffffff1916817bffffffffffffffffffffffffffffffffffffffffffffffffffffffff1916145b80620032f2575063d86ed3e560e01b7bffffffffffffffffffffffffffffffffffffffffffffffffffffffff1916817bffffffffffffffffffffffffffffffffffffffffffffffffffffffff1916145b80620033425750635f9e7d7760e01b7bffffffffffffffffffffffffffffffffffffffffffffffffffffffff1916817bffffffffffffffffffffffffffffffffffffffffffffffffffffffff1916145b8062003392575063d86ed3e560e01b7bffffffffffffffffffffffffffffffffffffffffffffffffffffffff1916817bffffffffffffffffffffffffffffffffffffffffffffffffffffffff1916145b15620033d5576040517f08c379a0000000000000000000000000000000000000000000000000000000008152600401620033cc9062008529565b60405180910390fd5b60006200342689898080601f016020809104026020016040519081016040528093929190818152602001838380828437600081840152601f19601f82011690508083019250505050505050620016b0565b90503373ffffffffffffffffffffffffffffffffffffffff1681610120015173ffffffffffffffffffffffffffffffffffffffff16146200349e576040517f08c379a00000000000000000000000000000000000000000000000000000000081526004016200349590620085c1565b60405180910390fd5b60008160600151905033826060019073ffffffffffffffffffffffffffffffffffffffff16908173ffffffffffffffffffffffffffffffffffffffff1681525050620034ea8262003f8a565b9750600080620035408f8f8f8080601f016020809104026020016040519081016040528093929190818152602001838380828437600081840152601f19601f820116905080830192505050505050508c62004d31565b91509150811562003608578080602001905181019062003561919062007c0b565b99506200356e8a62003f67565b620035b0576040517f08c379a0000000000000000000000000000000000000000000000000000000008152600401620035a79062007cac565b60405180910390fd5b620035bb8a620016b0565b935082846060019073ffffffffffffffffffffffffffffffffffffffff16908173ffffffffffffffffffffffffffffffffffffffff1681525050620036008462003f8a565b995062003614565b620036138162004e4e565b5b50505050505050505095945050505050565b6000600560008473ffffffffffffffffffffffffffffffffffffffff1673ffffffffffffffffffffffffffffffffffffffff16815260200190815260200160002060008373ffffffffffffffffffffffffffffffffffffffff1673ffffffffffffffffffffffffffffffffffffffff16815260200190815260200160002060009054906101000a900460ff16905092915050565b600042905090565b600080600260008481526020019081526020016000205490506000810362003721576040517f08c379a00000000000000000000000000000000000000000000000000000000081526004016200371890620077b3565b60405180910390fd5b60018162003730919062007804565b6001901b841791505092915050565b6000620037913284848080601f016020809104026020016040519081016040528093929190818152602001838380828437600081840152601f19601f8201169050808301925050505050505062005a8d565b90506001600060029054906101000a900473ffffffffffffffffffffffffffffffffffffffff1673ffffffffffffffffffffffffffffffffffffffff166380f70cba306000856040518463ffffffff1660e01b8152600401620037f79392919062008175565b602060405180830381865afa15801562003815573d6000803e3d6000fd5b505050506040513d601f19601f820116820180604052508101906200383b9190620081c9565b146200387e576040517f08c379a0000000000000000000000000000000000000000000000000000000008152600401620038759062008633565b60405180910390fd5b6007600082815260200190815260200160002060009054906101000a900460ff1615620038e2576040517f08c379a0000000000000000000000000000000000000000000000000000000008152600401620038d990620086cb565b60405180910390fd5b60016007600083815260200190815260200160002060006101000a81548160ff0219169083151502179055506200391c84336001620057ce565b50505050565b60006200397383838080601f016020809104026020016040519081016040528093929190818152602001838380828437600081840152601f19601f8201169050808301925050505050505062003f67565b905092915050565b600062003989600162005ac2565b90508015620039ae576001600060016101000a81548160ff0219169083151502179055505b81600060026101000a81548173ffffffffffffffffffffffffffffffffffffffff021916908373ffffffffffffffffffffffffffffffffffffffff160217905550801562003a4b5760008060016101000a81548160ff0219169083151502179055507f7f26b83ff96e1f2b6a682f133852f6798a09c465da95921460cefb3847402498600160405162003a42919062008730565b60405180910390a15b5050565b606060008060018054905067ffffffffffffffff81111562003a765762003a7562006391565b5b60405190808252806020026020018201604052801562003aa55781602001602082028036833780820191505090505b50925060009050600091505b60018054905082101562003b84576000826001901b8516111562003b70576001828154811062003ae65762003ae56200783f565b5b9060005260206000200160009054906101000a900473ffffffffffffffffffffffffffffffffffffffff1683828062003b1f906200874d565b93508151811062003b355762003b346200783f565b5b602002602001019073ffffffffffffffffffffffffffffffffffffffff16908173ffffffffffffffffffffffffffffffffffffffff16815250505b8162003b7c906200874d565b915062003ab1565b8083525050919050565b7f000000000000000000000000000000000000000000000000000000000000000081565b600080600260008481526020019081526020016000205490506000811415915050919050565b7f000000000000000000000000000000000000000000000000000000000000000081565b60008073ffffffffffffffffffffffffffffffffffffffff16600360009054906101000a900473ffffffffffffffffffffffffffffffffffffffff1673ffffffffffffffffffffffffffffffffffffffff160362003c5e576000905062003d47565b7f00000000000000000000000000000000000000000000000000000000000000001562003cb057600360009054906101000a900473ffffffffffffffffffffffffffffffffffffffff16905062003d47565b600360009054906101000a900473ffffffffffffffffffffffffffffffffffffffff1673ffffffffffffffffffffffffffffffffffffffff166350d75d256040518163ffffffff1660e01b8152600401602060405180830381865afa15801562003d1e573d6000803e3d6000fd5b505050506040513d601f19601f8201168201806040525081019062003d449190620087b1565b90505b90565b6000333b90506000811162003d96576040517f08c379a000000000000000000000000000000000000000000000000000000000815260040162003d8d9062008833565b60405180910390fd5b507f00000000000000000000000000000000000000000000000000000000000000001562003ec057600062003dcb3362005bbd565b905060006001600060029054906101000a900473ffffffffffffffffffffffffffffffffffffffff1673ffffffffffffffffffffffffffffffffffffffff166380f70cba306000866040518463ffffffff1660e01b815260040162003e339392919062008175565b602060405180830381865afa15801562003e51573d6000803e3d6000fd5b505050506040513d601f19601f8201168201806040525081019062003e779190620081c9565b1490508062003ebd576040517f08c379a000000000000000000000000000000000000000000000000000000000815260040162003eb490620088a5565b60405180910390fd5b50505b62003ece81836000620057ce565b5050565b600080600080600460008673ffffffffffffffffffffffffffffffffffffffff1673ffffffffffffffffffffffffffffffffffffffff168152602001908152602001600020604051806020016040529081600082015481525050905060008160000151119350831562003f5f5762003f4e8160000151620057be565b925064ff0000000081600001511691505b509193909250565b60008082511415801562003f8357506006548280519060200120145b9050919050565b60607f0000000000000000000000000000000000000000000000000000000000000000826000015160ff16111562003ff9576040517f08c379a000000000000000000000000000000000000000000000000000000000815260040162003ff0906200893d565b60405180910390fd5b60006200400f8360000151846020015162005bef565b905060006080620040248560e0015162005c06565b6fffffffffffffffffffffffffffffffff16901b620040478560c0015162005c06565b6fffffffffffffffffffffffffffffffff16179050818460400151856060015186608001518760a001516040516020016200408795949392919062008970565b60405160208183030381529060405281856101000151866101200151876101400151604051602001620040be9493929190620089e5565b604051602081830303815290604052604051602001620040e092919062006a1f565b604051602081830303815290604052925082805190602001206006819055505050919050565b600060ff82169050919050565b60006060600073ffffffffffffffffffffffffffffffffffffffff168773ffffffffffffffffffffffffffffffffffffffff160362004157576200415662007933565b5b62004163848462005c68565b935060005a9050861562004215578773ffffffffffffffffffffffffffffffffffffffff167f000000000000000000000000000000000000000000000000000000000000000067ffffffffffffffff1686604051620041c3919062008a74565b6000604051808303818686fa925050503d806000811462004201576040519150601f19603f3d011682016040523d82523d6000602084013e62004206565b606091505b508093508194505050620042b6565b8773ffffffffffffffffffffffffffffffffffffffff167f000000000000000000000000000000000000000000000000000000000000000067ffffffffffffffff168660405162004267919062008a74565b60006040518083038160008787f1925050503d8060008114620042a7576040519150601f19603f3d011682016040523d82523d6000602084013e620042ac565b606091505b5080935081945050505b826200433c57603f81620042cb919062008abc565b5a1115620042fe5785620042ea57620042e48262004e4e565b620042f8565b620042f788600a620043aa565b5b6200433b565b6040517f08c379a0000000000000000000000000000000000000000000000000000000008152600401620043329062008b44565b60405180910390fd5b5b509550959350505050565b60006040825110156200435e5760009050620043a5565b60008060208401519150602082146200437d57600092505050620043a5565b604084015190506200438f8162005d60565b60406200439d919062007962565b845114925050505b919050565b6000618000600460008573ffffffffffffffffffffffffffffffffffffffff1673ffffffffffffffffffffffffffffffffffffffff1681526020019081526020016000206000015416036200449c57618000600460008473ffffffffffffffffffffffffffffffffffffffff1673ffffffffffffffffffffffffffffffffffffffff168152602001908152602001600020600001600082825417925050819055508173ffffffffffffffffffffffffffffffffffffffff167fbe3aa33bd245135e4e26b223d79d14ea479a47bff09f2b03c53838af1edbb14b826040516200449391906200714e565b60405180910390a25b5050565b60606000801b60065414620044ec576040517f08c379a0000000000000000000000000000000000000000000000000000000008152600401620044e39062008bb6565b60405180910390fd5b826000600460008373ffffffffffffffffffffffffffffffffffffffff1673ffffffffffffffffffffffffffffffffffffffff168152602001908152602001600020600001549050600081116200457a576040517f08c379a000000000000000000000000000000000000000000000000000000000815260040162004571906200841f565b60405180910390fd5b6200458581620057be565b15620045c8576040517f08c379a0000000000000000000000000000000000000000000000000000000008152600401620045bf9062008491565b60405180910390fd5b836000620045d68262005a37565b90506330d9c91560e01b7bffffffffffffffffffffffffffffffffffffffffffffffffffffffff1916817bffffffffffffffffffffffffffffffffffffffffffffffffffffffff1916148062004670575063d86ed3e560e01b7bffffffffffffffffffffffffffffffffffffffffffffffffffffffff1916817bffffffffffffffffffffffffffffffffffffffffffffffffffffffff1916145b80620046c0575063884d1f4060e01b7bffffffffffffffffffffffffffffffffffffffffffffffffffffffff1916817bffffffffffffffffffffffffffffffffffffffffffffffffffffffff1916145b8062004710575063d86ed3e560e01b7bffffffffffffffffffffffffffffffffffffffffffffffffffffffff1916817bffffffffffffffffffffffffffffffffffffffffffffffffffffffff1916145b80620047605750635f9e7d7760e01b7bffffffffffffffffffffffffffffffffffffffffffffffffffffffff1916817bffffffffffffffffffffffffffffffffffffffffffffffffffffffff1916145b80620047b0575063d86ed3e560e01b7bffffffffffffffffffffffffffffffffffffffffffffffffffffffff1916817bffffffffffffffffffffffffffffffffffffffffffffffffffffffff1916145b15620047f3576040517f08c379a0000000000000000000000000000000000000000000000000000000008152600401620047ea9062008529565b60405180910390fd5b6000620048ed604051806101600160405280620048108c62001662565b6200481d57600062004820565b60015b60ff168152602001600260ff1681526020016200483c620036ba565b81526020018b73ffffffffffffffffffffffffffffffffffffffff168152602001600060e01b7bffffffffffffffffffffffffffffffffffffffffffffffffffffffff191681526020016040518060200160405280600081525081526020016000815260200160008152602001600081526020018a73ffffffffffffffffffffffffffffffffffffffff168152602001600073ffffffffffffffffffffffffffffffffffffffff1681525062003f8a565b90506000620048fe89898462004d31565b8098508192505050801562004978578680602001905181019062004923919062007c0b565b9150620049308262003f67565b62004972576040517f08c379a0000000000000000000000000000000000000000000000000000000008152600401620049699062007cac565b60405180910390fd5b62004984565b620049838762004e4e565b5b6000801b6006819055505050505050509392505050565b60606000801b60065414620049e7576040517f08c379a0000000000000000000000000000000000000000000000000000000008152600401620049de9062008bb6565b60405180910390fd5b83620049f38162002b27565b62004a35576040517f08c379a000000000000000000000000000000000000000000000000000000000815260040162004a2c9062007e28565b60405180910390fd5b600062004a428562005a37565b9050600062004b2c60405180610160016040528062004a618b62001662565b62004a6e57600062004a71565b60015b60ff168152602001600160ff16815260200162004a8d620036ba565b81526020018a73ffffffffffffffffffffffffffffffffffffffff168152602001847bffffffffffffffffffffffffffffffffffffffffffffffffffffffff19168152602001878152602001600081526020016000815260200160008152602001600073ffffffffffffffffffffffffffffffffffffffff168152602001600073ffffffffffffffffffffffffffffffffffffffff1681525062003f8a565b9050600062004b3d88888462004d31565b80965081925050508062004b575762004b568562004e4e565b5b6000801b60068190555050505050949350505050565b62004b7762005e39565b6060808380602001905181019062004b90919062008bd8565b809250819350505060008280602001905181019062004bb0919062008cd3565b88604001896060018a6080018b60a001849052847bffffffffffffffffffffffffffffffffffffffffffffffffffffffff19167bffffffffffffffffffffffffffffffffffffffffffffffffffffffff19168152508473ffffffffffffffffffffffffffffffffffffffff1673ffffffffffffffffffffffffffffffffffffffff1681525084815250849550505050505062004c4c8162005dac565b85600001866020018260ff1660ff168152508260ff1660ff1681525050505060008180602001905181019062004c83919062008da8565b8761010001886101200189610140018373ffffffffffffffffffffffffffffffffffffffff1673ffffffffffffffffffffffffffffffffffffffff168152508373ffffffffffffffffffffffffffffffffffffffff1673ffffffffffffffffffffffffffffffffffffffff1681525083815250839450505050506fffffffffffffffffffffffffffffffff801681168460c0018181525050608081901c8460e0018181525050505050919050565b60006060600073ffffffffffffffffffffffffffffffffffffffff168573ffffffffffffffffffffffffffffffffffffffff160362004d755762004d7462007933565b5b62004d81848462005c68565b93508473ffffffffffffffffffffffffffffffffffffffff168460405162004daa919062008a74565b6000604051808303816000865af19150503d806000811462004de9576040519150601f19603f3d011682016040523d82523d6000602084013e62004dee565b606091505b508092508193505050811562004e4657600081511162004e45576040517f08c379a000000000000000000000000000000000000000000000000000000000815260040162004e3c9062008e6a565b60405180910390fd5b5b935093915050565b60048151101562004e96576040517f08c379a000000000000000000000000000000000000000000000000000000000815260040162004e8d9062008edc565b60405180910390fd5b600060208201519050634e487b7160e01b7bffffffffffffffffffffffffffffffffffffffffffffffffffffffff1916817bffffffffffffffffffffffffffffffffffffffffffffffffffffffff19160362004fb95760006040518060400160405280602081526020017f43616c6c5574696c733a207461726765742070616e69636b65643a2030785f5f815250905060006024840151905060208201516030600f831601603060f0841660041c0160081b8181177fffffffffffffffffffffffffffffffffffffffffffffffffffffffffffff00008416179250826020860152505050816040517f08c379a000000000000000000000000000000000000000000000000000000000815260040162004fb0919062006b1a565b60405180910390fd5b6000825190508060208401fd5b600073ffffffffffffffffffffffffffffffffffffffff1662004fe8620051c3565b73ffffffffffffffffffffffffffffffffffffffff160362005041576040517f08c379a0000000000000000000000000000000000000000000000000000000008152600401620050389062008f4e565b60405180910390fd5b8073ffffffffffffffffffffffffffffffffffffffff166352d1902d6040518163ffffffff1660e01b8152600401602060405180830381865afa1580156200508d573d6000803e3d6000fd5b505050506040513d601f19601f82011682018060405250810190620050b391906200770b565b620050bd62001c25565b1462005100576040517f08c379a0000000000000000000000000000000000000000000000000000000008152600401620050f79062008fe6565b60405180910390fd5b8073ffffffffffffffffffffffffffffffffffffffff163073ffffffffffffffffffffffffffffffffffffffff160362005171576040517f08c379a0000000000000000000000000000000000000000000000000000000008152600401620051689062009058565b60405180910390fd5b6200517c8162005dc7565b7fe011bc04c286c344a8fcbb8de77f953da762c3e25d8cdea984147fc4168a5dcc620051a762001c25565b82604051620051b89291906200786e565b60405180910390a150565b60007f360894a13ba1a3210667c828492db98dca3e2076cc3735a920a3ca505d382bbc54905090565b600081604051602001620052019190620090f0565b604051602081830303815290604052805190602001209050919050565b600060186000369050101580156200523d57506200523c33620021fb565b5b6200527f576040517f08c379a0000000000000000000000000000000000000000000000000000000008152600401620052769062009172565b60405180910390fd5b601436033560601c905090565b60005b8151811015620057b9576000828281518110620052b157620052b06200783f565b5b6020026020010151600001519050600163ffffffff168163ffffffff1603620053ae57600080848481518110620052ed57620052ec6200783f565b5b6020026020010151604001518060200190518101906200530e919062009194565b915091508484815181106200532857620053276200783f565b5b60200260200101516020015173ffffffffffffffffffffffffffffffffffffffff166362aa52878784846040518463ffffffff1660e01b81526004016200537293929190620091db565b600060405180830381600087803b1580156200538d57600080fd5b505af1158015620053a2573d6000803e3d6000fd5b505050505050620057a2565b600263ffffffff168163ffffffff1603620054a4576000806000858581518110620053de57620053dd6200783f565b5b602002602001015160400151806020019051810190620053ff919062009218565b9250925092508585815181106200541b576200541a6200783f565b5b60200260200101516020015173ffffffffffffffffffffffffffffffffffffffff166316d055d6888585856040518563ffffffff1660e01b815260040162005467949392919062009274565b600060405180830381600087803b1580156200548257600080fd5b505af115801562005497573d6000803e3d6000fd5b50505050505050620057a1565b606563ffffffff168163ffffffff16036200558757828281518110620054cf57620054ce6200783f565b5b60200260200101516020015173ffffffffffffffffffffffffffffffffffffffff1663ca789464858585815181106200550d576200550c6200783f565b5b6020026020010151604001518060200190518101906200552e9190620081c9565b6040518363ffffffff1660e01b81526004016200554d929190620092c1565b600060405180830381600087803b1580156200556857600080fd5b505af11580156200557d573d6000803e3d6000fd5b50505050620057a0565b606663ffffffff168163ffffffff16036200566a57828281518110620055b257620055b16200783f565b5b60200260200101516020015173ffffffffffffffffffffffffffffffffffffffff1663245887fc85858581518110620055f057620055ef6200783f565b5b602002602001015160400151806020019051810190620056119190620081c9565b6040518363ffffffff1660e01b815260040162005630929190620092c1565b600060405180830381600087803b1580156200564b57600080fd5b505af115801562005660573d6000803e3d6000fd5b505050506200579f565b60c963ffffffff168163ffffffff1603620056f5576000808484815181106200569857620056976200783f565b5b602002602001015160400151806020019051810190620056b9919062008bd8565b91509150620056ec86868681518110620056d857620056d76200783f565b5b60200260200101516020015184846200499b565b5050506200579e565b60ca63ffffffff168163ffffffff1603620057605762005759848484815181106200572557620057246200783f565b5b6020026020010151602001518585815181106200574757620057466200783f565b5b602002602001015160400151620044a0565b506200579d565b6040517f08c379a0000000000000000000000000000000000000000000000000000000008152600401620057949062009364565b60405180910390fd5b5b5b5b5b5b508080620057b0906200874d565b9150506200528f565b505050565b6000806180008316119050919050565b3273ffffffffffffffffffffffffffffffffffffffff163373ffffffffffffffffffffffffffffffffffffffff16036200583f576040517f08c379a00000000000000000000000000000000000000000000000000000000081526004016200583690620093fc565b60405180910390fd5b801562005894576000823b90506000811462005892576040517f08c379a0000000000000000000000000000000000000000000000000000000008152600401620058899062009494565b60405180910390fd5b505b6200589f8362005ded565b8015620058b957506000620058b48462004106565b60ff16115b8015620058ca575060006180008416145b6200590c576040517f08c379a0000000000000000000000000000000000000000000000000000000008152600401620059039062009506565b60405180910390fd5b6000600460008473ffffffffffffffffffffffffffffffffffffffff1673ffffffffffffffffffffffffffffffffffffffff168152602001908152602001600020600001541462005994576040517f08c379a00000000000000000000000000000000000000000000000000000000081526004016200598b9062009578565b60405180910390fd5b604051806020016040528084815250600460008473ffffffffffffffffffffffffffffffffffffffff1673ffffffffffffffffffffffffffffffffffffffff168152602001908152602001600020600082015181600001559050508173ffffffffffffffffffffffffffffffffffffffff167f0d540ad8f39e07d19909687352b9fa017405d93c91a6760981fbae9cf28bfef760405160405180910390a2505050565b600060048251101562005a81576040517f08c379a000000000000000000000000000000000000000000000000000000000815260040162005a7890620095ea565b60405180910390fd5b60208201519050919050565b6000828260405160200162005aa4929190620096a8565b60405160208183030381529060405280519060200120905092915050565b60008060019054906101000a900460ff161562005b415760018260ff1614801562005af5575062005af33062005e08565b155b62005b37576040517f08c379a000000000000000000000000000000000000000000000000000000000815260040162005b2e9062009767565b60405180910390fd5b6000905062005bb8565b8160ff1660008054906101000a900460ff1660ff161062005b99576040517f08c379a000000000000000000000000000000000000000000000000000000000815260040162005b909062009767565b60405180910390fd5b816000806101000a81548160ff021916908360ff160217905550600190505b919050565b60008160405160200162005bd29190620097ff565b604051602081830303815290604052805190602001209050919050565b600060208260ff16901b8360ff1617905092915050565b60006fffffffffffffffffffffffffffffffff801682111562005c60576040517f08c379a000000000000000000000000000000000000000000000000000000000815260040162005c5790620098a7565b60405180910390fd5b819050919050565b606060008351905060008185015190506000811462005cbe576040517f08c379a000000000000000000000000000000000000000000000000000000000815260040162005cb5906200993f565b60405180910390fd5b5060208103845283835184855162005cd7875162005d60565b62005ce3919062007804565b67ffffffffffffffff81111562005cff5762005cfe62006391565b5b6040519080825280601f01601f19166020018201604052801562005d325781602001600182028036833780820191505090505b5060405160200162005d48949392919062009986565b60405160208183030381529060405291505092915050565b600060206000601f84161162005d7857600062005d7b565b60015b60ff1660208462005d8d919062008abc565b62005d99919062007962565b62005da59190620099d0565b9050919050565b60008060ff83169150602080600f901b8416901c9050915091565b807f360894a13ba1a3210667c828492db98dca3e2076cc3735a920a3ca505d382bbc5550565b60008064ff0000000061800060ff1717198316149050919050565b6000808273ffffffffffffffffffffffffffffffffffffffff163b119050919050565b6103c48062009a3283390190565b604051806101600160405280600060ff168152602001600060ff16815260200160008152602001600073ffffffffffffffffffffffffffffffffffffffff16815260200160007bffffffffffffffffffffffffffffffffffffffffffffffffffffffff1916815260200160608152602001600081526020016000815260200160008152602001600073ffffffffffffffffffffffffffffffffffffffff168152602001600073ffffffffffffffffffffffffffffffffffffffff1681525090565b6000604051905090565b600080fd5b600080fd5b600073ffffffffffffffffffffffffffffffffffffffff82169050919050565b600062005f3b8262005f0e565b9050919050565b600062005f4f8262005f2e565b9050919050565b62005f618162005f42565b811462005f6d57600080fd5b50565b60008135905062005f818162005f56565b92915050565b60006020828403121562005fa05762005f9f62005f04565b5b600062005fb08482850162005f70565b91505092915050565b600080fd5b600080fd5b600080fd5b60008083601f84011262005fe15762005fe062005fb9565b5b8235905067ffffffffffffffff81111562006001576200600062005fbe565b5b60208301915083600182028301111562006020576200601f62005fc3565b5b9250929050565b6000819050919050565b6200603c8162006027565b81146200604857600080fd5b50565b6000813590506200605c8162006031565b92915050565b6000819050919050565b620060778162006062565b81146200608357600080fd5b50565b60008135905062006097816200606c565b92915050565b60008060008060608587031215620060ba57620060b962005f04565b5b600085013567ffffffffffffffff811115620060db57620060da62005f09565b5b620060e98782880162005fc8565b94509450506020620060fe878288016200604b565b9250506040620061118782880162006086565b91505092959194509250565b600081519050919050565b600082825260208201905092915050565b60005b83811015620061595780820151818401526020810190506200613c565b8381111562006169576000848401525b50505050565b6000601f19601f8301169050919050565b60006200618d826200611d565b62006199818562006128565b9350620061ab81856020860162006139565b620061b6816200616f565b840191505092915050565b60006020820190508181036000830152620061dd818462006180565b905092915050565b6000620061f28262005f2e565b9050919050565b6200620481620061e5565b81146200621057600080fd5b50565b6000813590506200622481620061f9565b92915050565b60006020828403121562006243576200624262005f04565b5b6000620062538482850162006213565b91505092915050565b600060ff82169050919050565b62006274816200625c565b82525050565b600060208201905062006291600083018462006269565b92915050565b60008115159050919050565b620062ae8162006297565b8114620062ba57600080fd5b50565b600081359050620062ce81620062a3565b92915050565b60008060008060008060808789031215620062f457620062f362005f04565b5b60006200630489828a0162006213565b965050602087013567ffffffffffffffff81111562006328576200632762005f09565b5b6200633689828a0162005fc8565b955095505060406200634b89828a01620062bd565b935050606087013567ffffffffffffffff8111156200636f576200636e62005f09565b5b6200637d89828a0162005fc8565b92509250509295509295509295565b600080fd5b7f4e487b7100000000000000000000000000000000000000000000000000000000600052604160045260246000fd5b620063cb826200616f565b810181811067ffffffffffffffff82111715620063ed57620063ec62006391565b5b80604052505050565b60006200640262005efa565b9050620064108282620063c0565b919050565b600067ffffffffffffffff82111562006433576200643262006391565b5b6200643e826200616f565b9050602081019050919050565b82818337600083830152505050565b6000620064716200646b8462006415565b620063f6565b90508281526020810184848401111562006490576200648f6200638c565b5b6200649d8482856200644b565b509392505050565b600082601f830112620064bd57620064bc62005fb9565b5b8135620064cf8482602086016200645a565b91505092915050565b60008060408385031215620064f257620064f162005f04565b5b6000620065028582860162006213565b925050602083013567ffffffffffffffff81111562006526576200652562005f09565b5b6200653485828601620064a5565b9150509250929050565b6000819050919050565b600062006569620065636200655d8462005f0e565b6200653e565b62005f0e565b9050919050565b60006200657d8262006548565b9050919050565b6000620065918262006570565b9050919050565b620065a38162006584565b82525050565b6000602082019050620065c0600083018462006598565b92915050565b600067ffffffffffffffff82169050919050565b620065e581620065c6565b82525050565b6000602082019050620066026000830184620065da565b92915050565b60008060006060848603121562006624576200662362005f04565b5b6000620066348682870162005f70565b935050602084013567ffffffffffffffff81111562006658576200665762005f09565b5b6200666686828701620064a5565b925050604084013567ffffffffffffffff8111156200668a576200668962005f09565b5b6200669886828701620064a5565b9150509250925092565b620066ad8162006297565b82525050565b6000602082019050620066ca6000830184620066a2565b92915050565b600060208284031215620066e957620066e862005f04565b5b600082013567ffffffffffffffff8111156200670a576200670962005f09565b5b6200671884828501620064a5565b91505092915050565b6200672c816200625c565b82525050565b6200673d8162006027565b82525050565b6200674e8162005f2e565b82525050565b60007fffffffff0000000000000000000000000000000000000000000000000000000082169050919050565b6200678b8162006754565b82525050565b600082825260208201905092915050565b6000620067af826200611d565b620067bb818562006791565b9350620067cd81856020860162006139565b620067d8816200616f565b840191505092915050565b620067ee8162006062565b82525050565b6000620068018262006570565b9050919050565b6200681381620067f4565b82525050565b60006101608301600083015162006834600086018262006721565b50602083015162006849602086018262006721565b5060408301516200685e604086018262006732565b50606083015162006873606086018262006743565b50608083015162006888608086018262006780565b5060a083015184820360a0860152620068a28282620067a2565b91505060c0830151620068b960c086018262006732565b5060e0830151620068ce60e086018262006732565b50610100830151620068e5610100860182620067e3565b50610120830151620068fc61012086018262006743565b506101408301516200691361014086018262006808565b508091505092915050565b600060208201905081810360008301526200693a818462006819565b905092915050565b60008060008060008060006080888a03121562006964576200696362005f04565b5b6000620069748a828b0162005f70565b975050602088013567ffffffffffffffff81111562006998576200699762005f09565b5b620069a68a828b0162005fc8565b9650965050604088013567ffffffffffffffff811115620069cc57620069cb62005f09565b5b620069da8a828b0162005fc8565b9450945050606088013567ffffffffffffffff81111562006a0057620069ff62005f09565b5b62006a0e8a828b0162005fc8565b925092505092959891949750929550565b6000604082019050818103600083015262006a3b818562006180565b9050818103602083015262006a51818462006180565b90509392505050565b62006a658162005f2e565b811462006a7157600080fd5b50565b60008135905062006a858162006a5a565b92915050565b60006020828403121562006aa45762006aa362005f04565b5b600062006ab48482850162006a74565b91505092915050565b600081519050919050565b600082825260208201905092915050565b600062006ae68262006abd565b62006af2818562006ac8565b935062006b0481856020860162006139565b62006b0f816200616f565b840191505092915050565b6000602082019050818103600083015262006b36818462006ad9565b905092915050565b62006b498162005f2e565b82525050565b600060208201905062006b66600083018462006b3e565b92915050565b6000819050919050565b62006b818162006b6c565b82525050565b600060208201905062006b9e600083018462006b76565b92915050565b600062006bb18262005f2e565b9050919050565b62006bc38162006ba4565b811462006bcf57600080fd5b50565b60008135905062006be38162006bb8565b92915050565b60006020828403121562006c025762006c0162005f04565b5b600062006c128482850162006bd2565b91505092915050565b600067ffffffffffffffff82111562006c395762006c3862006391565b5b602082029050602081019050919050565b600080fd5b600080fd5b600063ffffffff82169050919050565b62006c6f8162006c54565b811462006c7b57600080fd5b50565b60008135905062006c8f8162006c64565b92915050565b60006060828403121562006cae5762006cad62006c4a565b5b62006cba6060620063f6565b9050600062006ccc8482850162006c7e565b600083015250602062006ce28482850162006a74565b602083015250604082013567ffffffffffffffff81111562006d095762006d0862006c4f565b5b62006d1784828501620064a5565b60408301525092915050565b600062006d3a62006d348462006c1b565b620063f6565b9050808382526020820190506020840283018581111562006d605762006d5f62005fc3565b5b835b8181101562006dae57803567ffffffffffffffff81111562006d895762006d8862005fb9565b5b80860162006d98898262006c95565b8552602085019450505060208101905062006d62565b5050509392505050565b600082601f83011262006dd05762006dcf62005fb9565b5b813562006de284826020860162006d23565b91505092915050565b60006020828403121562006e045762006e0362005f04565b5b600082013567ffffffffffffffff81111562006e255762006e2462005f09565b5b62006e338482850162006db8565b91505092915050565b600062006e498262005f2e565b9050919050565b62006e5b8162006e3c565b811462006e6757600080fd5b50565b60008135905062006e7b8162006e50565b92915050565b60006020828403121562006e9a5762006e9962005f04565b5b600062006eaa8482850162006e6a565b91505092915050565b600062006ec08262006570565b9050919050565b62006ed28162006eb3565b82525050565b600060208201905062006eef600083018462006ec7565b92915050565b600062006f028262005f2e565b9050919050565b62006f148162006ef5565b811462006f2057600080fd5b50565b60008135905062006f348162006f09565b92915050565b60008060008060008060a0878903121562006f5a5762006f5962005f04565b5b600087013567ffffffffffffffff81111562006f7b5762006f7a62005f09565b5b62006f8989828a0162005fc8565b9650965050602062006f9e89828a0162006213565b945050604062006fb189828a016200604b565b935050606062006fc489828a0162006086565b925050608062006fd789828a0162006f23565b9150509295509295509295565b600062006ff18262005f2e565b9050919050565b620070038162006fe4565b81146200700f57600080fd5b50565b600081359050620070238162006ff8565b92915050565b60006020828403121562007042576200704162005f04565b5b6000620070528482850162007012565b91505092915050565b60008060006040848603121562007077576200707662005f04565b5b600084013567ffffffffffffffff81111562007098576200709762005f09565b5b620070a68682870162005fc8565b93509350506020620070bb8682870162006086565b9150509250925092565b620070d08162006b6c565b8114620070dc57600080fd5b50565b600081359050620070f081620070c5565b92915050565b6000806040838503121562007110576200710f62005f04565b5b600062007120858286016200604b565b92505060206200713385828601620070df565b9150509250929050565b620071488162006027565b82525050565b60006020820190506200716560008301846200713d565b92915050565b60006020828403121562007184576200718362005f04565b5b600062007194848285016200604b565b91505092915050565b600060208284031215620071b657620071b562005f04565b5b6000620071c684828501620070df565b91505092915050565b6000620071dc8262006570565b9050919050565b620071ee81620071cf565b82525050565b60006020820190506200720b6000830184620071e3565b92915050565b600080600080606085870312156200722e576200722d62005f04565b5b600085013567ffffffffffffffff8111156200724f576200724e62005f09565b5b6200725d8782880162005fc8565b94509450506020620072728782880162006213565b925050604062007285878288016200604b565b91505092959194509250565b600080600080600060608688031215620072b057620072af62005f04565b5b6000620072c08882890162006213565b955050602086013567ffffffffffffffff811115620072e457620072e362005f09565b5b620072f28882890162005fc8565b9450945050604086013567ffffffffffffffff81111562007318576200731762005f09565b5b620073268882890162005fc8565b92509250509295509295909350565b600080604083850312156200734f576200734e62005f04565b5b60006200735f8582860162006213565b9250506020620073728582860162006213565b9150509250929050565b60008083601f84011262007395576200739462005fb9565b5b8235905067ffffffffffffffff811115620073b557620073b462005fbe565b5b602083019150836001820283011115620073d457620073d362005fc3565b5b9250929050565b600080600060408486031215620073f757620073f662005f04565b5b600062007407868287016200604b565b935050602084013567ffffffffffffffff8111156200742b576200742a62005f09565b5b62007439868287016200737c565b92509250509250925092565b600080602083850312156200745f576200745e62005f04565b5b600083013567ffffffffffffffff81111562007480576200747f62005f09565b5b6200748e8582860162005fc8565b92509250509250929050565b600081519050919050565b600082825260208201905092915050565b6000819050602082019050919050565b620074d181620071cf565b82525050565b6000620074e58383620074c6565b60208301905092915050565b6000602082019050919050565b60006200750b826200749a565b620075178185620074a5565b93506200752483620074b6565b8060005b838110156200755b5781516200753f8882620074d7565b97506200754c83620074f1565b92505060018101905062007528565b5085935050505092915050565b60006020820190508181036000830152620075848184620074fe565b905092915050565b60008060408385031215620075a657620075a562005f04565b5b6000620075b68582860162006213565b9250506020620075c9858286016200604b565b9150509250929050565b6000606082019050620075ea6000830186620066a2565b620075f96020830185620066a2565b6200760860408301846200713d565b949350505050565b7f53463a206f6e6c7920676f7665726e616e636520616c6c6f7765640000000000600082015250565b600062007648601b8362006ac8565b9150620076558262007610565b602082019050919050565b600060208201905081810360008301526200767b8162007639565b9050919050565b7f53463a206e6f6e2075706772616461626c650000000000000000000000000000600082015250565b6000620076ba60128362006ac8565b9150620076c78262007682565b602082019050919050565b60006020820190508181036000830152620076ed81620076ab565b9050919050565b6000815190506200770581620070c5565b92915050565b60006020828403121562007724576200772362005f04565b5b60006200773484828501620076f4565b91505092915050565b7f53463a2061677265656d656e7420636c617373206e6f7420726567697374657260008201527f6564000000000000000000000000000000000000000000000000000000000000602082015250565b60006200779b60228362006ac8565b9150620077a8826200773d565b604082019050919050565b60006020820190508181036000830152620077ce816200778c565b9050919050565b7f4e487b7100000000000000000000000000000000000000000000000000000000600052601160045260246000fd5b6000620078118262006027565b91506200781e8362006027565b925082821015620078345762007833620077d5565b5b828203905092915050565b7f4e487b7100000000000000000000000000000000000000000000000000000000600052603260045260246000fd5b600060408201905062007885600083018562006b76565b62007894602083018462006b3e565b9392505050565b7f53463a2073656e646572206973206e6f74206c6973746564206167726565656d60008201527f656e740000000000000000000000000000000000000000000000000000000000602082015250565b6000620078f960238362006ac8565b915062007906826200789b565b604082019050919050565b600060208201905081810360008301526200792c81620078ea565b9050919050565b7f4e487b7100000000000000000000000000000000000000000000000000000000600052600160045260246000fd5b60006200796f8262006027565b91506200797c8362006027565b9250827fffffffffffffffffffffffffffffffffffffffffffffffffffffffffffffffff03821115620079b457620079b3620077d5565b5b828201905092915050565b6000620079cc8262006062565b9150620079d98362006062565b9250817f7fffffffffffffffffffffffffffffffffffffffffffffffffffffffffffffff0383136000831215161562007a175762007a16620077d5565b5b817f800000000000000000000000000000000000000000000000000000000000000003831260008312161562007a525762007a51620077d5565b5b828201905092915050565b7f53463a2061677265656d656e7420636c61737320616c7265616479207265676960008201527f7374657265640000000000000000000000000000000000000000000000000000602082015250565b600062007abb60268362006ac8565b915062007ac88262007a5d565b604082019050919050565b6000602082019050818103600083015262007aee8162007aac565b9050919050565b7f53463a20737570706f727420757020746f203235362061677265656d656e742060008201527f636c617373657300000000000000000000000000000000000000000000000000602082015250565b600062007b5360278362006ac8565b915062007b608262007af5565b604082019050919050565b6000602082019050818103600083015262007b868162007b44565b9050919050565b600062007ba462007b9e8462006415565b620063f6565b90508281526020810184848401111562007bc35762007bc26200638c565b5b62007bd084828562006139565b509392505050565b600082601f83011262007bf05762007bef62005fb9565b5b815162007c0284826020860162007b8d565b91505092915050565b60006020828403121562007c245762007c2362005f04565b5b600082015167ffffffffffffffff81111562007c455762007c4462005f09565b5b62007c538482850162007bd8565b91505092915050565b7f53463a204150505f52554c455f4354585f49535f524541444f4e4c5900000000600082015250565b600062007c94601c8362006ac8565b915062007ca18262007c5c565b602082019050919050565b6000602082019050818103600083015262007cc78162007c85565b9050919050565b7f53463a204150505f52554c455f4354585f49535f4d414c464f524d4154454400600082015250565b600062007d06601f8362006ac8565b915062007d138262007cce565b602082019050919050565b6000602082019050818103600083015262007d398162007cf7565b9050919050565b7f53463a204150505f52554c455f4354585f49535f4e4f545f56414c4944000000600082015250565b600062007d78601d8362006ac8565b915062007d858262007d40565b602082019050919050565b6000602082019050818103600083015262007dab8162007d69565b9050919050565b7f53463a206f6e6c79206c6973746564206167726565656d656e7420616c6c6f7760008201527f6564000000000000000000000000000000000000000000000000000000000000602082015250565b600062007e1060228362006ac8565b915062007e1d8262007db2565b604082019050919050565b6000602082019050818103600083015262007e438162007e01565b9050919050565b7f53463a2063616c6c41677265656d656e7457697468436f6e746578742066726f60008201527f6d2077726f6e6720616464726573730000000000000000000000000000000000602082015250565b600062007ea8602f8362006ac8565b915062007eb58262007e4a565b604082019050919050565b6000602082019050818103600083015262007edb8162007e99565b9050919050565b60008151905062007ef381620062a3565b92915050565b60006020828403121562007f125762007f1162005f04565b5b600062007f228482850162007ee2565b91505092915050565b7f53463a2063616e6e6f7420646f776e677261646520746f206e6f6e207570677260008201527f616461626c650000000000000000000000000000000000000000000000000000602082015250565b600062007f8960268362006ac8565b915062007f968262007f2b565b604082019050919050565b6000602082019050818103600083015262007fbc8162007f7a565b9050919050565b7f53463a2073656e646572206973206e6f7420616e206170700000000000000000600082015250565b600062007ffb60188362006ac8565b9150620080088262007fc3565b602082019050919050565b600060208201905081810360008301526200802e8162007fec565b9050919050565b7f53463a20746172676574206973206e6f7420616e206170700000000000000000600082015250565b60006200806d60188362006ac8565b91506200807a8262008035565b602082019050919050565b60006020820190508181036000830152620080a0816200805e565b9050919050565b7f53463a20736f75726365206170702073686f756c64206861766520686967686560008201527f7220617070206c6576656c000000000000000000000000000000000000000000602082015250565b600062008105602b8362006ac8565b91506200811282620080a7565b604082019050919050565b600060208201905081810360008301526200813881620080f6565b9050919050565b60006200814c8262006570565b9050919050565b6200815e816200813f565b82525050565b6200816f81620067f4565b82525050565b60006060820190506200818c600083018662008153565b6200819b602083018562008164565b620081aa604083018462006b76565b949350505050565b600081519050620081c38162006031565b92915050565b600060208284031215620081e257620081e162005f04565b5b6000620081f284828501620081b2565b91505092915050565b600060408201905062008212600083018562006598565b62008221602083018462006598565b9392505050565b7f53463a204150505f52554c455f434f4d504f534954455f4150505f49535f4e4f60008201527f545f57484954454c495354454400000000000000000000000000000000000000602082015250565b600062008286602d8362006ac8565b9150620082938262008228565b604082019050919050565b60006020820190508181036000830152620082b98162008277565b9050919050565b6000620082cd826200625c565b915060ff8203620082e357620082e2620077d5565b5b600182019050919050565b600081519050620082ff8162006ff8565b92915050565b6000602082840312156200831e576200831d62005f04565b5b60006200832e84828501620082ee565b91505092915050565b7f53463a2061707020726567697374726174696f6e20726571756972657320706560008201527f726d697373696f6e000000000000000000000000000000000000000000000000602082015250565b60006200839560288362006ac8565b9150620083a28262008337565b604082019050919050565b60006020820190508181036000830152620083c88162008386565b9050919050565b7f53463a206e6f7420612073757065722061707000000000000000000000000000600082015250565b60006200840760138362006ac8565b91506200841482620083cf565b602082019050919050565b600060208201905081810360008301526200843a81620083f8565b9050919050565b7f53463a20617070206973206a61696c6564000000000000000000000000000000600082015250565b60006200847960118362006ac8565b9150620084868262008441565b602082019050919050565b60006020820190508181036000830152620084ac816200846a565b9050919050565b7f53463a2061677265656d656e742063616c6c6261636b206973206e6f7420616360008201527f74696f6e00000000000000000000000000000000000000000000000000000000602082015250565b60006200851160248362006ac8565b91506200851e82620084b3565b604082019050919050565b60006020820190508181036000830152620085448162008502565b9050919050565b7f53463a2063616c6c417070416374696f6e57697468436f6e746578742066726f60008201527f6d2077726f6e6720616464726573730000000000000000000000000000000000602082015250565b6000620085a9602f8362006ac8565b9150620085b6826200854b565b604082019050919050565b60006020820190508181036000830152620085dc816200859a565b9050919050565b7f53463a20696e76616c696420726567697374726174696f6e206b657900000000600082015250565b60006200861b601c8362006ac8565b91506200862882620085e3565b602082019050919050565b600060208201905081810360008301526200864e816200860c565b9050919050565b7f53463a20726567697374726174696f6e206b657920616c72656164792075736560008201527f6400000000000000000000000000000000000000000000000000000000000000602082015250565b6000620086b360218362006ac8565b9150620086c08262008655565b604082019050919050565b60006020820190508181036000830152620086e681620086a4565b9050919050565b6000819050919050565b600062008718620087126200870c84620086ed565b6200653e565b6200625c565b9050919050565b6200872a81620086f7565b82525050565b60006020820190506200874760008301846200871f565b92915050565b60006200875a8262006027565b91507fffffffffffffffffffffffffffffffffffffffffffffffffffffffffffffffff82036200878f576200878e620077d5565b5b600182019050919050565b600081519050620087ab8162006a5a565b92915050565b600060208284031215620087ca57620087c962005f04565b5b6000620087da848285016200879a565b91505092915050565b7f53463a20666163746f7279206d757374206265206120636f6e74726163740000600082015250565b60006200881b601e8362006ac8565b91506200882882620087e3565b602082019050919050565b600060208201905081810360008301526200884e816200880c565b9050919050565b7f53463a20617574686f72697a656420666163746f727920726571756972656400600082015250565b60006200888d601f8362006ac8565b91506200889a8262008855565b602082019050919050565b60006020820190508181036000830152620088c0816200887e565b9050919050565b7f53463a204150505f52554c455f4d41585f4150505f4c4556454c5f524541434860008201527f4544000000000000000000000000000000000000000000000000000000000000602082015250565b60006200892560228362006ac8565b91506200893282620088c7565b604082019050919050565b60006020820190508181036000830152620089588162008916565b9050919050565b6200896a8162006754565b82525050565b600060a0820190506200898760008301886200713d565b6200899660208301876200713d565b620089a5604083018662006b3e565b620089b460608301856200895f565b8181036080830152620089c8818462006180565b90509695505050505050565b620089df8162006062565b82525050565b6000608082019050620089fc60008301876200713d565b62008a0b6020830186620089d4565b62008a1a604083018562006b3e565b62008a29606083018462008164565b95945050505050565b600081905092915050565b600062008a4a826200611d565b62008a56818562008a32565b935062008a6881856020860162006139565b80840191505092915050565b600062008a82828462008a3d565b915081905092915050565b7f4e487b7100000000000000000000000000000000000000000000000000000000600052601260045260246000fd5b600062008ac98262006027565b915062008ad68362006027565b92508262008ae95762008ae862008a8d565b5b828204905092915050565b7f53463a206e656564206d6f726520676173000000000000000000000000000000600082015250565b600062008b2c60118362006ac8565b915062008b398262008af4565b602082019050919050565b6000602082019050818103600083015262008b5f8162008b1d565b9050919050565b7f53463a204150505f52554c455f4354585f49535f4e4f545f434c45414e000000600082015250565b600062008b9e601d8362006ac8565b915062008bab8262008b66565b602082019050919050565b6000602082019050818103600083015262008bd18162008b8f565b9050919050565b6000806040838503121562008bf25762008bf162005f04565b5b600083015167ffffffffffffffff81111562008c135762008c1262005f09565b5b62008c218582860162007bd8565b925050602083015167ffffffffffffffff81111562008c455762008c4462005f09565b5b62008c538582860162007bd8565b9150509250929050565b600062008c6a8262005f0e565b9050919050565b62008c7c8162008c5d565b811462008c8857600080fd5b50565b60008151905062008c9c8162008c71565b92915050565b62008cad8162006754565b811462008cb957600080fd5b50565b60008151905062008ccd8162008ca2565b92915050565b600080600080600060a0868803121562008cf25762008cf162005f04565b5b600062008d0288828901620081b2565b955050602062008d1588828901620081b2565b945050604062008d288882890162008c8b565b935050606062008d3b8882890162008cbc565b925050608086015167ffffffffffffffff81111562008d5f5762008d5e62005f09565b5b62008d6d8882890162007bd8565b9150509295509295909350565b60008151905062008d8b816200606c565b92915050565b60008151905062008da28162006f09565b92915050565b6000806000806080858703121562008dc55762008dc462005f04565b5b600062008dd587828801620081b2565b945050602062008de88782880162008d7a565b935050604062008dfb8782880162008c8b565b925050606062008e0e8782880162008d91565b91505092959194509250565b7f53463a204150505f52554c455f4354585f49535f454d50545900000000000000600082015250565b600062008e5260198362006ac8565b915062008e5f8262008e1a565b602082019050919050565b6000602082019050818103600083015262008e858162008e43565b9050919050565b7f43616c6c5574696c733a20746172676574207265766572742829000000000000600082015250565b600062008ec4601a8362006ac8565b915062008ed18262008e8c565b602082019050919050565b6000602082019050818103600083015262008ef78162008eb5565b9050919050565b7f5555505350726f786961626c653a206e6f742075706772616461626c65000000600082015250565b600062008f36601d8362006ac8565b915062008f438262008efe565b602082019050919050565b6000602082019050818103600083015262008f698162008f27565b9050919050565b7f5555505350726f786961626c653a206e6f7420636f6d70617469626c65206c6f60008201527f6769630000000000000000000000000000000000000000000000000000000000602082015250565b600062008fce60238362006ac8565b915062008fdb8262008f70565b604082019050919050565b60006020820190508181036000830152620090018162008fbf565b9050919050565b7f5555505350726f786961626c653a2070726f7879206c6f6f7000000000000000600082015250565b60006200904060198362006ac8565b91506200904d8262009008565b602082019050919050565b60006020820190508181036000830152620090738162009031565b9050919050565b7f6f72672e7375706572666c7569642d66696e616e63652e7375706572666c756960008201527f642e74727573746564466f727761726465720000000000000000000000000000602082015250565b6000620090d860328362006ac8565b9150620090e5826200907a565b604082019050919050565b600060408201905081810360008301526200910b81620090c9565b90506200911c602083018462006b3e565b92915050565b7f4e6f74207472757374656420666f727761726465720000000000000000000000600082015250565b60006200915a60158362006ac8565b9150620091678262009122565b602082019050919050565b600060208201905081810360008301526200918d816200914b565b9050919050565b60008060408385031215620091ae57620091ad62005f04565b5b6000620091be8582860162008c8b565b9250506020620091d185828601620081b2565b9150509250929050565b6000606082019050620091f2600083018662006b3e565b62009201602083018562006b3e565b6200921060408301846200713d565b949350505050565b60008060006060848603121562009234576200923362005f04565b5b6000620092448682870162008c8b565b9350506020620092578682870162008c8b565b92505060406200926a86828701620081b2565b9150509250925092565b60006080820190506200928b600083018762006b3e565b6200929a602083018662006b3e565b620092a9604083018562006b3e565b620092b860608301846200713d565b95945050505050565b6000604082019050620092d8600083018562006b3e565b620092e760208301846200713d565b9392505050565b7f53463a20756e6b6e6f776e2062617463682063616c6c206f7065726174696f6e60008201527f2074797065000000000000000000000000000000000000000000000000000000602082015250565b60006200934c60258362006ac8565b91506200935982620092ee565b604082019050919050565b600060208201905081810360008301526200937f816200933d565b9050919050565b7f53463a204150505f52554c455f4e4f5f524547495354524154494f4e5f464f5260008201527f5f454f4100000000000000000000000000000000000000000000000000000000602082015250565b6000620093e460248362006ac8565b9150620093f18262009386565b604082019050919050565b600060208201905081810360008301526200941781620093d5565b9050919050565b7f53463a204150505f52554c455f524547495354524154494f4e5f4f4e4c595f4960008201527f4e5f434f4e5354525543544f5200000000000000000000000000000000000000602082015250565b60006200947c602d8362006ac8565b915062009489826200941e565b604082019050919050565b60006020820190508181036000830152620094af816200946d565b9050919050565b7f53463a20696e76616c696420636f6e66696720776f7264000000000000000000600082015250565b6000620094ee60178362006ac8565b9150620094fb82620094b6565b602082019050919050565b600060208201905081810360008301526200952181620094df565b9050919050565b7f53463a2061707020616c72656164792072656769737465726564000000000000600082015250565b600062009560601a8362006ac8565b91506200956d8262009528565b602082019050919050565b60006020820190508181036000830152620095938162009551565b9050919050565b7f43616c6c5574696c733a20696e76616c69642063616c6c446174610000000000600082015250565b6000620095d2601b8362006ac8565b9150620095df826200959a565b602082019050919050565b600060208201905081810360008301526200960581620095c3565b9050919050565b7f6f72672e7375706572666c7569642d66696e616e63652e7375706572666c756960008201527f642e61707057686974654c697374696e672e726567697374726174696f6e4b6560208201527f7900000000000000000000000000000000000000000000000000000000000000604082015250565b60006200969060418362006ac8565b91506200969d826200960c565b606082019050919050565b60006060820190508181036000830152620096c38162009681565b9050620096d4602083018562006b3e565b8181036040830152620096e8818462006ad9565b90509392505050565b7f496e697469616c697a61626c653a20636f6e747261637420697320616c72656160008201527f647920696e697469616c697a6564000000000000000000000000000000000000602082015250565b60006200974f602e8362006ac8565b91506200975c82620096f1565b604082019050919050565b60006020820190508181036000830152620097828162009740565b9050919050565b7f6f72672e7375706572666c7569642d66696e616e63652e7375706572666c756960008201527f642e61707057686974654c697374696e672e666163746f727900000000000000602082015250565b6000620097e760398362006ac8565b9150620097f48262009789565b604082019050919050565b600060408201905081810360008301526200981a81620097d8565b90506200982b602083018462006b3e565b92915050565b7f53616665436173743a2076616c756520646f65736e27742066697420696e203160008201527f3238206269747300000000000000000000000000000000000000000000000000602082015250565b60006200988f60278362006ac8565b91506200989c8262009831565b604082019050919050565b60006020820190508181036000830152620098c28162009880565b9050919050565b7f53463a20706c61636572686f6c646572206374782073686f756c64206861766560008201527f207a65726f206c656e6774680000000000000000000000000000000000000000602082015250565b600062009927602c8362006ac8565b91506200993482620098c9565b604082019050919050565b600060208201905081810360008301526200995a8162009918565b9050919050565b6000819050919050565b620099806200997a8262006027565b62009961565b82525050565b600062009994828762008a3d565b9150620099a282866200996b565b602082019150620099b4828562008a3d565b9150620099c2828462008a3d565b915081905095945050505050565b6000620099dd8262006027565b9150620099ea8362006027565b9250817fffffffffffffffffffffffffffffffffffffffffffffffffffffffffffffffff048311821515161562009a265762009a25620077d5565b5b82820290509291505056fe608060405234801561001057600080fd5b506103a4806100206000396000f3fe6080604052600436106100225760003560e01c80634a0687ef1461003b57610031565b366100315761002f610064565b005b610039610064565b005b34801561004757600080fd5b50610062600480360381019061005d9190610258565b61007e565b005b61006c61016f565b61007c610077610171565b610180565b565b600073ffffffffffffffffffffffffffffffffffffffff168173ffffffffffffffffffffffffffffffffffffffff16036100ed576040517f08c379a00000000000000000000000000000000000000000000000000000000081526004016100e4906102e2565b60405180910390fd5b600073ffffffffffffffffffffffffffffffffffffffff1661010d6101a6565b73ffffffffffffffffffffffffffffffffffffffff1614610163576040517f08c379a000000000000000000000000000000000000000000000000000000000815260040161015a9061034e565b60405180910390fd5b61016c816101cf565b50565b565b600061017b6101a6565b905090565b3660008037600080366000845af43d6000803e80600081146101a1573d6000f35b3d6000fd5b60007f360894a13ba1a3210667c828492db98dca3e2076cc3735a920a3ca505d382bbc54905090565b807f360894a13ba1a3210667c828492db98dca3e2076cc3735a920a3ca505d382bbc5550565b600080fd5b600073ffffffffffffffffffffffffffffffffffffffff82169050919050565b6000610225826101fa565b9050919050565b6102358161021a565b811461024057600080fd5b50565b6000813590506102528161022c565b92915050565b60006020828403121561026e5761026d6101f5565b5b600061027c84828501610243565b91505092915050565b600082825260208201905092915050565b7f5555505350726f78793a207a65726f2061646472657373000000000000000000600082015250565b60006102cc601783610285565b91506102d782610296565b602082019050919050565b600060208201905081810360008301526102fb816102bf565b9050919050565b7f5555505350726f78793a20616c726561647920696e697469616c697a65640000600082015250565b6000610338601e83610285565b915061034382610302565b602082019050919050565b600060208201905081810360008301526103678161032b565b905091905056fea26469706673582212201f29edee3dcc82c6d5ceff1a3b85a28335e2a29cd594bf13db833fee8399e15b64736f6c634300080d0033a2646970667358221220d4982a27cb1f644d59a795022499f6ddfb5466372be4cb567e41e4579c22224064736f6c634300080d0033",
  "linkReferences": {},
  "deployedLinkReferences": {}
}